{
  "_format": "hh-sol-artifact-1",
  "contractName": "NebulaGovernor",
  "sourceName": "contracts/Governance.sol",
  "abi": [
    {
      "inputs": [
        {
          "internalType": "contract IVotes",
          "name": "_token",
          "type": "address"
        },
        {
          "internalType": "contract TimelockController",
          "name": "_timelock",
          "type": "address"
        },
        {
          "internalType": "uint256",
          "name": "_votingDelay",
          "type": "uint256"
        },
        {
          "internalType": "uint256",
          "name": "_votingPeriod",
          "type": "uint256"
        },
        {
          "internalType": "uint256",
          "name": "_quorumPercentage",
          "type": "uint256"
        }
      ],
      "stateMutability": "nonpayable",
      "type": "constructor"
    },
    {
      "inputs": [],
      "name": "Empty",
      "type": "error"
    },
    {
      "inputs": [],
      "name": "InvalidShortString",
      "type": "error"
    },
    {
      "inputs": [
        {
          "internalType": "string",
          "name": "str",
          "type": "string"
        }
      ],
      "name": "StringTooLong",
      "type": "error"
    },
    {
      "anonymous": false,
      "inputs": [],
      "name": "EIP712DomainChanged",
      "type": "event"
    },
    {
      "anonymous": false,
      "inputs": [
        {
          "indexed": false,
          "internalType": "uint256",
          "name": "proposalId",
          "type": "uint256"
        }
      ],
      "name": "ProposalCanceled",
      "type": "event"
    },
    {
      "anonymous": false,
      "inputs": [
        {
          "indexed": false,
          "internalType": "uint256",
          "name": "proposalId",
          "type": "uint256"
        },
        {
          "indexed": false,
          "internalType": "address",
          "name": "proposer",
          "type": "address"
        },
        {
          "indexed": false,
          "internalType": "address[]",
          "name": "targets",
          "type": "address[]"
        },
        {
          "indexed": false,
          "internalType": "uint256[]",
          "name": "values",
          "type": "uint256[]"
        },
        {
          "indexed": false,
          "internalType": "string[]",
          "name": "signatures",
          "type": "string[]"
        },
        {
          "indexed": false,
          "internalType": "bytes[]",
          "name": "calldatas",
          "type": "bytes[]"
        },
        {
          "indexed": false,
          "internalType": "uint256",
          "name": "voteStart",
          "type": "uint256"
        },
        {
          "indexed": false,
          "internalType": "uint256",
          "name": "voteEnd",
          "type": "uint256"
        },
        {
          "indexed": false,
          "internalType": "string",
          "name": "description",
          "type": "string"
        }
      ],
      "name": "ProposalCreated",
      "type": "event"
    },
    {
      "anonymous": false,
      "inputs": [
        {
          "indexed": false,
          "internalType": "uint256",
          "name": "proposalId",
          "type": "uint256"
        }
      ],
      "name": "ProposalExecuted",
      "type": "event"
    },
    {
      "anonymous": false,
      "inputs": [
        {
          "indexed": false,
          "internalType": "uint256",
          "name": "proposalId",
          "type": "uint256"
        },
        {
          "indexed": false,
          "internalType": "uint256",
          "name": "eta",
          "type": "uint256"
        }
      ],
      "name": "ProposalQueued",
      "type": "event"
    },
    {
      "anonymous": false,
      "inputs": [
        {
          "indexed": false,
          "internalType": "uint256",
          "name": "oldProposalThreshold",
          "type": "uint256"
        },
        {
          "indexed": false,
          "internalType": "uint256",
          "name": "newProposalThreshold",
          "type": "uint256"
        }
      ],
      "name": "ProposalThresholdSet",
      "type": "event"
    },
    {
      "anonymous": false,
      "inputs": [
        {
          "indexed": false,
          "internalType": "address",
          "name": "oldTimelock",
          "type": "address"
        },
        {
          "indexed": false,
          "internalType": "address",
          "name": "newTimelock",
          "type": "address"
        }
      ],
      "name": "TimelockChange",
      "type": "event"
    },
    {
      "anonymous": false,
      "inputs": [
        {
          "indexed": true,
          "internalType": "address",
          "name": "voter",
          "type": "address"
        },
        {
          "indexed": false,
          "internalType": "uint256",
          "name": "proposalId",
          "type": "uint256"
        },
        {
          "indexed": false,
          "internalType": "uint8",
          "name": "support",
          "type": "uint8"
        },
        {
          "indexed": false,
          "internalType": "uint256",
          "name": "weight",
          "type": "uint256"
        },
        {
          "indexed": false,
          "internalType": "string",
          "name": "reason",
          "type": "string"
        }
      ],
      "name": "VoteCast",
      "type": "event"
    },
    {
      "anonymous": false,
      "inputs": [
        {
          "indexed": true,
          "internalType": "address",
          "name": "voter",
          "type": "address"
        },
        {
          "indexed": false,
          "internalType": "uint256",
          "name": "proposalId",
          "type": "uint256"
        },
        {
          "indexed": false,
          "internalType": "uint8",
          "name": "support",
          "type": "uint8"
        },
        {
          "indexed": false,
          "internalType": "uint256",
          "name": "weight",
          "type": "uint256"
        },
        {
          "indexed": false,
          "internalType": "string",
          "name": "reason",
          "type": "string"
        },
        {
          "indexed": false,
          "internalType": "bytes",
          "name": "params",
          "type": "bytes"
        }
      ],
      "name": "VoteCastWithParams",
      "type": "event"
    },
    {
      "anonymous": false,
      "inputs": [
        {
          "indexed": false,
          "internalType": "uint256",
          "name": "oldVotingDelay",
          "type": "uint256"
        },
        {
          "indexed": false,
          "internalType": "uint256",
          "name": "newVotingDelay",
          "type": "uint256"
        }
      ],
      "name": "VotingDelaySet",
      "type": "event"
    },
    {
      "anonymous": false,
      "inputs": [
        {
          "indexed": false,
          "internalType": "uint256",
          "name": "oldVotingPeriod",
          "type": "uint256"
        },
        {
          "indexed": false,
          "internalType": "uint256",
          "name": "newVotingPeriod",
          "type": "uint256"
        }
      ],
      "name": "VotingPeriodSet",
      "type": "event"
    },
    {
      "inputs": [],
      "name": "BALLOT_TYPEHASH",
      "outputs": [
        {
          "internalType": "bytes32",
          "name": "",
          "type": "bytes32"
        }
      ],
      "stateMutability": "view",
      "type": "function"
    },
    {
      "inputs": [],
      "name": "CLOCK_MODE",
      "outputs": [
        {
          "internalType": "string",
          "name": "",
          "type": "string"
        }
      ],
      "stateMutability": "view",
      "type": "function"
    },
    {
      "inputs": [],
      "name": "COUNTING_MODE",
      "outputs": [
        {
          "internalType": "string",
          "name": "",
          "type": "string"
        }
      ],
      "stateMutability": "pure",
      "type": "function"
    },
    {
      "inputs": [],
      "name": "EXTENDED_BALLOT_TYPEHASH",
      "outputs": [
        {
          "internalType": "bytes32",
          "name": "",
          "type": "bytes32"
        }
      ],
      "stateMutability": "view",
      "type": "function"
    },
    {
      "inputs": [
        {
          "internalType": "address[]",
          "name": "targets",
          "type": "address[]"
        },
        {
          "internalType": "uint256[]",
          "name": "values",
          "type": "uint256[]"
        },
        {
          "internalType": "bytes[]",
          "name": "calldatas",
          "type": "bytes[]"
        },
        {
          "internalType": "bytes32",
          "name": "descriptionHash",
          "type": "bytes32"
        }
      ],
      "name": "cancel",
      "outputs": [
        {
          "internalType": "uint256",
          "name": "",
          "type": "uint256"
        }
      ],
      "stateMutability": "nonpayable",
      "type": "function"
    },
    {
      "inputs": [
        {
          "internalType": "uint256",
          "name": "proposalId",
          "type": "uint256"
        },
        {
          "internalType": "uint8",
          "name": "support",
          "type": "uint8"
        }
      ],
      "name": "castVote",
      "outputs": [
        {
          "internalType": "uint256",
          "name": "",
          "type": "uint256"
        }
      ],
      "stateMutability": "nonpayable",
      "type": "function"
    },
    {
      "inputs": [
        {
          "internalType": "uint256",
          "name": "proposalId",
          "type": "uint256"
        },
        {
          "internalType": "uint8",
          "name": "support",
          "type": "uint8"
        },
        {
          "internalType": "uint8",
          "name": "v",
          "type": "uint8"
        },
        {
          "internalType": "bytes32",
          "name": "r",
          "type": "bytes32"
        },
        {
          "internalType": "bytes32",
          "name": "s",
          "type": "bytes32"
        }
      ],
      "name": "castVoteBySig",
      "outputs": [
        {
          "internalType": "uint256",
          "name": "",
          "type": "uint256"
        }
      ],
      "stateMutability": "nonpayable",
      "type": "function"
    },
    {
      "inputs": [
        {
          "internalType": "uint256",
          "name": "proposalId",
          "type": "uint256"
        },
        {
          "internalType": "uint8",
          "name": "support",
          "type": "uint8"
        },
        {
          "internalType": "string",
          "name": "reason",
          "type": "string"
        }
      ],
      "name": "castVoteWithReason",
      "outputs": [
        {
          "internalType": "uint256",
          "name": "",
          "type": "uint256"
        }
      ],
      "stateMutability": "nonpayable",
      "type": "function"
    },
    {
      "inputs": [
        {
          "internalType": "uint256",
          "name": "proposalId",
          "type": "uint256"
        },
        {
          "internalType": "uint8",
          "name": "support",
          "type": "uint8"
        },
        {
          "internalType": "string",
          "name": "reason",
          "type": "string"
        },
        {
          "internalType": "bytes",
          "name": "params",
          "type": "bytes"
        }
      ],
      "name": "castVoteWithReasonAndParams",
      "outputs": [
        {
          "internalType": "uint256",
          "name": "",
          "type": "uint256"
        }
      ],
      "stateMutability": "nonpayable",
      "type": "function"
    },
    {
      "inputs": [
        {
          "internalType": "uint256",
          "name": "proposalId",
          "type": "uint256"
        },
        {
          "internalType": "uint8",
          "name": "support",
          "type": "uint8"
        },
        {
          "internalType": "string",
          "name": "reason",
          "type": "string"
        },
        {
          "internalType": "bytes",
          "name": "params",
          "type": "bytes"
        },
        {
          "internalType": "uint8",
          "name": "v",
          "type": "uint8"
        },
        {
          "internalType": "bytes32",
          "name": "r",
          "type": "bytes32"
        },
        {
          "internalType": "bytes32",
          "name": "s",
          "type": "bytes32"
        }
      ],
      "name": "castVoteWithReasonAndParamsBySig",
      "outputs": [
        {
          "internalType": "uint256",
          "name": "",
          "type": "uint256"
        }
      ],
      "stateMutability": "nonpayable",
      "type": "function"
    },
    {
      "inputs": [],
      "name": "clock",
      "outputs": [
        {
          "internalType": "uint48",
          "name": "",
          "type": "uint48"
        }
      ],
      "stateMutability": "view",
      "type": "function"
    },
    {
      "inputs": [],
      "name": "eip712Domain",
      "outputs": [
        {
          "internalType": "bytes1",
          "name": "fields",
          "type": "bytes1"
        },
        {
          "internalType": "string",
          "name": "name",
          "type": "string"
        },
        {
          "internalType": "string",
          "name": "version",
          "type": "string"
        },
        {
          "internalType": "uint256",
          "name": "chainId",
          "type": "uint256"
        },
        {
          "internalType": "address",
          "name": "verifyingContract",
          "type": "address"
        },
        {
          "internalType": "bytes32",
          "name": "salt",
          "type": "bytes32"
        },
        {
          "internalType": "uint256[]",
          "name": "extensions",
          "type": "uint256[]"
        }
      ],
      "stateMutability": "view",
      "type": "function"
    },
    {
      "inputs": [
        {
          "internalType": "address[]",
          "name": "targets",
          "type": "address[]"
        },
        {
          "internalType": "uint256[]",
          "name": "values",
          "type": "uint256[]"
        },
        {
          "internalType": "bytes[]",
          "name": "calldatas",
          "type": "bytes[]"
        },
        {
          "internalType": "bytes32",
          "name": "descriptionHash",
          "type": "bytes32"
        }
      ],
      "name": "execute",
      "outputs": [
        {
          "internalType": "uint256",
          "name": "",
          "type": "uint256"
        }
      ],
      "stateMutability": "payable",
      "type": "function"
    },
    {
      "inputs": [
        {
          "internalType": "address",
          "name": "account",
          "type": "address"
        },
        {
          "internalType": "uint256",
          "name": "timepoint",
          "type": "uint256"
        }
      ],
      "name": "getVotes",
      "outputs": [
        {
          "internalType": "uint256",
          "name": "",
          "type": "uint256"
        }
      ],
      "stateMutability": "view",
      "type": "function"
    },
    {
      "inputs": [
        {
          "internalType": "address",
          "name": "account",
          "type": "address"
        },
        {
          "internalType": "uint256",
          "name": "timepoint",
          "type": "uint256"
        },
        {
          "internalType": "bytes",
          "name": "params",
          "type": "bytes"
        }
      ],
      "name": "getVotesWithParams",
      "outputs": [
        {
          "internalType": "uint256",
          "name": "",
          "type": "uint256"
        }
      ],
      "stateMutability": "view",
      "type": "function"
    },
    {
      "inputs": [
        {
          "internalType": "uint256",
          "name": "proposalId",
          "type": "uint256"
        },
        {
          "internalType": "address",
          "name": "account",
          "type": "address"
        }
      ],
      "name": "hasVoted",
      "outputs": [
        {
          "internalType": "bool",
          "name": "",
          "type": "bool"
        }
      ],
      "stateMutability": "view",
      "type": "function"
    },
    {
      "inputs": [
        {
          "internalType": "address[]",
          "name": "targets",
          "type": "address[]"
        },
        {
          "internalType": "uint256[]",
          "name": "values",
          "type": "uint256[]"
        },
        {
          "internalType": "bytes[]",
          "name": "calldatas",
          "type": "bytes[]"
        },
        {
          "internalType": "bytes32",
          "name": "descriptionHash",
          "type": "bytes32"
        }
      ],
      "name": "hashProposal",
      "outputs": [
        {
          "internalType": "uint256",
          "name": "",
          "type": "uint256"
        }
      ],
      "stateMutability": "pure",
      "type": "function"
    },
    {
      "inputs": [],
      "name": "name",
      "outputs": [
        {
          "internalType": "string",
          "name": "",
          "type": "string"
        }
      ],
      "stateMutability": "view",
      "type": "function"
    },
    {
      "inputs": [
        {
          "internalType": "address",
          "name": "",
          "type": "address"
        },
        {
          "internalType": "address",
          "name": "",
          "type": "address"
        },
        {
          "internalType": "uint256[]",
          "name": "",
          "type": "uint256[]"
        },
        {
          "internalType": "uint256[]",
          "name": "",
          "type": "uint256[]"
        },
        {
          "internalType": "bytes",
          "name": "",
          "type": "bytes"
        }
      ],
      "name": "onERC1155BatchReceived",
      "outputs": [
        {
          "internalType": "bytes4",
          "name": "",
          "type": "bytes4"
        }
      ],
      "stateMutability": "nonpayable",
      "type": "function"
    },
    {
      "inputs": [
        {
          "internalType": "address",
          "name": "",
          "type": "address"
        },
        {
          "internalType": "address",
          "name": "",
          "type": "address"
        },
        {
          "internalType": "uint256",
          "name": "",
          "type": "uint256"
        },
        {
          "internalType": "uint256",
          "name": "",
          "type": "uint256"
        },
        {
          "internalType": "bytes",
          "name": "",
          "type": "bytes"
        }
      ],
      "name": "onERC1155Received",
      "outputs": [
        {
          "internalType": "bytes4",
          "name": "",
          "type": "bytes4"
        }
      ],
      "stateMutability": "nonpayable",
      "type": "function"
    },
    {
      "inputs": [
        {
          "internalType": "address",
          "name": "",
          "type": "address"
        },
        {
          "internalType": "address",
          "name": "",
          "type": "address"
        },
        {
          "internalType": "uint256",
          "name": "",
          "type": "uint256"
        },
        {
          "internalType": "bytes",
          "name": "",
          "type": "bytes"
        }
      ],
      "name": "onERC721Received",
      "outputs": [
        {
          "internalType": "bytes4",
          "name": "",
          "type": "bytes4"
        }
      ],
      "stateMutability": "nonpayable",
      "type": "function"
    },
    {
      "inputs": [
        {
          "internalType": "uint256",
          "name": "proposalId",
          "type": "uint256"
        }
      ],
      "name": "proposalDeadline",
      "outputs": [
        {
          "internalType": "uint256",
          "name": "",
          "type": "uint256"
        }
      ],
      "stateMutability": "view",
      "type": "function"
    },
    {
      "inputs": [
        {
          "internalType": "uint256",
          "name": "proposalId",
          "type": "uint256"
        }
      ],
      "name": "proposalEta",
      "outputs": [
        {
          "internalType": "uint256",
          "name": "",
          "type": "uint256"
        }
      ],
      "stateMutability": "view",
      "type": "function"
    },
    {
      "inputs": [
        {
          "internalType": "uint256",
          "name": "proposalId",
          "type": "uint256"
        }
      ],
      "name": "proposalProposer",
      "outputs": [
        {
          "internalType": "address",
          "name": "",
          "type": "address"
        }
      ],
      "stateMutability": "view",
      "type": "function"
    },
    {
      "inputs": [
        {
          "internalType": "uint256",
          "name": "proposalId",
          "type": "uint256"
        }
      ],
      "name": "proposalSnapshot",
      "outputs": [
        {
          "internalType": "uint256",
          "name": "",
          "type": "uint256"
        }
      ],
      "stateMutability": "view",
      "type": "function"
    },
    {
      "inputs": [],
      "name": "proposalThreshold",
      "outputs": [
        {
          "internalType": "uint256",
          "name": "",
          "type": "uint256"
        }
      ],
      "stateMutability": "view",
      "type": "function"
    },
    {
      "inputs": [
        {
          "internalType": "uint256",
          "name": "proposalId",
          "type": "uint256"
        }
      ],
      "name": "proposalVotes",
      "outputs": [
        {
          "internalType": "uint256",
          "name": "againstVotes",
          "type": "uint256"
        },
        {
          "internalType": "uint256",
          "name": "forVotes",
          "type": "uint256"
        },
        {
          "internalType": "uint256",
          "name": "abstainVotes",
          "type": "uint256"
        }
      ],
      "stateMutability": "view",
      "type": "function"
    },
    {
      "inputs": [
        {
          "internalType": "address[]",
          "name": "targets",
          "type": "address[]"
        },
        {
          "internalType": "uint256[]",
          "name": "values",
          "type": "uint256[]"
        },
        {
          "internalType": "bytes[]",
          "name": "calldatas",
          "type": "bytes[]"
        },
        {
          "internalType": "string",
          "name": "description",
          "type": "string"
        }
      ],
      "name": "propose",
      "outputs": [
        {
          "internalType": "uint256",
          "name": "",
          "type": "uint256"
        }
      ],
      "stateMutability": "nonpayable",
      "type": "function"
    },
    {
      "inputs": [
        {
          "internalType": "address[]",
          "name": "targets",
          "type": "address[]"
        },
        {
          "internalType": "uint256[]",
          "name": "values",
          "type": "uint256[]"
        },
        {
          "internalType": "bytes[]",
          "name": "calldatas",
          "type": "bytes[]"
        },
        {
          "internalType": "bytes32",
          "name": "descriptionHash",
          "type": "bytes32"
        }
      ],
      "name": "queue",
      "outputs": [
        {
          "internalType": "uint256",
          "name": "",
          "type": "uint256"
        }
      ],
      "stateMutability": "nonpayable",
      "type": "function"
    },
    {
      "inputs": [
        {
          "internalType": "uint256",
          "name": "blockNumber",
          "type": "uint256"
        }
      ],
      "name": "quorum",
      "outputs": [
        {
          "internalType": "uint256",
          "name": "",
          "type": "uint256"
        }
      ],
      "stateMutability": "view",
      "type": "function"
    },
    {
      "inputs": [
        {
          "internalType": "address",
          "name": "target",
          "type": "address"
        },
        {
          "internalType": "uint256",
          "name": "value",
          "type": "uint256"
        },
        {
          "internalType": "bytes",
          "name": "data",
          "type": "bytes"
        }
      ],
      "name": "relay",
      "outputs": [],
      "stateMutability": "payable",
      "type": "function"
    },
    {
      "inputs": [
        {
          "internalType": "uint256",
          "name": "newProposalThreshold",
          "type": "uint256"
        }
      ],
      "name": "setProposalThreshold",
      "outputs": [],
      "stateMutability": "nonpayable",
      "type": "function"
    },
    {
      "inputs": [
        {
          "internalType": "uint256",
          "name": "newVotingDelay",
          "type": "uint256"
        }
      ],
      "name": "setVotingDelay",
      "outputs": [],
      "stateMutability": "nonpayable",
      "type": "function"
    },
    {
      "inputs": [
        {
          "internalType": "uint256",
          "name": "newVotingPeriod",
          "type": "uint256"
        }
      ],
      "name": "setVotingPeriod",
      "outputs": [],
      "stateMutability": "nonpayable",
      "type": "function"
    },
    {
      "inputs": [
        {
          "internalType": "uint256",
          "name": "proposalId",
          "type": "uint256"
        }
      ],
      "name": "state",
      "outputs": [
        {
          "internalType": "enum IGovernor.ProposalState",
          "name": "",
          "type": "uint8"
        }
      ],
      "stateMutability": "view",
      "type": "function"
    },
    {
      "inputs": [
        {
          "internalType": "bytes4",
          "name": "interfaceId",
          "type": "bytes4"
        }
      ],
      "name": "supportsInterface",
      "outputs": [
        {
          "internalType": "bool",
          "name": "",
          "type": "bool"
        }
      ],
      "stateMutability": "view",
      "type": "function"
    },
    {
      "inputs": [],
      "name": "timelock",
      "outputs": [
        {
          "internalType": "address",
          "name": "",
          "type": "address"
        }
      ],
      "stateMutability": "view",
      "type": "function"
    },
    {
      "inputs": [],
      "name": "token",
      "outputs": [
        {
          "internalType": "contract IERC5805",
          "name": "",
          "type": "address"
        }
      ],
      "stateMutability": "view",
      "type": "function"
    },
    {
      "inputs": [
        {
          "internalType": "contract TimelockController",
          "name": "newTimelock",
          "type": "address"
        }
      ],
      "name": "updateTimelock",
      "outputs": [],
      "stateMutability": "nonpayable",
      "type": "function"
    },
    {
      "inputs": [],
      "name": "version",
      "outputs": [
        {
          "internalType": "string",
          "name": "",
          "type": "string"
        }
      ],
      "stateMutability": "view",
      "type": "function"
    },
    {
      "inputs": [],
      "name": "votingDelay",
      "outputs": [
        {
          "internalType": "uint256",
          "name": "",
          "type": "uint256"
        }
      ],
      "stateMutability": "view",
      "type": "function"
    },
    {
      "inputs": [],
      "name": "votingPeriod",
      "outputs": [
        {
          "internalType": "uint256",
          "name": "",
          "type": "uint256"
        }
      ],
      "stateMutability": "view",
      "type": "function"
    },
    {
      "stateMutability": "payable",
      "type": "receive"
    }
  ],
  "bytecode": "0x6101806040523480156200001257600080fd5b50604051620046a5380380620046a58339810160408190526200003591620003f3565b8385848460006040518060400160405280600a8152602001694e6562756c612044414f60b01b815250806200006f6200019760201b60201c565b6200008a600083620001b260201b6200174b1790919060201c565b61012052620000a7816001620001b2602090811b6200174b17901c565b61014052815160208084019190912060e052815190820120610100524660a0526200013560e05161010051604080517f8b73c3c69bb8fe3d512ecc4cf759cc79239f7b179b0ffacaa9a75d522b39400f60208201529081019290925260608201524660808201523060a082015260009060c00160405160208183030381529060405280519060200120905090565b60805250503060c05260026200014c8282620004f0565b506200015a90508362000202565b620001658262000243565b6200017081620002ea565b5050506001600160a01b0316610160526200018b816200032b565b50505050505062000631565b6040805180820190915260018152603160f81b602082015290565b6000602083511015620001d257620001ca8362000394565b9050620001fc565b82620001e983620003d760201b6200177c1760201c565b90620001f69082620004f0565b5060ff90505b92915050565b60065460408051918252602082018390527fc565b045403dc03c2eea82b81a0465edad9e2e7fc4d97e11421c209da93d7a93910160405180910390a1600655565b60008111620002a95760405162461bcd60e51b815260206004820152602760248201527f476f7665726e6f7253657474696e67733a20766f74696e6720706572696f6420604482015266746f6f206c6f7760c81b60648201526084015b60405180910390fd5b60075460408051918252602082018390527f7e3f7f0708a84de9203036abaa450dccc85ad5ff52f78c170f3edb55cf5e8828910160405180910390a1600755565b60085460408051918252602082018390527fccb45da8d5717e6c4544694297c4ba5cf151d455c9bb0ed4fc7a38411bc05461910160405180910390a1600855565b600a54604080516001600160a01b03928316815291831660208301527f08f74ea46ef7894f65eabfb5e6e695de773a000b47c529ab559178069b226401910160405180910390a1600a80546001600160a01b0319166001600160a01b0392909216919091179055565b600080829050601f81511115620003c2578260405163305a27a960e01b8152600401620002a09190620005bc565b8051620003cf826200060c565b179392505050565b90565b6001600160a01b0381168114620003f057600080fd5b50565b600080600080600060a086880312156200040c57600080fd5b85516200041981620003da565b60208701519095506200042c81620003da565b6040870151606088015160809098015196999198509695945092505050565b634e487b7160e01b600052604160045260246000fd5b600181811c908216806200047657607f821691505b6020821081036200049757634e487b7160e01b600052602260045260246000fd5b50919050565b601f821115620004eb57600081815260208120601f850160051c81016020861015620004c65750805b601f850160051c820191505b81811015620004e757828155600101620004d2565b5050505b505050565b81516001600160401b038111156200050c576200050c6200044b565b62000524816200051d845462000461565b846200049d565b602080601f8311600181146200055c5760008415620005435750858301515b600019600386901b1c1916600185901b178555620004e7565b600085815260208120601f198616915b828110156200058d578886015182559484019460019091019084016200056c565b5085821015620005ac5787850151600019600388901b60f8161c191681555b5050505050600190811b01905550565b600060208083528351808285015260005b81811015620005eb57858101830151858201604001528201620005cd565b506000604082860101526040601f19601f8301168501019250505092915050565b80516020808301519190811015620004975760001960209190910360031b1b16919050565b60805160a05160c05160e05161010051610120516101405161016051613ff2620006b36000396000818161094c01528181610fc101528181611267015281816116cb015261217801526000611213015260006111e9015260006124fd015260006124d5015260006124300152600061245a015260006124840152613ff26000f3fe6080604052600436106102555760003560e01c80637b3c71d311610139578063c28bc2fa116100b6578063ea0217cf1161007a578063ea0217cf1461088e578063eb9019d4146108ae578063ece40cc1146108ce578063f23a6e61146108ee578063f8ce560a1461091a578063fc0c546a1461093a57600080fd5b8063c28bc2fa146107c3578063c59057e4146107d6578063d33219b4146107f6578063dd4e2ba514610814578063deaaa7cc1461085a57600080fd5b8063a890c910116100fd578063a890c91014610709578063ab58fb8e14610729578063b58131b014610749578063bc197c811461075e578063c01f9e371461078a57600080fd5b80637b3c71d3146106555780637d5e81e21461067557806384b0196e1461069557806391ddadf4146106bd5780639a802a6d146106e957600080fd5b80633932abb1116101d25780634bf5d7e9116101965780634bf5d7e914610561578063544ffc9c1461057657806354fd4d50146105cb57806356781388146105f55780635f398a141461061557806370b0f6601461063557600080fd5b80633932abb1146104955780633bccf4fd146104aa5780633e4f49e6146104ca57806343859632146104f7578063452115d61461054157600080fd5b8063150b7a0211610219578063150b7a02146103b4578063160cbed7146103f85780632656227d146104185780632d63f6931461042b5780632fe3e2611461046157600080fd5b806301ffc9a7146102c557806302a251a3146102fa578063034201811461031d57806306fdde031461033d578063143489d01461035f57600080fd5b366102c0573061026361096e565b6001600160a01b0316146102be5760405162461bcd60e51b815260206004820152601f60248201527f476f7665726e6f723a206d7573742073656e6420746f206578656375746f720060448201526064015b60405180910390fd5b005b600080fd5b3480156102d157600080fd5b506102e56102e0366004612f4c565b610987565b60405190151581526020015b60405180910390f35b34801561030657600080fd5b5061030f610998565b6040519081526020016102f1565b34801561032957600080fd5b5061030f61033836600461309a565b6109a3565b34801561034957600080fd5b50610352610a9b565b6040516102f19190613190565b34801561036b57600080fd5b5061039c61037a3660046131a3565b600090815260036020526040902054600160401b90046001600160a01b031690565b6040516001600160a01b0390911681526020016102f1565b3480156103c057600080fd5b506103df6103cf3660046131d1565b630a85bd0160e11b949350505050565b6040516001600160e01b031990911681526020016102f1565b34801561040457600080fd5b5061030f6104133660046133a8565b610b2d565b61030f6104263660046133a8565b610d2e565b34801561043757600080fd5b5061030f6104463660046131a3565b6000908152600360205260409020546001600160401b031690565b34801561046d57600080fd5b5061030f7fb3b3f3b703cd84ce352197dcff232b1b5d3cfb2025ce47cf04742d0651f1af8881565b3480156104a157600080fd5b5061030f610e20565b3480156104b657600080fd5b5061030f6104c5366004613437565b610e2b565b3480156104d657600080fd5b506104ea6104e53660046131a3565b610ea1565b6040516102f1919061349b565b34801561050357600080fd5b506102e56105123660046134c3565b60008281526009602090815260408083206001600160a01b038516845260030190915290205460ff1692915050565b34801561054d57600080fd5b5061030f61055c3660046133a8565b610eac565b34801561056d57600080fd5b50610352610fbd565b34801561058257600080fd5b506105b06105913660046131a3565b6000908152600960205260409020805460018201546002909201549092565b604080519384526020840192909252908201526060016102f1565b3480156105d757600080fd5b506040805180820190915260018152603160f81b6020820152610352565b34801561060157600080fd5b5061030f6106103660046134f3565b61107f565b34801561062157600080fd5b5061030f61063036600461351f565b6110a8565b34801561064157600080fd5b506102be6106503660046131a3565b6110f2565b34801561066157600080fd5b5061030f6106703660046135a2565b61117c565b34801561068157600080fd5b5061030f6106903660046135fb565b6111c4565b3480156106a157600080fd5b506106aa6111db565b6040516102f197969594939291906136ea565b3480156106c957600080fd5b506106d2611263565b60405165ffffffffffff90911681526020016102f1565b3480156106f557600080fd5b5061030f61070436600461374c565b6112ec565b34801561071557600080fd5b506102be6107243660046137a4565b611303565b34801561073557600080fd5b5061030f6107443660046131a3565b61138a565b34801561075557600080fd5b5061030f611424565b34801561076a57600080fd5b506103df6107793660046137c1565b63bc197c8160e01b95945050505050565b34801561079657600080fd5b5061030f6107a53660046131a3565b6000908152600360205260409020600101546001600160401b031690565b6102be6107d1366004613854565b61142f565b3480156107e257600080fd5b5061030f6107f13660046133a8565b61153e565b34801561080257600080fd5b50600a546001600160a01b031661039c565b34801561082057600080fd5b506040805180820190915260208082527f737570706f72743d627261766f2671756f72756d3d666f722c6162737461696e90820152610352565b34801561086657600080fd5b5061030f7f150214d74d59b7d1e90c73fc22ef3d991dd0a76b046543d4d80ab92d2a50328f81565b34801561089a57600080fd5b506102be6108a93660046131a3565b611578565b3480156108ba57600080fd5b5061030f6108c9366004613897565b6115ff565b3480156108da57600080fd5b506102be6108e93660046131a3565b611620565b3480156108fa57600080fd5b506103df6109093660046138c3565b63f23a6e6160e01b95945050505050565b34801561092657600080fd5b5061030f6109353660046131a3565b6116a7565b34801561094657600080fd5b5061039c7f000000000000000000000000000000000000000000000000000000000000000081565b6000610982600a546001600160a01b031690565b905090565b60006109928261177f565b92915050565b600061098260075490565b600080610a47610a3f7fb3b3f3b703cd84ce352197dcff232b1b5d3cfb2025ce47cf04742d0651f1af888c8c8c8c6040516109df92919061392b565b60405180910390208b80519060200120604051602001610a24959493929190948552602085019390935260ff9190911660408401526060830152608082015260a00190565b604051602081830303815290604052805190602001206117a4565b8686866117d1565b9050610a8d8a828b8b8b8080601f0160208091040260200160405190810160405280939291908181526020018383808284376000920191909152508d92506117ef915050565b9a9950505050505050505050565b606060028054610aaa9061393b565b80601f0160208091040260200160405190810160405280929190818152602001828054610ad69061393b565b8015610b235780601f10610af857610100808354040283529160200191610b23565b820191906000526020600020905b815481529060010190602001808311610b0657829003601f168201915b5050505050905090565b600080610b3c8686868661153e565b90506004610b4982610ea1565b6007811115610b5a57610b5a613485565b14610b775760405162461bcd60e51b81526004016102b590613975565b600a546040805163793d064960e11b815290516000926001600160a01b03169163f27a0c929160048083019260209291908290030181865afa158015610bc1573d6000803e3d6000fd5b505050506040513d601f19601f82011682018060405250810190610be591906139b6565b600a5460405163b1c5f42760e01b81529192506001600160a01b03169063b1c5f42790610c1f908a908a908a906000908b90600401613a5d565b602060405180830381865afa158015610c3c573d6000803e3d6000fd5b505050506040513d601f19601f82011682018060405250810190610c6091906139b6565b6000838152600b602052604080822092909255600a5491516308f2a0bb60e41b81526001600160a01b0390921691638f2a0bb091610cab918b918b918b91908b908990600401613aab565b600060405180830381600087803b158015610cc557600080fd5b505af1158015610cd9573d6000803e3d6000fd5b505050507f9a2e42fd6722813d69113e7d0079d3d940171428df7373df9c7f7617cfda2892828242610d0b9190613b19565b604080519283526020830191909152015b60405180910390a15095945050505050565b600080610d3d8686868661153e565b90506000610d4a82610ea1565b90506004816007811115610d6057610d60613485565b1480610d7d57506005816007811115610d7b57610d7b613485565b145b610d995760405162461bcd60e51b81526004016102b590613975565b60008281526003602052604090819020600201805460ff19166001179055517f712ae1383f79ac853f8d882153778e0260ef8f03b504e2866e0593e04d2b291f90610de79084815260200190565b60405180910390a1610dfc8288888888611944565b610e0982888888886119e6565b610e1682888888886119f3565b5095945050505050565b600061098260065490565b604080517f150214d74d59b7d1e90c73fc22ef3d991dd0a76b046543d4d80ab92d2a50328f602082015290810186905260ff851660608201526000908190610e7990610a3f90608001610a24565b9050610e9687828860405180602001604052806000815250611a2c565b979650505050505050565b600061099282611a4f565b600080610ebb8686868661153e565b90506000610ec882610ea1565b6007811115610ed957610ed9613485565b14610f265760405162461bcd60e51b815260206004820152601c60248201527f476f7665726e6f723a20746f6f206c61746520746f2063616e63656c0000000060448201526064016102b5565b600081815260036020526040902054600160401b90046001600160a01b0316336001600160a01b031614610fa75760405162461bcd60e51b815260206004820152602260248201527f476f7665726e6f723a206f6e6c792070726f706f7365722063616e2063616e63604482015261195b60f21b60648201526084016102b5565b610fb386868686611b99565b9695505050505050565b60607f00000000000000000000000000000000000000000000000000000000000000006001600160a01b0316634bf5d7e96040518163ffffffff1660e01b8152600401600060405180830381865afa92505050801561103e57506040513d6000823e601f3d908101601f1916820160405261103b9190810190613b2c565b60015b61107a575060408051808201909152601d81527f6d6f64653d626c6f636b6e756d6265722666726f6d3d64656661756c74000000602082015290565b919050565b6000803390506110a084828560405180602001604052806000815250611a2c565b949350505050565b600080339050610e9687828888888080601f0160208091040260200160405190810160405280939291908181526020018383808284376000920191909152508a92506117ef915050565b6110fa61096e565b6001600160a01b0316336001600160a01b03161461112a5760405162461bcd60e51b81526004016102b590613b99565b3061113361096e565b6001600160a01b031614611170576000803660405161115392919061392b565b604051809103902090505b806111696004611ba7565b0361115e57505b61117981611c26565b50565b600080339050610fb386828787878080601f016020809104026020016040519081016040528093929190818152602001838380828437600092019190915250611a2c92505050565b60006111d285858585611c67565b95945050505050565b60006060808280808361120e7f000000000000000000000000000000000000000000000000000000000000000083612040565b6112397f00000000000000000000000000000000000000000000000000000000000000006001612040565b60408051600080825260208201909252600f60f81b9b939a50919850469750309650945092509050565b60007f00000000000000000000000000000000000000000000000000000000000000006001600160a01b03166391ddadf46040518163ffffffff1660e01b8152600401602060405180830381865afa9250505080156112df575060408051601f3d908101601f191682019092526112dc91810190613bd0565b60015b61107a57610982436120e4565b60006112f984848461214f565b90505b9392505050565b61130b61096e565b6001600160a01b0316336001600160a01b03161461133b5760405162461bcd60e51b81526004016102b590613b99565b3061134461096e565b6001600160a01b031614611381576000803660405161136492919061392b565b604051809103902090505b8061137a6004611ba7565b0361136f57505b611179816121e5565b600a546000828152600b602052604080822054905163d45c443560e01b81526004810191909152909182916001600160a01b039091169063d45c443590602401602060405180830381865afa1580156113e7573d6000803e3d6000fd5b505050506040513d601f19601f8201168201806040525081019061140b91906139b6565b90508060011461141b57806112fc565b60009392505050565b600061098260085490565b61143761096e565b6001600160a01b0316336001600160a01b0316146114675760405162461bcd60e51b81526004016102b590613b99565b3061147061096e565b6001600160a01b0316146114ad576000803660405161149092919061392b565b604051809103902090505b806114a66004611ba7565b0361149b57505b600080856001600160a01b03168585856040516114cb92919061392b565b60006040518083038185875af1925050503d8060008114611508576040519150601f19603f3d011682016040523d82523d6000602084013e61150d565b606091505b50915091506115358282604051806060016040528060288152602001613f956028913961224e565b50505050505050565b6000848484846040516020016115579493929190613bf8565b60408051601f19818403018152919052805160209091012095945050505050565b61158061096e565b6001600160a01b0316336001600160a01b0316146115b05760405162461bcd60e51b81526004016102b590613b99565b306115b961096e565b6001600160a01b0316146115f657600080366040516115d992919061392b565b604051809103902090505b806115ef6004611ba7565b036115e457505b61117981612267565b60006112fc838361161b60408051602081019091526000815290565b61214f565b61162861096e565b6001600160a01b0316336001600160a01b0316146116585760405162461bcd60e51b81526004016102b590613b99565b3061166161096e565b6001600160a01b03161461169e576000803660405161168192919061392b565b604051809103902090505b806116976004611ba7565b0361168c57505b61117981612308565b604051632394e7a360e21b8152600481018290526000906064906001600160a01b037f00000000000000000000000000000000000000000000000000000000000000001690638e539e8c90602401602060405180830381865afa158015611712573d6000803e3d6000fd5b505050506040513d601f19601f8201168201806040525081019061173691906139b6565b611741906004613c43565b6109929190613c5a565b60006020835110156117675761176083612349565b9050610992565b816117728482613cc7565b5060ff9050610992565b90565b60006001600160e01b03198216636e665ced60e01b1480610992575061099282612387565b60006109926117b1612423565b8360405161190160f01b8152600281019290925260228201526042902090565b60008060006117e28787878761254e565b91509150610e1681612612565b6000858152600360205260408120600161180888610ea1565b600781111561181957611819613485565b146118725760405162461bcd60e51b815260206004820152602360248201527f476f7665726e6f723a20766f7465206e6f742063757272656e746c792061637460448201526269766560e81b60648201526084016102b5565b805460009061188c9088906001600160401b03168661214f565b905061189b888888848861275c565b83516000036118f057866001600160a01b03167fb8e138887d0aa13bab447e82de9d5c1777041ecd21ca36ba824ff1e6c07ddda4898884896040516118e39493929190613d86565b60405180910390a2610e96565b866001600160a01b03167fe2babfbac5889a709b63bb7f598b324e08bc5a4fb9ec647fb3cbc9ec07eb87128988848989604051611931959493929190613dae565b60405180910390a2979650505050505050565b3061194d61096e565b6001600160a01b0316146119df5760005b84518110156119dd57306001600160a01b031685828151811061198357611983613df4565b60200260200101516001600160a01b0316036119cd576119cd8382815181106119ae576119ae613df4565b60200260200101518051906020012060046128d690919063ffffffff16565b6119d681613e0a565b905061195e565b505b5050505050565b6119df8585858585612912565b306119fc61096e565b6001600160a01b0316146119df57600454600f81810b600160801b909204900b13156119df5760006004556119df565b60006111d285858585611a4a60408051602081019091526000815290565b6117ef565b600080611a5b83612986565b90506004816007811115611a7157611a71613485565b14611a7c5792915050565b6000838152600b602052604090205480611a97575092915050565b600a54604051632ab0f52960e01b8152600481018390526001600160a01b0390911690632ab0f52990602401602060405180830381865afa158015611ae0573d6000803e3d6000fd5b505050506040513d601f19601f82011682018060405250810190611b049190613e23565b15611b13575060079392505050565b600a54604051632c258a9f60e11b8152600481018390526001600160a01b039091169063584b153e90602401602060405180830381865afa158015611b5c573d6000803e3d6000fd5b505050506040513d601f19601f82011682018060405250810190611b809190613e23565b15611b8f575060059392505050565b5060029392505050565b60006111d285858585612ac6565b6000611bc28254600f81810b600160801b909204900b131590565b15611be057604051631ed9509560e11b815260040160405180910390fd5b508054600f0b6000818152600180840160205260408220805492905583546fffffffffffffffffffffffffffffffff191692016001600160801b03169190911790915590565b60065460408051918252602082018390527fc565b045403dc03c2eea82b81a0465edad9e2e7fc4d97e11421c209da93d7a93910160405180910390a1600655565b600033611c748184612b78565b611cc05760405162461bcd60e51b815260206004820152601d60248201527f476f7665726e6f723a2070726f706f736572207265737472696374656400000060448201526064016102b5565b6000611cca611263565b65ffffffffffff169050611cdc611424565b611ceb836108c9600185613e45565b1015611d535760405162461bcd60e51b815260206004820152603160248201527f476f7665726e6f723a2070726f706f73657220766f7465732062656c6f7720706044820152701c9bdc1bdcd85b081d1a1c995cda1bdb19607a1b60648201526084016102b5565b6000611d68888888888051906020012061153e565b90508651885114611d8b5760405162461bcd60e51b81526004016102b590613e58565b8551885114611dac5760405162461bcd60e51b81526004016102b590613e58565b6000885111611dfd5760405162461bcd60e51b815260206004820152601860248201527f476f7665726e6f723a20656d7074792070726f706f73616c000000000000000060448201526064016102b5565b6000818152600360205260409020546001600160401b031615611e6c5760405162461bcd60e51b815260206004820152602160248201527f476f7665726e6f723a2070726f706f73616c20616c72656164792065786973746044820152607360f81b60648201526084016102b5565b6000611e76610e20565b611e809084613b19565b90506000611e8c610998565b611e969083613b19565b90506040518060e00160405280611eac84612c69565b6001600160401b031681526001600160a01b038716602082015260006040820152606001611ed983612c69565b6001600160401b039081168252600060208084018290526040808501839052606094850183905288835260038252918290208551815492870151878501519186166001600160e01b031990941693909317600160401b6001600160a01b039094168402176001600160e01b0316600160e01b60e09290921c91909102178155938501516080860151908416921c0217600183015560a08301516002909201805460c09094015161ffff1990941692151561ff00191692909217610100931515939093029290921790558a517f7d84a6263ae0d98d3329bd7b46bb4e8d6f98cd35a7adb45c274c8b7fd5ebd5e091859188918e918e91811115611fdd57611fdd612fcf565b60405190808252806020026020018201604052801561201057816020015b6060815260200190600190039081611ffb5790505b508d88888f60405161202a99989796959493929190613e99565b60405180910390a1509098975050505050505050565b606060ff83146120535761176083612cd1565b81805461205f9061393b565b80601f016020809104026020016040519081016040528092919081815260200182805461208b9061393b565b80156120d85780601f106120ad576101008083540402835291602001916120d8565b820191906000526020600020905b8154815290600101906020018083116120bb57829003601f168201915b50505050509050610992565b600065ffffffffffff82111561214b5760405162461bcd60e51b815260206004820152602660248201527f53616665436173743a2076616c756520646f65736e27742066697420696e203460448201526538206269747360d01b60648201526084016102b5565b5090565b604051630748d63560e31b81526001600160a01b038481166004830152602482018490526000917f000000000000000000000000000000000000000000000000000000000000000090911690633a46b1a890604401602060405180830381865afa1580156121c1573d6000803e3d6000fd5b505050506040513d601f19601f820116820180604052508101906112f991906139b6565b600a54604080516001600160a01b03928316815291831660208301527f08f74ea46ef7894f65eabfb5e6e695de773a000b47c529ab559178069b226401910160405180910390a1600a80546001600160a01b0319166001600160a01b0392909216919091179055565b6060831561225d5750816112fc565b6112fc8383612d10565b600081116122c75760405162461bcd60e51b815260206004820152602760248201527f476f7665726e6f7253657474696e67733a20766f74696e6720706572696f6420604482015266746f6f206c6f7760c81b60648201526084016102b5565b60075460408051918252602082018390527f7e3f7f0708a84de9203036abaa450dccc85ad5ff52f78c170f3edb55cf5e8828910160405180910390a1600755565b60085460408051918252602082018390527fccb45da8d5717e6c4544694297c4ba5cf151d455c9bb0ed4fc7a38411bc05461910160405180910390a1600855565b600080829050601f81511115612374578260405163305a27a960e01b81526004016102b59190613190565b805161237f82613f70565b179392505050565b600063288ace0360e11b6318df743f60e31b63bf26d89760e01b6379dd796f60e01b6001600160e01b031986168214806123cd57506001600160e01b0319868116908216145b806123e457506001600160e01b0319868116908516145b806123ff57506001600160e01b03198616630271189760e51b145b80610fb357506301ffc9a760e01b6001600160e01b03198716149695505050505050565b6000306001600160a01b037f00000000000000000000000000000000000000000000000000000000000000001614801561247c57507f000000000000000000000000000000000000000000000000000000000000000046145b156124a657507f000000000000000000000000000000000000000000000000000000000000000090565b610982604080517f8b73c3c69bb8fe3d512ecc4cf759cc79239f7b179b0ffacaa9a75d522b39400f60208201527f0000000000000000000000000000000000000000000000000000000000000000918101919091527f000000000000000000000000000000000000000000000000000000000000000060608201524660808201523060a082015260009060c00160405160208183030381529060405280519060200120905090565b6000807f7fffffffffffffffffffffffffffffff5d576e7357a4501ddfe92f46681b20a08311156125855750600090506003612609565b6040805160008082526020820180845289905260ff881692820192909252606081018690526080810185905260019060a0016020604051602081039080840390855afa1580156125d9573d6000803e3d6000fd5b5050604051601f1901519150506001600160a01b03811661260257600060019250925050612609565b9150600090505b94509492505050565b600081600481111561262657612626613485565b0361262e5750565b600181600481111561264257612642613485565b0361268f5760405162461bcd60e51b815260206004820152601860248201527f45434453413a20696e76616c6964207369676e6174757265000000000000000060448201526064016102b5565b60028160048111156126a3576126a3613485565b036126f05760405162461bcd60e51b815260206004820152601f60248201527f45434453413a20696e76616c6964207369676e6174757265206c656e6774680060448201526064016102b5565b600381600481111561270457612704613485565b036111795760405162461bcd60e51b815260206004820152602260248201527f45434453413a20696e76616c6964207369676e6174757265202773272076616c604482015261756560f01b60648201526084016102b5565b60008581526009602090815260408083206001600160a01b0388168452600381019092529091205460ff16156127e45760405162461bcd60e51b815260206004820152602760248201527f476f7665726e6f72566f74696e6753696d706c653a20766f746520616c726561604482015266191e4818d85cdd60ca1b60648201526084016102b5565b6001600160a01b03851660009081526003820160205260409020805460ff1916600117905560ff841661283057828160000160008282546128259190613b19565b909155506119dd9050565b60001960ff85160161285057828160010160008282546128259190613b19565b60011960ff85160161287057828160020160008282546128259190613b19565b60405162461bcd60e51b815260206004820152603560248201527f476f7665726e6f72566f74696e6753696d706c653a20696e76616c69642076616044820152746c756520666f7220656e756d20566f74655479706560581b60648201526084016102b5565b8154600160801b90819004600f0b6000818152600180860160205260409091209390935583546001600160801b03908116939091011602179055565b600a5460405163e38335e560e01b81526001600160a01b039091169063e38335e590349061294d908890889088906000908990600401613a5d565b6000604051808303818588803b15801561296657600080fd5b505af115801561297a573d6000803e3d6000fd5b50505050505050505050565b6000818152600360205260408120600281015460ff16156129aa5750600792915050565b6002810154610100900460ff16156129c55750600292915050565b6000838152600360205260408120546001600160401b031690819003612a2d5760405162461bcd60e51b815260206004820152601d60248201527f476f7665726e6f723a20756e6b6e6f776e2070726f706f73616c20696400000060448201526064016102b5565b6000612a37611263565b65ffffffffffff169050808210612a5357506000949350505050565b6000858152600360205260409020600101546001600160401b0316818110612a815750600195945050505050565b612a8a86612d3a565b8015612aa9575060008681526009602052604090208054600190910154115b15612aba5750600495945050505050565b50600395945050505050565b600080612ad586868686612d86565b6000818152600b6020526040902054909150156111d257600a546000828152600b60205260409081902054905163c4d252f560e01b81526001600160a01b039092169163c4d252f591612b2e9160040190815260200190565b600060405180830381600087803b158015612b4857600080fd5b505af1158015612b5c573d6000803e3d6000fd5b5050506000828152600b60205260408120555095945050505050565b80516000906034811015612b90576001915050610992565b82810160131901516001600160a01b031981166b046e0e4dee0dee6cae47a60f60a31b14612bc357600192505050610992565b600080612bd1602885613e45565b90505b83811015612c4857600080612c08888481518110612bf457612bf4613df4565b01602001516001600160f81b031916612e92565b9150915081612c205760019650505050505050610992565b8060ff166004856001600160a01b0316901b179350505080612c4190613e0a565b9050612bd4565b50856001600160a01b0316816001600160a01b031614935050505092915050565b60006001600160401b0382111561214b5760405162461bcd60e51b815260206004820152602660248201527f53616665436173743a2076616c756520646f65736e27742066697420696e203660448201526534206269747360d01b60648201526084016102b5565b60606000612cde83612f24565b604080516020808252818301909252919250600091906020820181803683375050509182525060208101929092525090565b815115612d205781518083602001fd5b8060405162461bcd60e51b81526004016102b59190613190565b600081815260096020526040812060028101546001820154612d5c9190613b19565b600084815260036020526040902054612d7d906001600160401b03166116a7565b11159392505050565b600080612d958686868661153e565b90506000612da282610ea1565b90506002816007811115612db857612db8613485565b14158015612dd857506006816007811115612dd557612dd5613485565b14155b8015612df657506007816007811115612df357612df3613485565b14155b612e425760405162461bcd60e51b815260206004820152601d60248201527f476f7665726e6f723a2070726f706f73616c206e6f742061637469766500000060448201526064016102b5565b60008281526003602052604090819020600201805461ff001916610100179055517f789cf55be980739dad1d0699b93b58e806b51c9d96619bfa8fe0a28abaa7b30c90610d1c9084815260200190565b60008060f883901c602f81118015612ead5750603a8160ff16105b15612ec257600194602f199091019350915050565b8060ff166040108015612ed8575060478160ff16105b15612eed576001946036199091019350915050565b8060ff166060108015612f03575060678160ff16105b15612f18576001946056199091019350915050565b50600093849350915050565b600060ff8216601f81111561099257604051632cd44ac360e21b815260040160405180910390fd5b600060208284031215612f5e57600080fd5b81356001600160e01b0319811681146112fc57600080fd5b803560ff8116811461107a57600080fd5b60008083601f840112612f9957600080fd5b5081356001600160401b03811115612fb057600080fd5b602083019150836020828501011115612fc857600080fd5b9250929050565b634e487b7160e01b600052604160045260246000fd5b604051601f8201601f191681016001600160401b038111828210171561300d5761300d612fcf565b604052919050565b60006001600160401b0382111561302e5761302e612fcf565b50601f01601f191660200190565b600061304f61304a84613015565b612fe5565b905082815283838301111561306357600080fd5b828260208301376000602084830101529392505050565b600082601f83011261308b57600080fd5b6112fc8383356020850161303c565b60008060008060008060008060e0898b0312156130b657600080fd5b883597506130c660208a01612f76565b965060408901356001600160401b03808211156130e257600080fd5b6130ee8c838d01612f87565b909850965060608b013591508082111561310757600080fd5b506131148b828c0161307a565b94505061312360808a01612f76565b925060a0890135915060c089013590509295985092959890939650565b60005b8381101561315b578181015183820152602001613143565b50506000910152565b6000815180845261317c816020860160208601613140565b601f01601f19169290920160200192915050565b6020815260006112fc6020830184613164565b6000602082840312156131b557600080fd5b5035919050565b6001600160a01b038116811461117957600080fd5b600080600080608085870312156131e757600080fd5b84356131f2816131bc565b93506020850135613202816131bc565b92506040850135915060608501356001600160401b0381111561322457600080fd5b6132308782880161307a565b91505092959194509250565b60006001600160401b0382111561325557613255612fcf565b5060051b60200190565b600082601f83011261327057600080fd5b8135602061328061304a8361323c565b82815260059290921b8401810191818101908684111561329f57600080fd5b8286015b848110156132c35780356132b6816131bc565b83529183019183016132a3565b509695505050505050565b600082601f8301126132df57600080fd5b813560206132ef61304a8361323c565b82815260059290921b8401810191818101908684111561330e57600080fd5b8286015b848110156132c35780358352918301918301613312565b600082601f83011261333a57600080fd5b8135602061334a61304a8361323c565b82815260059290921b8401810191818101908684111561336957600080fd5b8286015b848110156132c35780356001600160401b0381111561338c5760008081fd5b61339a8986838b010161307a565b84525091830191830161336d565b600080600080608085870312156133be57600080fd5b84356001600160401b03808211156133d557600080fd5b6133e18883890161325f565b955060208701359150808211156133f757600080fd5b613403888389016132ce565b9450604087013591508082111561341957600080fd5b5061342687828801613329565b949793965093946060013593505050565b600080600080600060a0868803121561344f57600080fd5b8535945061345f60208701612f76565b935061346d60408701612f76565b94979396509394606081013594506080013592915050565b634e487b7160e01b600052602160045260246000fd5b60208101600883106134bd57634e487b7160e01b600052602160045260246000fd5b91905290565b600080604083850312156134d657600080fd5b8235915060208301356134e8816131bc565b809150509250929050565b6000806040838503121561350657600080fd5b8235915061351660208401612f76565b90509250929050565b60008060008060006080868803121561353757600080fd5b8535945061354760208701612f76565b935060408601356001600160401b038082111561356357600080fd5b61356f89838a01612f87565b9095509350606088013591508082111561358857600080fd5b506135958882890161307a565b9150509295509295909350565b600080600080606085870312156135b857600080fd5b843593506135c860208601612f76565b925060408501356001600160401b038111156135e357600080fd5b6135ef87828801612f87565b95989497509550505050565b6000806000806080858703121561361157600080fd5b84356001600160401b038082111561362857600080fd5b6136348883890161325f565b9550602087013591508082111561364a57600080fd5b613656888389016132ce565b9450604087013591508082111561366c57600080fd5b61367888838901613329565b9350606087013591508082111561368e57600080fd5b508501601f810187136136a057600080fd5b6132308782356020840161303c565b600081518084526020808501945080840160005b838110156136df578151875295820195908201906001016136c3565b509495945050505050565b60ff60f81b8816815260e06020820152600061370960e0830189613164565b828103604084015261371b8189613164565b606084018890526001600160a01b038716608085015260a0840186905283810360c08501529050610a8d81856136af565b60008060006060848603121561376157600080fd5b833561376c816131bc565b92506020840135915060408401356001600160401b0381111561378e57600080fd5b61379a8682870161307a565b9150509250925092565b6000602082840312156137b657600080fd5b81356112fc816131bc565b600080600080600060a086880312156137d957600080fd5b85356137e4816131bc565b945060208601356137f4816131bc565b935060408601356001600160401b038082111561381057600080fd5b61381c89838a016132ce565b9450606088013591508082111561383257600080fd5b61383e89838a016132ce565b9350608088013591508082111561358857600080fd5b6000806000806060858703121561386a57600080fd5b8435613875816131bc565b93506020850135925060408501356001600160401b038111156135e357600080fd5b600080604083850312156138aa57600080fd5b82356138b5816131bc565b946020939093013593505050565b600080600080600060a086880312156138db57600080fd5b85356138e6816131bc565b945060208601356138f6816131bc565b9350604086013592506060860135915060808601356001600160401b0381111561391f57600080fd5b6135958882890161307a565b8183823760009101908152919050565b600181811c9082168061394f57607f821691505b60208210810361396f57634e487b7160e01b600052602260045260246000fd5b50919050565b60208082526021908201527f476f7665726e6f723a2070726f706f73616c206e6f74207375636365737366756040820152601b60fa1b606082015260800190565b6000602082840312156139c857600080fd5b5051919050565b600081518084526020808501945080840160005b838110156136df5781516001600160a01b0316875295820195908201906001016139e3565b600081518084526020808501808196508360051b8101915082860160005b85811015613a50578284038952613a3e848351613164565b98850198935090840190600101613a26565b5091979650505050505050565b60a081526000613a7060a08301886139cf565b8281036020840152613a8281886136af565b90508281036040840152613a968187613a08565b60608401959095525050608001529392505050565b60c081526000613abe60c08301896139cf565b8281036020840152613ad081896136af565b90508281036040840152613ae48188613a08565b60608401969096525050608081019290925260a0909101529392505050565b634e487b7160e01b600052601160045260246000fd5b8082018082111561099257610992613b03565b600060208284031215613b3e57600080fd5b81516001600160401b03811115613b5457600080fd5b8201601f81018413613b6557600080fd5b8051613b7361304a82613015565b818152856020838501011115613b8857600080fd5b6111d2826020830160208601613140565b60208082526018908201527f476f7665726e6f723a206f6e6c79476f7665726e616e63650000000000000000604082015260600190565b600060208284031215613be257600080fd5b815165ffffffffffff811681146112fc57600080fd5b608081526000613c0b60808301876139cf565b8281036020840152613c1d81876136af565b90508281036040840152613c318186613a08565b91505082606083015295945050505050565b808202811582820484141761099257610992613b03565b600082613c7757634e487b7160e01b600052601260045260246000fd5b500490565b601f821115613cc257600081815260208120601f850160051c81016020861015613ca35750805b601f850160051c820191505b818110156119dd57828155600101613caf565b505050565b81516001600160401b03811115613ce057613ce0612fcf565b613cf481613cee845461393b565b84613c7c565b602080601f831160018114613d295760008415613d115750858301515b600019600386901b1c1916600185901b1785556119dd565b600085815260208120601f198616915b82811015613d5857888601518255948401946001909101908401613d39565b5085821015613d765787850151600019600388901b60f8161c191681555b5050505050600190811b01905550565b84815260ff84166020820152826040820152608060608201526000610fb36080830184613164565b85815260ff8516602082015283604082015260a060608201526000613dd660a0830185613164565b8281036080840152613de88185613164565b98975050505050505050565b634e487b7160e01b600052603260045260246000fd5b600060018201613e1c57613e1c613b03565b5060010190565b600060208284031215613e3557600080fd5b815180151581146112fc57600080fd5b8181038181111561099257610992613b03565b60208082526021908201527f476f7665726e6f723a20696e76616c69642070726f706f73616c206c656e67746040820152600d60fb1b606082015260800190565b60006101208b8352602060018060a01b038c1681850152816040850152613ec28285018c6139cf565b91508382036060850152613ed6828b6136af565b915083820360808501528189518084528284019150828160051b850101838c0160005b83811015613f2757601f19878403018552613f15838351613164565b94860194925090850190600101613ef9565b505086810360a0880152613f3b818c613a08565b9450505050508560c08401528460e0840152828103610100840152613f608185613164565b9c9b505050505050505050505050565b8051602080830151919081101561396f5760001960209190910360031b1b1691905056fe476f7665726e6f723a2072656c617920726576657274656420776974686f7574206d657373616765a2646970667358221220b66ed79e76f525acce2f4ac5ab265097bad3032e32f410ed640d98700ae8230d64736f6c63430008110033",
  "linkReferences": {},
  "deployedLinkReferences": {}
}