{
  "_format": "hh-sol-artifact-1",
  "contractName": "ResearchProject",
  "sourceName": "contracts/ResearchProject.sol",
  "abi": [
    {
      "inputs": [
        {
          "internalType": "address",
          "name": "_fundingEscrow",
          "type": "address"
        },
        {
          "internalType": "address",
          "name": "_oracle",
          "type": "address"
        }
      ],
      "stateMutability": "nonpayable",
      "type": "constructor"
    },
    {
      "anonymous": false,
      "inputs": [
        {
          "indexed": true,
          "internalType": "address",
          "name": "account",
          "type": "address"
        },
        {
          "indexed": true,
          "internalType": "address",
          "name": "operator",
          "type": "address"
        },
        {
          "indexed": false,
          "internalType": "bool",
          "name": "approved",
          "type": "bool"
        }
      ],
      "name": "ApprovalForAll",
      "type": "event"
    },
    {
      "anonymous": false,
      "inputs": [
        {
          "indexed": true,
          "internalType": "uint256",
          "name": "projectId",
          "type": "uint256"
        },
        {
          "indexed": true,
          "internalType": "uint256",
          "name": "milestoneId",
          "type": "uint256"
        },
        {
          "indexed": false,
          "internalType": "uint256",
          "name": "amount",
          "type": "uint256"
        }
      ],
      "name": "FundsReleased",
      "type": "event"
    },
    {
      "anonymous": false,
      "inputs": [
        {
          "indexed": true,
          "internalType": "uint256",
          "name": "projectId",
          "type": "uint256"
        },
        {
          "indexed": true,
          "internalType": "uint256",
          "name": "milestoneId",
          "type": "uint256"
        },
        {
          "indexed": false,
          "internalType": "string",
          "name": "description",
          "type": "string"
        },
        {
          "indexed": false,
          "internalType": "uint256",
          "name": "targetAmount",
          "type": "uint256"
        },
        {
          "indexed": false,
          "internalType": "string",
          "name": "verificationCriteria",
          "type": "string"
        }
      ],
      "name": "MilestoneAdded",
      "type": "event"
    },
    {
      "anonymous": false,
      "inputs": [
        {
          "indexed": true,
          "internalType": "uint256",
          "name": "projectId",
          "type": "uint256"
        },
        {
          "indexed": true,
          "internalType": "uint256",
          "name": "milestoneId",
          "type": "uint256"
        }
      ],
      "name": "MilestoneCompleted",
      "type": "event"
    },
    {
      "anonymous": false,
      "inputs": [
        {
          "indexed": true,
          "internalType": "uint256",
          "name": "projectId",
          "type": "uint256"
        }
      ],
      "name": "ProjectCancelled",
      "type": "event"
    },
    {
      "anonymous": false,
      "inputs": [
        {
          "indexed": true,
          "internalType": "uint256",
          "name": "projectId",
          "type": "uint256"
        },
        {
          "indexed": true,
          "internalType": "address",
          "name": "researcher",
          "type": "address"
        },
        {
          "indexed": false,
          "internalType": "string",
          "name": "title",
          "type": "string"
        },
        {
          "indexed": false,
          "internalType": "string",
          "name": "category",
          "type": "string"
        },
        {
          "indexed": false,
          "internalType": "string",
          "name": "metadataURI",
          "type": "string"
        }
      ],
      "name": "ProjectCreated",
      "type": "event"
    },
    {
      "anonymous": false,
      "inputs": [
        {
          "indexed": true,
          "internalType": "uint256",
          "name": "projectId",
          "type": "uint256"
        },
        {
          "indexed": true,
          "internalType": "address",
          "name": "backer",
          "type": "address"
        },
        {
          "indexed": false,
          "internalType": "uint256",
          "name": "amount",
          "type": "uint256"
        }
      ],
      "name": "ProjectFunded",
      "type": "event"
    },
    {
      "anonymous": false,
      "inputs": [
        {
          "indexed": true,
          "internalType": "address",
          "name": "operator",
          "type": "address"
        },
        {
          "indexed": true,
          "internalType": "address",
          "name": "from",
          "type": "address"
        },
        {
          "indexed": true,
          "internalType": "address",
          "name": "to",
          "type": "address"
        },
        {
          "indexed": false,
          "internalType": "uint256[]",
          "name": "ids",
          "type": "uint256[]"
        },
        {
          "indexed": false,
          "internalType": "uint256[]",
          "name": "values",
          "type": "uint256[]"
        }
      ],
      "name": "TransferBatch",
      "type": "event"
    },
    {
      "anonymous": false,
      "inputs": [
        {
          "indexed": true,
          "internalType": "address",
          "name": "operator",
          "type": "address"
        },
        {
          "indexed": true,
          "internalType": "address",
          "name": "from",
          "type": "address"
        },
        {
          "indexed": true,
          "internalType": "address",
          "name": "to",
          "type": "address"
        },
        {
          "indexed": false,
          "internalType": "uint256",
          "name": "id",
          "type": "uint256"
        },
        {
          "indexed": false,
          "internalType": "uint256",
          "name": "value",
          "type": "uint256"
        }
      ],
      "name": "TransferSingle",
      "type": "event"
    },
    {
      "anonymous": false,
      "inputs": [
        {
          "indexed": false,
          "internalType": "string",
          "name": "value",
          "type": "string"
        },
        {
          "indexed": true,
          "internalType": "uint256",
          "name": "id",
          "type": "uint256"
        }
      ],
      "name": "URI",
      "type": "event"
    },
    {
      "inputs": [
        {
          "internalType": "address",
          "name": "account",
          "type": "address"
        },
        {
          "internalType": "uint256",
          "name": "id",
          "type": "uint256"
        }
      ],
      "name": "balanceOf",
      "outputs": [
        {
          "internalType": "uint256",
          "name": "",
          "type": "uint256"
        }
      ],
      "stateMutability": "view",
      "type": "function"
    },
    {
      "inputs": [
        {
          "internalType": "address[]",
          "name": "accounts",
          "type": "address[]"
        },
        {
          "internalType": "uint256[]",
          "name": "ids",
          "type": "uint256[]"
        }
      ],
      "name": "balanceOfBatch",
      "outputs": [
        {
          "internalType": "uint256[]",
          "name": "",
          "type": "uint256[]"
        }
      ],
      "stateMutability": "view",
      "type": "function"
    },
    {
      "inputs": [
        {
          "internalType": "uint256",
          "name": "projectId",
          "type": "uint256"
        }
      ],
      "name": "cancelProject",
      "outputs": [],
      "stateMutability": "nonpayable",
      "type": "function"
    },
    {
      "inputs": [
        {
          "internalType": "uint256",
          "name": "",
          "type": "uint256"
        },
        {
          "internalType": "address",
          "name": "",
          "type": "address"
        }
      ],
      "name": "contributions",
      "outputs": [
        {
          "internalType": "uint256",
          "name": "",
          "type": "uint256"
        }
      ],
      "stateMutability": "view",
      "type": "function"
    },
    {
      "inputs": [
        {
          "internalType": "string",
          "name": "title",
          "type": "string"
        },
        {
          "internalType": "string",
          "name": "description",
          "type": "string"
        },
        {
          "internalType": "string",
          "name": "category",
          "type": "string"
        },
        {
          "internalType": "string",
          "name": "metadataURI",
          "type": "string"
        },
        {
          "internalType": "string[]",
          "name": "milestoneDescriptions",
          "type": "string[]"
        },
        {
          "internalType": "uint256[]",
          "name": "milestoneTargets",
          "type": "uint256[]"
        },
        {
          "internalType": "string[]",
          "name": "verificationCriteria",
          "type": "string[]"
        },
        {
          "internalType": "uint256",
          "name": "deadline",
          "type": "uint256"
        }
      ],
      "name": "createProject",
      "outputs": [
        {
          "internalType": "uint256",
          "name": "",
          "type": "uint256"
        }
      ],
      "stateMutability": "nonpayable",
      "type": "function"
    },
    {
      "inputs": [
        {
          "internalType": "uint256",
          "name": "projectId",
          "type": "uint256"
        },
        {
          "internalType": "uint256",
          "name": "milestoneId",
          "type": "uint256"
        }
      ],
      "name": "fundProject",
      "outputs": [],
      "stateMutability": "payable",
      "type": "function"
    },
    {
      "inputs": [],
      "name": "fundingEscrow",
      "outputs": [
        {
          "internalType": "contract IFundingEscrow",
          "name": "",
          "type": "address"
        }
      ],
      "stateMutability": "view",
      "type": "function"
    },
    {
      "inputs": [
        {
          "internalType": "uint256",
          "name": "projectId",
          "type": "uint256"
        },
        {
          "internalType": "address",
          "name": "backer",
          "type": "address"
        }
      ],
      "name": "getContribution",
      "outputs": [
        {
          "internalType": "uint256",
          "name": "",
          "type": "uint256"
        }
      ],
      "stateMutability": "view",
      "type": "function"
    },
    {
      "inputs": [
        {
          "internalType": "uint256",
          "name": "projectId",
          "type": "uint256"
        },
        {
          "internalType": "uint256",
          "name": "milestoneId",
          "type": "uint256"
        }
      ],
      "name": "getMilestone",
      "outputs": [
        {
          "internalType": "string",
          "name": "description",
          "type": "string"
        },
        {
          "internalType": "uint256",
          "name": "targetAmount",
          "type": "uint256"
        },
        {
          "internalType": "uint256",
          "name": "currentAmount",
          "type": "uint256"
        },
        {
          "internalType": "bool",
          "name": "isCompleted",
          "type": "bool"
        },
        {
          "internalType": "bool",
          "name": "fundsReleased",
          "type": "bool"
        },
        {
          "internalType": "string",
          "name": "verificationCriteria",
          "type": "string"
        }
      ],
      "stateMutability": "view",
      "type": "function"
    },
    {
      "inputs": [
        {
          "internalType": "uint256",
          "name": "projectId",
          "type": "uint256"
        }
      ],
      "name": "getProject",
      "outputs": [
        {
          "internalType": "string",
          "name": "title",
          "type": "string"
        },
        {
          "internalType": "string",
          "name": "description",
          "type": "string"
        },
        {
          "internalType": "address",
          "name": "researcher",
          "type": "address"
        },
        {
          "internalType": "uint256",
          "name": "totalFunding",
          "type": "uint256"
        },
        {
          "internalType": "uint256",
          "name": "currentFunding",
          "type": "uint256"
        },
        {
          "internalType": "bool",
          "name": "isActive",
          "type": "bool"
        },
        {
          "internalType": "string",
          "name": "category",
          "type": "string"
        },
        {
          "internalType": "uint256",
          "name": "createdAt",
          "type": "uint256"
        },
        {
          "internalType": "string",
          "name": "metadataURI",
          "type": "string"
        },
        {
          "internalType": "bool",
          "name": "isCancelled",
          "type": "bool"
        },
        {
          "internalType": "uint256",
          "name": "deadline",
          "type": "uint256"
        }
      ],
      "stateMutability": "view",
      "type": "function"
    },
    {
      "inputs": [
        {
          "internalType": "address",
          "name": "account",
          "type": "address"
        },
        {
          "internalType": "address",
          "name": "operator",
          "type": "address"
        }
      ],
      "name": "isApprovedForAll",
      "outputs": [
        {
          "internalType": "bool",
          "name": "",
          "type": "bool"
        }
      ],
      "stateMutability": "view",
      "type": "function"
    },
    {
      "inputs": [
        {
          "internalType": "uint256",
          "name": "",
          "type": "uint256"
        },
        {
          "internalType": "uint256",
          "name": "",
          "type": "uint256"
        }
      ],
      "name": "milestones",
      "outputs": [
        {
          "internalType": "string",
          "name": "description",
          "type": "string"
        },
        {
          "internalType": "uint256",
          "name": "targetAmount",
          "type": "uint256"
        },
        {
          "internalType": "uint256",
          "name": "currentAmount",
          "type": "uint256"
        },
        {
          "internalType": "bool",
          "name": "isCompleted",
          "type": "bool"
        },
        {
          "internalType": "bool",
          "name": "fundsReleased",
          "type": "bool"
        },
        {
          "internalType": "string",
          "name": "verificationCriteria",
          "type": "string"
        }
      ],
      "stateMutability": "view",
      "type": "function"
    },
    {
      "inputs": [],
      "name": "oracle",
      "outputs": [
        {
          "internalType": "address",
          "name": "",
          "type": "address"
        }
      ],
      "stateMutability": "view",
      "type": "function"
    },
    {
      "inputs": [
        {
          "internalType": "uint256",
          "name": "",
          "type": "uint256"
        }
      ],
      "name": "projects",
      "outputs": [
        {
          "internalType": "uint256",
          "name": "projectId",
          "type": "uint256"
        },
        {
          "internalType": "string",
          "name": "title",
          "type": "string"
        },
        {
          "internalType": "string",
          "name": "description",
          "type": "string"
        },
        {
          "internalType": "address",
          "name": "researcher",
          "type": "address"
        },
        {
          "internalType": "uint256",
          "name": "totalFunding",
          "type": "uint256"
        },
        {
          "internalType": "uint256",
          "name": "currentFunding",
          "type": "uint256"
        },
        {
          "internalType": "bool",
          "name": "isActive",
          "type": "bool"
        },
        {
          "internalType": "string",
          "name": "category",
          "type": "string"
        },
        {
          "internalType": "uint256",
          "name": "createdAt",
          "type": "uint256"
        },
        {
          "internalType": "string",
          "name": "metadataURI",
          "type": "string"
        },
        {
          "internalType": "bool",
          "name": "isCancelled",
          "type": "bool"
        },
        {
          "internalType": "uint256",
          "name": "deadline",
          "type": "uint256"
        }
      ],
      "stateMutability": "view",
      "type": "function"
    },
    {
      "inputs": [
        {
          "internalType": "address",
          "name": "from",
          "type": "address"
        },
        {
          "internalType": "address",
          "name": "to",
          "type": "address"
        },
        {
          "internalType": "uint256[]",
          "name": "ids",
          "type": "uint256[]"
        },
        {
          "internalType": "uint256[]",
          "name": "amounts",
          "type": "uint256[]"
        },
        {
          "internalType": "bytes",
          "name": "data",
          "type": "bytes"
        }
      ],
      "name": "safeBatchTransferFrom",
      "outputs": [],
      "stateMutability": "nonpayable",
      "type": "function"
    },
    {
      "inputs": [
        {
          "internalType": "address",
          "name": "from",
          "type": "address"
        },
        {
          "internalType": "address",
          "name": "to",
          "type": "address"
        },
        {
          "internalType": "uint256",
          "name": "id",
          "type": "uint256"
        },
        {
          "internalType": "uint256",
          "name": "amount",
          "type": "uint256"
        },
        {
          "internalType": "bytes",
          "name": "data",
          "type": "bytes"
        }
      ],
      "name": "safeTransferFrom",
      "outputs": [],
      "stateMutability": "nonpayable",
      "type": "function"
    },
    {
      "inputs": [
        {
          "internalType": "address",
          "name": "operator",
          "type": "address"
        },
        {
          "internalType": "bool",
          "name": "approved",
          "type": "bool"
        }
      ],
      "name": "setApprovalForAll",
      "outputs": [],
      "stateMutability": "nonpayable",
      "type": "function"
    },
    {
      "inputs": [
        {
          "internalType": "address",
          "name": "_oracle",
          "type": "address"
        }
      ],
      "name": "setMilestoneOracle",
      "outputs": [],
      "stateMutability": "nonpayable",
      "type": "function"
    },
    {
      "inputs": [
        {
          "internalType": "bytes4",
          "name": "interfaceId",
          "type": "bytes4"
        }
      ],
      "name": "supportsInterface",
      "outputs": [
        {
          "internalType": "bool",
          "name": "",
          "type": "bool"
        }
      ],
      "stateMutability": "view",
      "type": "function"
    },
    {
      "inputs": [
        {
          "internalType": "uint256",
          "name": "",
          "type": "uint256"
        }
      ],
      "name": "uri",
      "outputs": [
        {
          "internalType": "string",
          "name": "",
          "type": "string"
        }
      ],
      "stateMutability": "view",
      "type": "function"
    },
    {
      "inputs": [
        {
          "internalType": "uint256",
          "name": "projectId",
          "type": "uint256"
        },
        {
          "internalType": "uint256",
          "name": "milestoneId",
          "type": "uint256"
        },
        {
          "internalType": "string",
          "name": "submittedProof",
          "type": "string"
        }
      ],
      "name": "verifyAndReleaseFunds",
      "outputs": [],
      "stateMutability": "nonpayable",
      "type": "function"
    }
  ],
  "bytecode": "0x60806040523480156200001157600080fd5b50604051620036fe380380620036fe8339810160408190526200003491620000b5565b6040805160208101909152600081526200004e8162000086565b506001600355600580546001600160a01b039384166001600160a01b031991821617909155600680549290931691161790556200025e565b600262000094828262000192565b5050565b80516001600160a01b0381168114620000b057600080fd5b919050565b60008060408385031215620000c957600080fd5b620000d48362000098565b9150620000e46020840162000098565b90509250929050565b634e487b7160e01b600052604160045260246000fd5b600181811c908216806200011857607f821691505b6020821081036200013957634e487b7160e01b600052602260045260246000fd5b50919050565b601f8211156200018d57600081815260208120601f850160051c81016020861015620001685750805b601f850160051c820191505b81811015620001895782815560010162000174565b5050505b505050565b81516001600160401b03811115620001ae57620001ae620000ed565b620001c681620001bf845462000103565b846200013f565b602080601f831160018114620001fe5760008415620001e55750858301515b600019600386901b1c1916600185901b17855562000189565b600085815260208120601f198616915b828110156200022f578886015182559484019460019091019084016200020e565b50858210156200024e5787850151600019600388901b60f8161c191681555b5050505050600190811b01905550565b613490806200026e6000396000f3fe6080604052600436106101295760003560e01c80636579a49b116100ab578063e081dbf91161006f578063e081dbf91461039a578063e985e9c5146103dd578063f0f3f2c814610426578063f242432a1461045d578063fdb66f3b1461047d578063ff2dcf2c1461049d57600080fd5b80636579a49b146102e25780637dc0d1d0146103025780638ed9895c1461033a57806399a4e49f1461035a578063a22cb4651461037a57600080fd5b80631c376c63116100f25780631c376c631461020b578063249411471461023d5780632eb2c2d61461025d5780633d891f591461027d5780634e1273f4146102b557600080fd5b8062fdd58e1461012e57806301cda5a41461016157806301ffc9a7146101765780630e89341c146101a6578063107046bd146101d3575b600080fd5b34801561013a57600080fd5b5061014e61014936600461261b565b6104bd565b6040519081526020015b60405180910390f35b61017461016f366004612645565b610556565b005b34801561018257600080fd5b50610196610191366004612680565b610884565b6040519015158152602001610158565b3480156101b257600080fd5b506101c66101c13660046126a4565b6108d4565b6040516101589190612703565b3480156101df57600080fd5b506101f36101ee3660046126a4565b610968565b6040516101589c9b9a99989796959493929190612716565b34801561021757600080fd5b5061022b610226366004612645565b610bf7565b604051610158969594939291906127c3565b34801561024957600080fd5b506101746102583660046126a4565b610d50565b34801561026957600080fd5b5061017461027836600461295a565b610e78565b34801561028957600080fd5b5061014e610298366004612a03565b600960209081526000928352604080842090915290825290205481565b3480156102c157600080fd5b506102d56102d0366004612a2f565b610ec4565b6040516101589190612b34565b3480156102ee57600080fd5b5061014e6102fd366004612bd1565b610fed565b34801561030e57600080fd5b50600654610322906001600160a01b031681565b6040516001600160a01b039091168152602001610158565b34801561034657600080fd5b5061022b610355366004612645565b6115d9565b34801561036657600080fd5b50610174610375366004612cf5565b611754565b34801561038657600080fd5b50610174610395366004612d10565b6117d0565b3480156103a657600080fd5b5061014e6103b5366004612a03565b60009182526009602090815260408084206001600160a01b0393909316845291905290205490565b3480156103e957600080fd5b506101966103f8366004612d4c565b6001600160a01b03918216600090815260016020908152604080832093909416825291909152205460ff1690565b34801561043257600080fd5b506104466104413660046126a4565b6117db565b6040516101589b9a99989796959493929190612d76565b34801561046957600080fd5b50610174610478366004612e0f565b611aba565b34801561048957600080fd5b50600554610322906001600160a01b031681565b3480156104a957600080fd5b506101746104b8366004612e73565b611aff565b60006001600160a01b03831661052d5760405162461bcd60e51b815260206004820152602a60248201527f455243313135353a2061646472657373207a65726f206973206e6f742061207660448201526930b634b21037bbb732b960b11b60648201526084015b60405180910390fd5b506000818152602081815260408083206001600160a01b03861684529091529020545b92915050565b61055e611dea565b6000828152600760205260409020600681015460ff166105905760405162461bcd60e51b815260040161052490612ef2565b600b81015460ff16156105d95760405162461bcd60e51b8152602060048201526011602482015270141c9bda9958dd0818d85b98d95b1b1959607a1b6044820152606401610524565b80600c015442111561062d5760405162461bcd60e51b815260206004820152601760248201527f46756e64696e6720646561646c696e65207061737365640000000000000000006044820152606401610524565b6000341161067d5760405162461bcd60e51b815260206004820152601d60248201527f416d6f756e74206d7573742062652067726561746572207468616e20300000006044820152606401610524565b60008381526008602090815260408083208584529091529020600181015460028201546106ab903490612f34565b11156106f95760405162461bcd60e51b815260206004820152601860248201527f45786365656473206d696c6573746f6e652074617267657400000000000000006044820152606401610524565b6005546040516273696960e21b815260048101869052602481018590526001600160a01b03909116906301cda5a49034906044016000604051808303818588803b15801561074657600080fd5b505af115801561075a573d6000803e3d6000fd5b5050505050348260050160008282546107739190612f34565b925050819055503481600201600082825461078e9190612f34565b90915550506000848152600960209081526040808320338452909152812080543492906107bc908490612f34565b925050819055506107de33853460405180602001604052806000815250611e43565b604051348152339085907f6251418ffd7f504740544ec3d578897633e212c5d658b7dce793c5dc9d2e855e9060200160405180910390a380600101548160020154101580156108325750600381015460ff16155b156108745760038101805460ff19166001179055604051839085907f1b7218c0ac23ea9cbe4df603d2b340fbf469a115b73ea3d11460727f445d6be190600090a35b50506108806001600355565b5050565b60006001600160e01b03198216636cdb3d1360e11b14806108b557506001600160e01b031982166303a24d0760e21b145b8061055057506301ffc9a760e01b6001600160e01b0319831614610550565b6060600280546108e390612f47565b80601f016020809104026020016040519081016040528092919081815260200182805461090f90612f47565b801561095c5780601f106109315761010080835404028352916020019161095c565b820191906000526020600020905b81548152906001019060200180831161093f57829003601f168201915b50505050509050919050565b6007602052600090815260409020805460018201805491929161098a90612f47565b80601f01602080910402602001604051908101604052809291908181526020018280546109b690612f47565b8015610a035780601f106109d857610100808354040283529160200191610a03565b820191906000526020600020905b8154815290600101906020018083116109e657829003601f168201915b505050505090806002018054610a1890612f47565b80601f0160208091040260200160405190810160405280929190818152602001828054610a4490612f47565b8015610a915780601f10610a6657610100808354040283529160200191610a91565b820191906000526020600020905b815481529060010190602001808311610a7457829003601f168201915b505050600384015460048501546005860154600687015460088801805497986001600160a01b039095169793965091945060ff169291610ad090612f47565b80601f0160208091040260200160405190810160405280929190818152602001828054610afc90612f47565b8015610b495780601f10610b1e57610100808354040283529160200191610b49565b820191906000526020600020905b815481529060010190602001808311610b2c57829003601f168201915b50505050509080600901549080600a018054610b6490612f47565b80601f0160208091040260200160405190810160405280929190818152602001828054610b9090612f47565b8015610bdd5780601f10610bb257610100808354040283529160200191610bdd565b820191906000526020600020905b815481529060010190602001808311610bc057829003601f168201915b50505050600b830154600c90930154919260ff169190508c565b6008602090815260009283526040808420909152908252902080548190610c1d90612f47565b80601f0160208091040260200160405190810160405280929190818152602001828054610c4990612f47565b8015610c965780601f10610c6b57610100808354040283529160200191610c96565b820191906000526020600020905b815481529060010190602001808311610c7957829003601f168201915b505050506001830154600284015460038501546004860180549596939592945060ff808316946101009093041692610ccd90612f47565b80601f0160208091040260200160405190810160405280929190818152602001828054610cf990612f47565b8015610d465780601f10610d1b57610100808354040283529160200191610d46565b820191906000526020600020905b815481529060010190602001808311610d2957829003601f168201915b5050505050905086565b60008181526007602052604090206003015481906001600160a01b03163314610db05760405162461bcd60e51b81526020600482015260126024820152712737ba103a3432903932b9b2b0b931b432b960711b6044820152606401610524565b6000828152600760205260409020600681015460ff16610de25760405162461bcd60e51b815260040161052490612ef2565b600b81015460ff1615610e2b5760405162461bcd60e51b8152602060048201526011602482015270105b1c9958591e4818d85b98d95b1b1959607a1b6044820152606401610524565b60068101805460ff19908116909155600b82018054909116600117905560405183907fe3805ed669490875ae87c5c8b1ad6ecca0e5e67305a833926d0d4317c4822fc090600090a2505050565b6001600160a01b038516331480610e945750610e9485336103f8565b610eb05760405162461bcd60e51b815260040161052490612f81565b610ebd8585858585611f57565b5050505050565b60608151835114610f295760405162461bcd60e51b815260206004820152602960248201527f455243313135353a206163636f756e747320616e6420696473206c656e677468604482015268040dad2e6dac2e8c6d60bb1b6064820152608401610524565b600083516001600160401b03811115610f4457610f44612811565b604051908082528060200260200182016040528015610f6d578160200160208202803683370190505b50905060005b8451811015610fe557610fb8858281518110610f9157610f91612fcf565b6020026020010151858381518110610fab57610fab612fcf565b60200260200101516104bd565b828281518110610fca57610fca612fcf565b6020908102919091010152610fde81612fe5565b9050610f73565b509392505050565b6000610ff7611dea565b83518551146110485760405162461bcd60e51b815260206004820152601b60248201527f4d69736d617463686564206d696c6573746f6e6520696e7075747300000000006044820152606401610524565b82518551146110995760405162461bcd60e51b815260206004820181905260248201527f4d69736d61746368656420766572696669636174696f6e2063726974657269616044820152606401610524565b60008551116110e35760405162461bcd60e51b8152602060048201526016602482015275139bc81b5a5b195cdd1bdb995cc81c1c9bdd9a59195960521b6044820152606401610524565b4282116111255760405162461bcd60e51b815260206004820152601060248201526f496e76616c696420646561646c696e6560801b6044820152606401610524565b611133600480546001019055565b600061113e60045490565b9050600086516001600160401b0381111561115b5761115b612811565b604051908082528060200260200182016040528015611184578160200160208202803683370190505b5090506000805b88518110156113a35761119f816001612f34565b8382815181106111b1576111b1612fcf565b6020026020010181815250506040518060c001604052808a83815181106111da576111da612fcf565b602002602001015181526020018983815181106111f9576111f9612fcf565b602002602001015181526020016000815260200160001515815260200160001515815260200188838151811061123157611231612fcf565b602002602001015181525060086000868152602001908152602001600020600083600161125e9190612f34565b815260208101919091526040016000208151819061127c9082613049565b5060208201516001820155604082015160028201556060820151600382018054608085015115156101000261ff00199315159390931661ffff199091161791909117905560a082015160048201906112d49082613049565b509050508781815181106112ea576112ea612fcf565b6020026020010151826112fd9190612f34565b915061130a816001612f34565b847ff09247e8ee860e317fc42de796ac7524d065dddb05c6860f52bbcb13103458018b848151811061133e5761133e612fcf565b60200260200101518b858151811061135857611358612fcf565b60200260200101518b868151811061137257611372612fcf565b602002602001015160405161138993929190613108565b60405180910390a38061139b81612fe5565b91505061118b565b50604051806101a001604052808481526020018d81526020018c8152602001336001600160a01b03168152602001828152602001600081526020016001151581526020018381526020018b81526020014281526020018a8152602001600015158152602001868152506007600085815260200190815260200160002060008201518160000155602082015181600101908161143e9190613049565b50604082015160028201906114539082613049565b5060608201516003820180546001600160a01b0319166001600160a01b039092169190911790556080820151600482015560a0820151600582015560c082015160068201805460ff191691151591909117905560e082015180516114c191600784019160209091019061259f565b5061010082015160088201906114d79082613049565b506101208201516009820155610140820151600a8201906114f89082613049565b50610160820151600b8201805460ff191691151591909117905561018090910151600c90910155600554604051638da2c87360e01b8152600481018590526001600160a01b0390911690638da2c87390602401600060405180830381600087803b15801561156557600080fd5b505af1158015611579573d6000803e3d6000fd5b50505050336001600160a01b0316837f6d95b0d24140e7a84ad5c151a06d5f594c22e0cd07422be517de183e1687cd988e8d8d6040516115bb9392919061313d565b60405180910390a35050600160035590505b98975050505050505050565b6000828152600860209081526040808320848452909152812060018101546002820154600383015483546060959485948594859489948493929160ff8082169261010090920416906004860190869061163190612f47565b80601f016020809104026020016040519081016040528092919081815260200182805461165d90612f47565b80156116aa5780601f1061167f576101008083540402835291602001916116aa565b820191906000526020600020905b81548152906001019060200180831161168d57829003601f168201915b505050505095508080546116bd90612f47565b80601f01602080910402602001604051908101604052809291908181526020018280546116e990612f47565b80156117365780601f1061170b57610100808354040283529160200191611736565b820191906000526020600020905b81548152906001019060200180831161171957829003601f168201915b50505050509050965096509650965096509650509295509295509295565b6006546001600160a01b031633146117ae5760405162461bcd60e51b815260206004820152601e60248201527f4f6e6c792063757272656e74206f7261636c652063616e2075706461746500006044820152606401610524565b600680546001600160a01b0319166001600160a01b0392909216919091179055565b610880338383612134565b6060806000806000806060600060606000806000600760008e8152602001908152602001600020905080600101816002018260030160009054906101000a90046001600160a01b0316836004015484600501548560060160009054906101000a900460ff1686600801876009015488600a0189600b0160009054906101000a900460ff168a600c01548a805461187090612f47565b80601f016020809104026020016040519081016040528092919081815260200182805461189c90612f47565b80156118e95780601f106118be576101008083540402835291602001916118e9565b820191906000526020600020905b8154815290600101906020018083116118cc57829003601f168201915b50505050509a508980546118fc90612f47565b80601f016020809104026020016040519081016040528092919081815260200182805461192890612f47565b80156119755780601f1061194a57610100808354040283529160200191611975565b820191906000526020600020905b81548152906001019060200180831161195857829003601f168201915b5050505050995084805461198890612f47565b80601f01602080910402602001604051908101604052809291908181526020018280546119b490612f47565b8015611a015780601f106119d657610100808354040283529160200191611a01565b820191906000526020600020905b8154815290600101906020018083116119e457829003601f168201915b50505050509450828054611a1490612f47565b80601f0160208091040260200160405190810160405280929190818152602001828054611a4090612f47565b8015611a8d5780601f10611a6257610100808354040283529160200191611a8d565b820191906000526020600020905b815481529060010190602001808311611a7057829003601f168201915b505050505092509b509b509b509b509b509b509b509b509b509b509b505091939597999b90929496989a50565b6001600160a01b038516331480611ad65750611ad685336103f8565b611af25760405162461bcd60e51b815260040161052490612f81565b610ebd8585858585612214565b6006546001600160a01b03163314611b505760405162461bcd60e51b815260206004820152601460248201527313db9b1e481bdc9858db194818d85b8818d85b1b60621b6044820152606401610524565b6000848152600760205260409020600681015460ff16611b825760405162461bcd60e51b815260040161052490612ef2565b600b81015460ff1615611bcb5760405162461bcd60e51b8152602060048201526011602482015270141c9bda9958dd0818d85b98d95b1b1959607a1b6044820152606401610524565b600085815260086020908152604080832087845290915290206003810154610100900460ff1615611c375760405162461bcd60e51b8152602060048201526016602482015275119d5b991cc8185b1c9958591e481c995b19585cd95960521b6044820152606401610524565b600381015460ff16611c8b5760405162461bcd60e51b815260206004820152601760248201527f4d696c6573746f6e65206e6f7420636f6d706c657465640000000000000000006044820152606401610524565b80600401604051602001611c9f9190613176565b604051602081830303815290604052805190602001208484604051602001611cc89291906131ec565b6040516020818303038152906040528051906020012014611d215760405162461bcd60e51b815260206004820152601360248201527215995c9a599a58d85d1a5bdb8819985a5b1959606a1b6044820152606401610524565b6003818101805461ff0019166101001790556005549083015460405163af1dc98f60e01b815260048101899052602481018890526001600160a01b03918216604482015291169063af1dc98f90606401600060405180830381600087803b158015611d8b57600080fd5b505af1158015611d9f573d6000803e3d6000fd5b5050505084867f24d2f6e8ac6c13d1e7610752ab0b7ce03d5043806a65d3d631ae859ad81d159b8360020154604051611dda91815260200190565b60405180910390a3505050505050565b600260035403611e3c5760405162461bcd60e51b815260206004820152601f60248201527f5265656e7472616e637947756172643a207265656e7472616e742063616c6c006044820152606401610524565b6002600355565b6001600160a01b038416611ea35760405162461bcd60e51b815260206004820152602160248201527f455243313135353a206d696e7420746f20746865207a65726f206164647265736044820152607360f81b6064820152608401610524565b336000611eaf8561233e565b90506000611ebc8561233e565b90506000868152602081815260408083206001600160a01b038b16845290915281208054879290611eee908490612f34565b909155505060408051878152602081018790526001600160a01b03808a1692600092918716917fc3d58168c5ae7397731d063d5bbf3d657854427343f4c083240f7aacaa2d0f62910160405180910390a4611f4e83600089898989612389565b50505050505050565b8151835114611fb95760405162461bcd60e51b815260206004820152602860248201527f455243313135353a2069647320616e6420616d6f756e7473206c656e677468206044820152670dad2e6dac2e8c6d60c31b6064820152608401610524565b6001600160a01b038416611fdf5760405162461bcd60e51b8152600401610524906131fc565b3360005b84518110156120c657600085828151811061200057612000612fcf565b60200260200101519050600085838151811061201e5761201e612fcf565b602090810291909101810151600084815280835260408082206001600160a01b038e16835290935291909120549091508181101561206e5760405162461bcd60e51b815260040161052490613241565b6000838152602081815260408083206001600160a01b038e8116855292528083208585039055908b168252812080548492906120ab908490612f34565b92505081905550505050806120bf90612fe5565b9050611fe3565b50846001600160a01b0316866001600160a01b0316826001600160a01b03167f4a39dc06d4c0dbc64b70af90fd698a233a518aa5d07e595d983b8c0526c8f7fb878760405161211692919061328b565b60405180910390a461212c8187878787876124e4565b505050505050565b816001600160a01b0316836001600160a01b0316036121a75760405162461bcd60e51b815260206004820152602960248201527f455243313135353a2073657474696e6720617070726f76616c20737461747573604482015268103337b91039b2b63360b91b6064820152608401610524565b6001600160a01b03838116600081815260016020908152604080832094871680845294825291829020805460ff191686151590811790915591519182527f17307eab39ab6107e8899845ad3d59bd9653f200f220920489ca2b5937696c31910160405180910390a3505050565b6001600160a01b03841661223a5760405162461bcd60e51b8152600401610524906131fc565b3360006122468561233e565b905060006122538561233e565b90506000868152602081815260408083206001600160a01b038c168452909152902054858110156122965760405162461bcd60e51b815260040161052490613241565b6000878152602081815260408083206001600160a01b038d8116855292528083208985039055908a168252812080548892906122d3908490612f34565b909155505060408051888152602081018890526001600160a01b03808b16928c821692918816917fc3d58168c5ae7397731d063d5bbf3d657854427343f4c083240f7aacaa2d0f62910160405180910390a4612333848a8a8a8a8a612389565b505050505050505050565b6040805160018082528183019092526060916000919060208083019080368337019050509050828160008151811061237857612378612fcf565b602090810291909101015292915050565b6001600160a01b0384163b1561212c5760405163f23a6e6160e01b81526001600160a01b0385169063f23a6e61906123cd90899089908890889088906004016132b9565b6020604051808303816000875af1925050508015612408575060408051601f3d908101601f19168201909252612405918101906132fe565b60015b6124b45761241461331b565b806308c379a00361244d5750612428613337565b80612433575061244f565b8060405162461bcd60e51b81526004016105249190612703565b505b60405162461bcd60e51b815260206004820152603460248201527f455243313135353a207472616e7366657220746f206e6f6e2d455243313135356044820152732932b1b2b4bb32b91034b6b83632b6b2b73a32b960611b6064820152608401610524565b6001600160e01b0319811663f23a6e6160e01b14611f4e5760405162461bcd60e51b8152600401610524906133c0565b6001600160a01b0384163b1561212c5760405163bc197c8160e01b81526001600160a01b0385169063bc197c81906125289089908990889088908890600401613408565b6020604051808303816000875af1925050508015612563575060408051601f3d908101601f19168201909252612560918101906132fe565b60015b61256f5761241461331b565b6001600160e01b0319811663bc197c8160e01b14611f4e5760405162461bcd60e51b8152600401610524906133c0565b8280548282559060005260206000209081019282156125da579160200282015b828111156125da5782518255916020019190600101906125bf565b506125e69291506125ea565b5090565b5b808211156125e657600081556001016125eb565b80356001600160a01b038116811461261657600080fd5b919050565b6000806040838503121561262e57600080fd5b612637836125ff565b946020939093013593505050565b6000806040838503121561265857600080fd5b50508035926020909101359150565b6001600160e01b03198116811461267d57600080fd5b50565b60006020828403121561269257600080fd5b813561269d81612667565b9392505050565b6000602082840312156126b657600080fd5b5035919050565b6000815180845260005b818110156126e3576020818501810151868301820152016126c7565b506000602082860101526020601f19601f83011685010191505092915050565b60208152600061269d60208301846126bd565b60006101808e83528060208401526127308184018f6126bd565b90508281036040840152612744818e6126bd565b6001600160a01b038d166060850152608084018c905260a084018b905289151560c085015283810360e0850152905061277d81896126bd565b90508661010084015282810361012084015261279981876126bd565b9150506127ab61014083018515159052565b826101608301529d9c50505050505050505050505050565b60c0815260006127d660c08301896126bd565b8760208401528660408401528515156060840152841515608084015282810360a084015261280481856126bd565b9998505050505050505050565b634e487b7160e01b600052604160045260246000fd5b601f8201601f191681016001600160401b038111828210171561284c5761284c612811565b6040525050565b60006001600160401b0382111561286c5761286c612811565b5060051b60200190565b600082601f83011261288757600080fd5b8135602061289482612853565b6040516128a18282612827565b83815260059390931b85018201928281019150868411156128c157600080fd5b8286015b848110156128dc57803583529183019183016128c5565b509695505050505050565b600082601f8301126128f857600080fd5b81356001600160401b0381111561291157612911612811565b604051612928601f8301601f191660200182612827565b81815284602083860101111561293d57600080fd5b816020850160208301376000918101602001919091529392505050565b600080600080600060a0868803121561297257600080fd5b61297b866125ff565b9450612989602087016125ff565b935060408601356001600160401b03808211156129a557600080fd5b6129b189838a01612876565b945060608801359150808211156129c757600080fd5b6129d389838a01612876565b935060808801359150808211156129e957600080fd5b506129f6888289016128e7565b9150509295509295909350565b60008060408385031215612a1657600080fd5b82359150612a26602084016125ff565b90509250929050565b60008060408385031215612a4257600080fd5b82356001600160401b0380821115612a5957600080fd5b818501915085601f830112612a6d57600080fd5b81356020612a7a82612853565b604051612a878282612827565b83815260059390931b8501820192828101915089841115612aa757600080fd5b948201945b83861015612acc57612abd866125ff565b82529482019490820190612aac565b96505086013592505080821115612ae257600080fd5b50612aef85828601612876565b9150509250929050565b600081518084526020808501945080840160005b83811015612b2957815187529582019590820190600101612b0d565b509495945050505050565b60208152600061269d6020830184612af9565b600082601f830112612b5857600080fd5b81356020612b6582612853565b604051612b728282612827565b83815260059390931b8501820192828101915086841115612b9257600080fd5b8286015b848110156128dc5780356001600160401b03811115612bb55760008081fd5b612bc38986838b01016128e7565b845250918301918301612b96565b600080600080600080600080610100898b031215612bee57600080fd5b88356001600160401b0380821115612c0557600080fd5b612c118c838d016128e7565b995060208b0135915080821115612c2757600080fd5b612c338c838d016128e7565b985060408b0135915080821115612c4957600080fd5b612c558c838d016128e7565b975060608b0135915080821115612c6b57600080fd5b612c778c838d016128e7565b965060808b0135915080821115612c8d57600080fd5b612c998c838d01612b47565b955060a08b0135915080821115612caf57600080fd5b612cbb8c838d01612876565b945060c08b0135915080821115612cd157600080fd5b50612cde8b828c01612b47565b92505060e089013590509295985092959890939650565b600060208284031215612d0757600080fd5b61269d826125ff565b60008060408385031215612d2357600080fd5b612d2c836125ff565b915060208301358015158114612d4157600080fd5b809150509250929050565b60008060408385031215612d5f57600080fd5b612d68836125ff565b9150612a26602084016125ff565b6000610160808352612d8a8184018f6126bd565b90508281036020840152612d9e818e6126bd565b6001600160a01b038d166040850152606084018c9052608084018b905289151560a085015283810360c08501529050612dd781896126bd565b90508660e0840152828103610100840152612df281876126bd565b941515610120840152505061014001529998505050505050505050565b600080600080600060a08688031215612e2757600080fd5b612e30866125ff565b9450612e3e602087016125ff565b9350604086013592506060860135915060808601356001600160401b03811115612e6757600080fd5b6129f6888289016128e7565b60008060008060608587031215612e8957600080fd5b843593506020850135925060408501356001600160401b0380821115612eae57600080fd5b818701915087601f830112612ec257600080fd5b813581811115612ed157600080fd5b886020828501011115612ee357600080fd5b95989497505060200194505050565b60208082526012908201527150726f6a656374206e6f742061637469766560701b604082015260600190565b634e487b7160e01b600052601160045260246000fd5b8082018082111561055057610550612f1e565b600181811c90821680612f5b57607f821691505b602082108103612f7b57634e487b7160e01b600052602260045260246000fd5b50919050565b6020808252602e908201527f455243313135353a2063616c6c6572206973206e6f7420746f6b656e206f776e60408201526d195c881bdc88185c1c1c9bdd995960921b606082015260800190565b634e487b7160e01b600052603260045260246000fd5b600060018201612ff757612ff7612f1e565b5060010190565b601f82111561304457600081815260208120601f850160051c810160208610156130255750805b601f850160051c820191505b8181101561212c57828155600101613031565b505050565b81516001600160401b0381111561306257613062612811565b613076816130708454612f47565b84612ffe565b602080601f8311600181146130ab57600084156130935750858301515b600019600386901b1c1916600185901b17855561212c565b600085815260208120601f198616915b828110156130da578886015182559484019460019091019084016130bb565b50858210156130f85787850151600019600388901b60f8161c191681555b5050505050600190811b01905550565b60608152600061311b60608301866126bd565b846020840152828103604084015261313381856126bd565b9695505050505050565b60608152600061315060608301866126bd565b828103602084015261316281866126bd565b9050828103604084015261313381856126bd565b600080835461318481612f47565b6001828116801561319c57600181146131b1576131e0565b60ff19841687528215158302870194506131e0565b8760005260208060002060005b858110156131d75781548a8201529084019082016131be565b50505082870194505b50929695505050505050565b8183823760009101908152919050565b60208082526025908201527f455243313135353a207472616e7366657220746f20746865207a65726f206164604082015264647265737360d81b606082015260800190565b6020808252602a908201527f455243313135353a20696e73756666696369656e742062616c616e636520666f60408201526939103a3930b739b332b960b11b606082015260800190565b60408152600061329e6040830185612af9565b82810360208401526132b08185612af9565b95945050505050565b6001600160a01b03868116825285166020820152604081018490526060810183905260a0608082018190526000906132f3908301846126bd565b979650505050505050565b60006020828403121561331057600080fd5b815161269d81612667565b600060033d11156133345760046000803e5060005160e01c5b90565b600060443d10156133455790565b6040516003193d81016004833e81513d6001600160401b03816024840111818411171561337457505050505090565b828501915081518181111561338c5750505050505090565b843d87010160208285010111156133a65750505050505090565b6133b560208286010187612827565b509095945050505050565b60208082526028908201527f455243313135353a204552433131353552656365697665722072656a656374656040820152676420746f6b656e7360c01b606082015260800190565b6001600160a01b0386811682528516602082015260a06040820181905260009061343490830186612af9565b82810360608401526134468186612af9565b905082810360808401526115cd81856126bd56fea26469706673582212203fd6c2ee94960d0088cd6731d60f74eefa52fe7d88765f1c4e3aba8ae0fb929664736f6c63430008110033",
  "linkReferences": {},
  "deployedLinkReferences": {}
}