{
  "_format": "hh-sol-artifact-1",
  "contractName": "Disputes",
  "sourceName": "contracts/Disputes.sol",
  "abi": [
    {
      "inputs": [
        {
          "internalType": "address",
          "name": "_governorAddress",
          "type": "address"
        }
      ],
      "stateMutability": "nonpayable",
      "type": "constructor"
    },
    {
      "anonymous": false,
      "inputs": [
        {
          "indexed": true,
          "internalType": "uint256",
          "name": "disputeId",
          "type": "uint256"
        },
        {
          "indexed": false,
          "internalType": "enum Disputes.DisputeType",
          "name": "disputeType",
          "type": "uint8"
        },
        {
          "indexed": true,
          "internalType": "address",
          "name": "complainant",
          "type": "address"
        },
        {
          "indexed": true,
          "internalType": "address",
          "name": "respondent",
          "type": "address"
        },
        {
          "indexed": false,
          "internalType": "uint256",
          "name": "relatedId",
          "type": "uint256"
        }
      ],
      "name": "DisputeCreated",
      "type": "event"
    },
    {
      "anonymous": false,
      "inputs": [
        {
          "indexed": true,
          "internalType": "uint256",
          "name": "disputeId",
          "type": "uint256"
        },
        {
          "indexed": false,
          "internalType": "enum Disputes.DisputeStatus",
          "name": "status",
          "type": "uint8"
        },
        {
          "indexed": false,
          "internalType": "string",
          "name": "resolution",
          "type": "string"
        }
      ],
      "name": "DisputeResolved",
      "type": "event"
    },
    {
      "anonymous": false,
      "inputs": [
        {
          "indexed": true,
          "internalType": "uint256",
          "name": "disputeId",
          "type": "uint256"
        },
        {
          "indexed": true,
          "internalType": "address",
          "name": "submitter",
          "type": "address"
        },
        {
          "indexed": false,
          "internalType": "string",
          "name": "ipfsHash",
          "type": "string"
        }
      ],
      "name": "EvidenceSubmitted",
      "type": "event"
    },
    {
      "inputs": [],
      "name": "DISPUTE_FEE",
      "outputs": [
        {
          "internalType": "uint256",
          "name": "",
          "type": "uint256"
        }
      ],
      "stateMutability": "view",
      "type": "function"
    },
    {
      "inputs": [],
      "name": "EVIDENCE_SUBMISSION_PERIOD",
      "outputs": [
        {
          "internalType": "uint256",
          "name": "",
          "type": "uint256"
        }
      ],
      "stateMutability": "view",
      "type": "function"
    },
    {
      "inputs": [
        {
          "internalType": "enum Disputes.DisputeType",
          "name": "_type",
          "type": "uint8"
        },
        {
          "internalType": "address",
          "name": "_respondent",
          "type": "address"
        },
        {
          "internalType": "uint256",
          "name": "_relatedId",
          "type": "uint256"
        },
        {
          "internalType": "string",
          "name": "_description",
          "type": "string"
        }
      ],
      "name": "createDispute",
      "outputs": [
        {
          "internalType": "uint256",
          "name": "",
          "type": "uint256"
        }
      ],
      "stateMutability": "payable",
      "type": "function"
    },
    {
      "inputs": [
        {
          "internalType": "uint256",
          "name": "",
          "type": "uint256"
        }
      ],
      "name": "disputes",
      "outputs": [
        {
          "internalType": "uint256",
          "name": "disputeId",
          "type": "uint256"
        },
        {
          "internalType": "enum Disputes.DisputeType",
          "name": "disputeType",
          "type": "uint8"
        },
        {
          "internalType": "address",
          "name": "complainant",
          "type": "address"
        },
        {
          "internalType": "address",
          "name": "respondent",
          "type": "address"
        },
        {
          "internalType": "uint256",
          "name": "relatedId",
          "type": "uint256"
        },
        {
          "internalType": "string",
          "name": "description",
          "type": "string"
        },
        {
          "internalType": "enum Disputes.DisputeStatus",
          "name": "status",
          "type": "uint8"
        },
        {
          "internalType": "uint256",
          "name": "createdAt",
          "type": "uint256"
        },
        {
          "internalType": "uint256",
          "name": "resolvedAt",
          "type": "uint256"
        },
        {
          "internalType": "string",
          "name": "resolution",
          "type": "string"
        },
        {
          "internalType": "uint256",
          "name": "proposalId",
          "type": "uint256"
        }
      ],
      "stateMutability": "view",
      "type": "function"
    },
    {
      "inputs": [
        {
          "internalType": "uint256",
          "name": "disputeId",
          "type": "uint256"
        }
      ],
      "name": "getDispute",
      "outputs": [
        {
          "internalType": "uint256",
          "name": "id",
          "type": "uint256"
        },
        {
          "internalType": "enum Disputes.DisputeType",
          "name": "disputeType",
          "type": "uint8"
        },
        {
          "internalType": "address",
          "name": "complainant",
          "type": "address"
        },
        {
          "internalType": "address",
          "name": "respondent",
          "type": "address"
        },
        {
          "internalType": "uint256",
          "name": "relatedId",
          "type": "uint256"
        },
        {
          "internalType": "string",
          "name": "description",
          "type": "string"
        },
        {
          "internalType": "enum Disputes.DisputeStatus",
          "name": "status",
          "type": "uint8"
        },
        {
          "internalType": "uint256",
          "name": "createdAt",
          "type": "uint256"
        },
        {
          "internalType": "uint256",
          "name": "resolvedAt",
          "type": "uint256"
        },
        {
          "internalType": "string",
          "name": "resolution",
          "type": "string"
        },
        {
          "internalType": "uint256",
          "name": "proposalId",
          "type": "uint256"
        }
      ],
      "stateMutability": "view",
      "type": "function"
    },
    {
      "inputs": [
        {
          "internalType": "uint256",
          "name": "disputeId",
          "type": "uint256"
        },
        {
          "internalType": "address",
          "name": "party",
          "type": "address"
        }
      ],
      "name": "getEvidence",
      "outputs": [
        {
          "internalType": "string[]",
          "name": "descriptions",
          "type": "string[]"
        },
        {
          "internalType": "string[]",
          "name": "ipfsHashes",
          "type": "string[]"
        },
        {
          "internalType": "uint256[]",
          "name": "timestamps",
          "type": "uint256[]"
        }
      ],
      "stateMutability": "view",
      "type": "function"
    },
    {
      "inputs": [],
      "name": "governor",
      "outputs": [
        {
          "internalType": "contract INebulaGovernor",
          "name": "",
          "type": "address"
        }
      ],
      "stateMutability": "view",
      "type": "function"
    },
    {
      "inputs": [
        {
          "internalType": "uint256",
          "name": "disputeId",
          "type": "uint256"
        },
        {
          "internalType": "bool",
          "name": "infavorOfComplainant",
          "type": "bool"
        },
        {
          "internalType": "string",
          "name": "resolution",
          "type": "string"
        }
      ],
      "name": "resolveDispute",
      "outputs": [],
      "stateMutability": "nonpayable",
      "type": "function"
    },
    {
      "inputs": [
        {
          "internalType": "uint256",
          "name": "disputeId",
          "type": "uint256"
        },
        {
          "internalType": "string",
          "name": "description",
          "type": "string"
        },
        {
          "internalType": "string",
          "name": "ipfsHash",
          "type": "string"
        }
      ],
      "name": "submitEvidence",
      "outputs": [],
      "stateMutability": "nonpayable",
      "type": "function"
    }
  ],
  "bytecode": "0x608060405234801561001057600080fd5b5060405161184b38038061184b83398101604081905261002f91610059565b6001600055600380546001600160a01b0319166001600160a01b0392909216919091179055610089565b60006020828403121561006b57600080fd5b81516001600160a01b038116811461008257600080fd5b9392505050565b6117b3806100986000396000f3fe6080604052600436106100865760003560e01c806355e3bae71161005957806355e3bae71461012b578063564a565d1461015a578063dc755e9d14610191578063e3a96cbd146101ad578063feb9e453146101cd57600080fd5b80630c340a241461008b5780632840662d146100c8578063298ae6f8146100ea5780632a8e36611461010b575b600080fd5b34801561009757600080fd5b506003546100ab906001600160a01b031681565b6040516001600160a01b0390911681526020015b60405180910390f35b3480156100d457600080fd5b506100e86100e33660046110dc565b6101e4565b005b6100fd6100f8366004611156565b61039c565b6040519081526020016100bf565b34801561011757600080fd5b506100e86101263660046111c4565b6107a5565b34801561013757600080fd5b5061014b610146366004611227565b61099d565b6040516100bf93929190611336565b34801561016657600080fd5b5061017a610175366004611379565b610ca9565b6040516100bf9b9a999897969594939291906113c9565b34801561019d57600080fd5b506100fd67016345785d8a000081565b3480156101b957600080fd5b5061017a6101c8366004611379565b610e2a565b3480156101d957600080fd5b506100fd62093a8081565b6003546001600160a01b0316331461023a5760405162461bcd60e51b81526020600482015260146024820152734f6e6c792044414f2063616e207265736f6c766560601b60448201526064015b60405180910390fd5b600083815260026020526040812090600582015460ff16600281111561026257610262611392565b146102a45760405162461bcd60e51b815260206004820152601260248201527144697370757465206e6f742061637469766560701b6044820152606401610231565b826102b05760026102b3565b60015b60058201805460ff191660018360028111156102d1576102d1611392565b0217905550600881016102e483826114e6565b50426007820155826103035760028101546001600160a01b0316610317565b600181015461010090046001600160a01b03165b6040516001600160a01b03919091169060009067016345785d8a00009082818181858883f19350505050158015610352573d6000803e3d6000fd5b50600581015460405185917fc204352fad7e46251e09ce83e05533737044b65128eb8926aac1969fbe2be2679161038e9160ff169086906115a6565b60405180910390a250505050565b60006103a6610fe0565b67016345785d8a00003410156103fe5760405162461bcd60e51b815260206004820152601860248201527f496e73756666696369656e7420646973707574652066656500000000000000006044820152606401610231565b6001600160a01b0384166104545760405162461bcd60e51b815260206004820152601a60248201527f496e76616c696420726573706f6e64656e7420616464726573730000000000006044820152606401610231565b336001600160a01b038516036104ac5760405162461bcd60e51b815260206004820152601c60248201527f43616e6e6f742064697370757465207769746820796f757273656c66000000006044820152606401610231565b6104ba600180546001019055565b60006104c560015490565b60008181526002602081905260409091208281556001808201805494955091938a9360ff199091169190849081111561050057610500611392565b0217905550600181018054610100600160a81b03191633610100021790556002810180546001600160a01b0319166001600160a01b038816179055600381018590556004810161055085826114e6565b5060058101805460ff19169055426006820155604080516001808252818301909252600091602080830190803683370190505090503081600081518110610599576105996115c8565b6001600160a01b0392909216602092830291909101909101526040805160018082528183019092526000918160200160208202803683370190505090506000816000815181106105eb576105eb6115c8565b6020908102919091010152604080516001808252818301909252600091816020015b606081526020019060019003908161060d579050506040516024810187905260016044820152606060648201526000608482015290915060a40160408051601f198184030181529190526020810180516001600160e01b0316632840662d60e01b17905281518290600090610684576106846115c8565b6020026020010181905250600085886040516020016106a49291906115de565b60408051601f1981840301815290829052600354633eaf40f160e11b83529092506000916001600160a01b0390911690637d5e81e2906106ee908890889088908890600401611621565b6020604051808303816000875af115801561070d573d6000803e3d6000fd5b505050506040513d601f19601f8201168201806040525081019061073191906116eb565b90508086600a01819055508a6001600160a01b0316336001600160a01b0316887fde5bce5e77d1d32f455a1d7b3d943a64966335cf1c5596050a3e6194a7462a418f8e604051610782929190611704565b60405180910390a450949550505050505061079d6001600055565b949350505050565b600083815260026020526040812090600582015460ff1660028111156107cd576107cd611392565b1461080f5760405162461bcd60e51b815260206004820152601260248201527144697370757465206e6f742061637469766560701b6044820152606401610231565b600181015461010090046001600160a01b031633148061083b575060028101546001600160a01b031633145b6108805760405162461bcd60e51b81526020600482015260166024820152754e6f74206120706172747920746f206469737075746560501b6044820152606401610231565b62093a8081600601546108939190611731565b4211156108e25760405162461bcd60e51b815260206004820181905260248201527f45766964656e6365207375626d697373696f6e20706572696f6420656e6465646044820152606401610231565b336000908152600982016020908152604080832081516060810183528781528084018790524292810192909252805460018101825590845291909220825160039092020190819061093390826114e6565b506020820151600182019061094890826114e6565b50604082015181600201555050336001600160a01b0316847fa49e7517d2b5714f7812f718444c5a2931d4fc670ed2d2aa2426ff2f42c5b44d8460405161098f919061174a565b60405180910390a350505050565b60008281526002602090815260408083206001600160a01b03851684526009019091529020805460609182918291908067ffffffffffffffff8111156109e5576109e5611039565b604051908082528060200260200182016040528015610a1857816020015b6060815260200190600190039081610a035790505b5094508067ffffffffffffffff811115610a3457610a34611039565b604051908082528060200260200182016040528015610a6757816020015b6060815260200190600190039081610a525790505b5093508067ffffffffffffffff811115610a8357610a83611039565b604051908082528060200260200182016040528015610aac578160200160208202803683370190505b50925060005b81811015610c9f57828181548110610acc57610acc6115c8565b90600052602060002090600302016000018054610ae89061145d565b80601f0160208091040260200160405190810160405280929190818152602001828054610b149061145d565b8015610b615780601f10610b3657610100808354040283529160200191610b61565b820191906000526020600020905b815481529060010190602001808311610b4457829003601f168201915b5050505050868281518110610b7857610b786115c8565b6020026020010181905250828181548110610b9557610b956115c8565b90600052602060002090600302016001018054610bb19061145d565b80601f0160208091040260200160405190810160405280929190818152602001828054610bdd9061145d565b8015610c2a5780601f10610bff57610100808354040283529160200191610c2a565b820191906000526020600020905b815481529060010190602001808311610c0d57829003601f168201915b5050505050858281518110610c4157610c416115c8565b6020026020010181905250828181548110610c5e57610c5e6115c8565b906000526020600020906003020160020154848281518110610c8257610c826115c8565b602090810291909101015280610c9781611764565b915050610ab2565b5050509250925092565b600260208190526000918252604090912080546001820154928201546003830154600484018054939560ff8116956101009091046001600160a01b0390811695941693909190610cf89061145d565b80601f0160208091040260200160405190810160405280929190818152602001828054610d249061145d565b8015610d715780601f10610d4657610100808354040283529160200191610d71565b820191906000526020600020905b815481529060010190602001808311610d5457829003601f168201915b505050600584015460068501546007860154600887018054969760ff9094169692955090935090610da19061145d565b80601f0160208091040260200160405190810160405280929190818152602001828054610dcd9061145d565b8015610e1a5780601f10610def57610100808354040283529160200191610e1a565b820191906000526020600020905b815481529060010190602001808311610dfd57829003601f168201915b50505050509080600a015490508b565b6000818152600260208190526040822080546001820154928201546003830154600584015460068501546007860154600a8701546004880180548b9a8b9a8b9a8b9a60609a8c9a8b9a8b9a8e9a8c9a9799969860ff808216996101009092046001600160a01b039081169998169791951693929160088c01918690610eae9061145d565b80601f0160208091040260200160405190810160405280929190818152602001828054610eda9061145d565b8015610f275780601f10610efc57610100808354040283529160200191610f27565b820191906000526020600020905b815481529060010190602001808311610f0a57829003601f168201915b50505050509550818054610f3a9061145d565b80601f0160208091040260200160405190810160405280929190818152602001828054610f669061145d565b8015610fb35780601f10610f8857610100808354040283529160200191610fb3565b820191906000526020600020905b815481529060010190602001808311610f9657829003601f168201915b505050505091509b509b509b509b509b509b509b509b509b509b509b505091939597999b90929496989a50565b6002600054036110325760405162461bcd60e51b815260206004820152601f60248201527f5265656e7472616e637947756172643a207265656e7472616e742063616c6c006044820152606401610231565b6002600055565b634e487b7160e01b600052604160045260246000fd5b600082601f83011261106057600080fd5b813567ffffffffffffffff8082111561107b5761107b611039565b604051601f8301601f19908116603f011681019082821181831017156110a3576110a3611039565b816040528381528660208588010111156110bc57600080fd5b836020870160208301376000602085830101528094505050505092915050565b6000806000606084860312156110f157600080fd5b833592506020840135801515811461110857600080fd5b9150604084013567ffffffffffffffff81111561112457600080fd5b6111308682870161104f565b9150509250925092565b80356001600160a01b038116811461115157600080fd5b919050565b6000806000806080858703121561116c57600080fd5b84356003811061117b57600080fd5b93506111896020860161113a565b925060408501359150606085013567ffffffffffffffff8111156111ac57600080fd5b6111b88782880161104f565b91505092959194509250565b6000806000606084860312156111d957600080fd5b83359250602084013567ffffffffffffffff808211156111f857600080fd5b6112048783880161104f565b9350604086013591508082111561121a57600080fd5b506111308682870161104f565b6000806040838503121561123a57600080fd5b8235915061124a6020840161113a565b90509250929050565b60005b8381101561126e578181015183820152602001611256565b50506000910152565b6000815180845261128f816020860160208601611253565b601f01601f19169290920160200192915050565b600082825180855260208086019550808260051b84010181860160005b848110156112ee57601f198684030189526112dc838351611277565b988401989250908301906001016112c0565b5090979650505050505050565b600081518084526020808501945080840160005b8381101561132b5781518752958201959082019060010161130f565b509495945050505050565b60608152600061134960608301866112a3565b828103602084015261135b81866112a3565b9050828103604084015261136f81856112fb565b9695505050505050565b60006020828403121561138b57600080fd5b5035919050565b634e487b7160e01b600052602160045260246000fd5b600381106113c657634e487b7160e01b600052602160045260246000fd5b50565b60006101608d83526113da8d6113a8565b602083018d90526001600160a01b038c811660408501528b166060840152608083018a905260a083018190526114128184018a611277565b905061141d886113a8565b8760c08401528660e0840152856101008401528281036101208401526114438186611277565b915050826101408301529c9b505050505050505050505050565b600181811c9082168061147157607f821691505b60208210810361149157634e487b7160e01b600052602260045260246000fd5b50919050565b601f8211156114e157600081815260208120601f850160051c810160208610156114be5750805b601f850160051c820191505b818110156114dd578281556001016114ca565b5050505b505050565b815167ffffffffffffffff81111561150057611500611039565b6115148161150e845461145d565b84611497565b602080601f83116001811461154957600084156115315750858301515b600019600386901b1c1916600185901b1785556114dd565b600085815260208120601f198616915b8281101561157857888601518255948401946001909101908401611559565b50858210156115965787850151600019600388901b60f8161c191681555b5050505050600190811b01905550565b6115af836113a8565b82815260406020820152600061079d6040830184611277565b634e487b7160e01b600052603260045260246000fd5b6844697370757465202360b81b81528260098201526101d160f51b60298201526000825161161381602b850160208701611253565b91909101602b019392505050565b6080808252855190820181905260009060209060a0840190828901845b828110156116635781516001600160a01b03168452928401929084019060010161163e565b5050508381038285015261167781886112fb565b905083810360408501528086518083528383019150838160051b84010184890160005b838110156116c857601f198684030185526116b6838351611277565b9487019492509086019060010161169a565b505086810360608801526116dc8189611277565b9b9a5050505050505050505050565b6000602082840312156116fd57600080fd5b5051919050565b60408101611711846113a8565b9281526020015290565b634e487b7160e01b600052601160045260246000fd5b808201808211156117445761174461171b565b92915050565b60208152600061175d6020830184611277565b9392505050565b6000600182016117765761177661171b565b506001019056fea264697066735822122039f6e53cfa94d128c92a657a950cafba0eea8e3299c066ca75840ca9fad4833264736f6c63430008110033",
  "linkReferences": {},
  "deployedLinkReferences": {}
}