{
  "_format": "hh-sol-artifact-1",
  "contractName": "IPAsset",
  "sourceName": "contracts/IPAsset.sol",
  "abi": [
    {
      "inputs": [],
      "stateMutability": "nonpayable",
      "type": "constructor"
    },
    {
      "anonymous": false,
      "inputs": [
        {
          "indexed": true,
          "internalType": "address",
          "name": "owner",
          "type": "address"
        },
        {
          "indexed": true,
          "internalType": "address",
          "name": "approved",
          "type": "address"
        },
        {
          "indexed": true,
          "internalType": "uint256",
          "name": "tokenId",
          "type": "uint256"
        }
      ],
      "name": "Approval",
      "type": "event"
    },
    {
      "anonymous": false,
      "inputs": [
        {
          "indexed": true,
          "internalType": "address",
          "name": "owner",
          "type": "address"
        },
        {
          "indexed": true,
          "internalType": "address",
          "name": "operator",
          "type": "address"
        },
        {
          "indexed": false,
          "internalType": "bool",
          "name": "approved",
          "type": "bool"
        }
      ],
      "name": "ApprovalForAll",
      "type": "event"
    },
    {
      "anonymous": false,
      "inputs": [
        {
          "indexed": false,
          "internalType": "uint256",
          "name": "_fromTokenId",
          "type": "uint256"
        },
        {
          "indexed": false,
          "internalType": "uint256",
          "name": "_toTokenId",
          "type": "uint256"
        }
      ],
      "name": "BatchMetadataUpdate",
      "type": "event"
    },
    {
      "anonymous": false,
      "inputs": [
        {
          "indexed": false,
          "internalType": "uint256",
          "name": "_tokenId",
          "type": "uint256"
        }
      ],
      "name": "MetadataUpdate",
      "type": "event"
    },
    {
      "anonymous": false,
      "inputs": [
        {
          "indexed": true,
          "internalType": "address",
          "name": "from",
          "type": "address"
        },
        {
          "indexed": true,
          "internalType": "address",
          "name": "to",
          "type": "address"
        },
        {
          "indexed": true,
          "internalType": "uint256",
          "name": "tokenId",
          "type": "uint256"
        }
      ],
      "name": "Transfer",
      "type": "event"
    },
    {
      "inputs": [],
      "name": "MODULE_TYPE",
      "outputs": [
        {
          "internalType": "bytes32",
          "name": "",
          "type": "bytes32"
        }
      ],
      "stateMutability": "view",
      "type": "function"
    },
    {
      "inputs": [
        {
          "internalType": "address",
          "name": "to",
          "type": "address"
        },
        {
          "internalType": "uint256",
          "name": "tokenId",
          "type": "uint256"
        }
      ],
      "name": "approve",
      "outputs": [],
      "stateMutability": "nonpayable",
      "type": "function"
    },
    {
      "inputs": [
        {
          "internalType": "address",
          "name": "owner",
          "type": "address"
        }
      ],
      "name": "balanceOf",
      "outputs": [
        {
          "internalType": "uint256",
          "name": "",
          "type": "uint256"
        }
      ],
      "stateMutability": "view",
      "type": "function"
    },
    {
      "inputs": [
        {
          "internalType": "uint256",
          "name": "parentTokenId",
          "type": "uint256"
        },
        {
          "components": [
            {
              "internalType": "string",
              "name": "title",
              "type": "string"
            },
            {
              "internalType": "string",
              "name": "description",
              "type": "string"
            },
            {
              "internalType": "string",
              "name": "contentURI",
              "type": "string"
            },
            {
              "internalType": "string[]",
              "name": "tags",
              "type": "string[]"
            },
            {
              "internalType": "string",
              "name": "category",
              "type": "string"
            },
            {
              "internalType": "uint256",
              "name": "createdAt",
              "type": "uint256"
            }
          ],
          "internalType": "struct IIPAsset.IPMetadata",
          "name": "metadata",
          "type": "tuple"
        }
      ],
      "name": "createDerivativeIP",
      "outputs": [
        {
          "internalType": "uint256",
          "name": "",
          "type": "uint256"
        }
      ],
      "stateMutability": "nonpayable",
      "type": "function"
    },
    {
      "inputs": [
        {
          "components": [
            {
              "internalType": "string",
              "name": "title",
              "type": "string"
            },
            {
              "internalType": "string",
              "name": "description",
              "type": "string"
            },
            {
              "internalType": "string",
              "name": "contentURI",
              "type": "string"
            },
            {
              "internalType": "string[]",
              "name": "tags",
              "type": "string[]"
            },
            {
              "internalType": "string",
              "name": "category",
              "type": "string"
            },
            {
              "internalType": "uint256",
              "name": "createdAt",
              "type": "uint256"
            }
          ],
          "internalType": "struct IIPAsset.IPMetadata",
          "name": "metadata",
          "type": "tuple"
        }
      ],
      "name": "createIP",
      "outputs": [
        {
          "internalType": "uint256",
          "name": "",
          "type": "uint256"
        }
      ],
      "stateMutability": "nonpayable",
      "type": "function"
    },
    {
      "inputs": [
        {
          "internalType": "uint256",
          "name": "tokenId",
          "type": "uint256"
        }
      ],
      "name": "getApproved",
      "outputs": [
        {
          "internalType": "address",
          "name": "",
          "type": "address"
        }
      ],
      "stateMutability": "view",
      "type": "function"
    },
    {
      "inputs": [
        {
          "internalType": "uint256",
          "name": "tokenId",
          "type": "uint256"
        }
      ],
      "name": "getDerivatives",
      "outputs": [
        {
          "internalType": "uint256[]",
          "name": "",
          "type": "uint256[]"
        }
      ],
      "stateMutability": "view",
      "type": "function"
    },
    {
      "inputs": [
        {
          "internalType": "uint256",
          "name": "tokenId",
          "type": "uint256"
        }
      ],
      "name": "getIPMetadata",
      "outputs": [
        {
          "components": [
            {
              "internalType": "string",
              "name": "title",
              "type": "string"
            },
            {
              "internalType": "string",
              "name": "description",
              "type": "string"
            },
            {
              "internalType": "string",
              "name": "contentURI",
              "type": "string"
            },
            {
              "internalType": "string[]",
              "name": "tags",
              "type": "string[]"
            },
            {
              "internalType": "string",
              "name": "category",
              "type": "string"
            },
            {
              "internalType": "uint256",
              "name": "createdAt",
              "type": "uint256"
            }
          ],
          "internalType": "struct IIPAsset.IPMetadata",
          "name": "",
          "type": "tuple"
        }
      ],
      "stateMutability": "view",
      "type": "function"
    },
    {
      "inputs": [],
      "name": "getModuleType",
      "outputs": [
        {
          "internalType": "bytes32",
          "name": "",
          "type": "bytes32"
        }
      ],
      "stateMutability": "pure",
      "type": "function"
    },
    {
      "inputs": [
        {
          "internalType": "uint256",
          "name": "tokenId",
          "type": "uint256"
        }
      ],
      "name": "getParentToken",
      "outputs": [
        {
          "internalType": "uint256",
          "name": "",
          "type": "uint256"
        }
      ],
      "stateMutability": "view",
      "type": "function"
    },
    {
      "inputs": [
        {
          "internalType": "address",
          "name": "registryAddress",
          "type": "address"
        }
      ],
      "name": "initialize",
      "outputs": [],
      "stateMutability": "nonpayable",
      "type": "function"
    },
    {
      "inputs": [
        {
          "internalType": "address",
          "name": "owner",
          "type": "address"
        },
        {
          "internalType": "address",
          "name": "operator",
          "type": "address"
        }
      ],
      "name": "isApprovedForAll",
      "outputs": [
        {
          "internalType": "bool",
          "name": "",
          "type": "bool"
        }
      ],
      "stateMutability": "view",
      "type": "function"
    },
    {
      "inputs": [
        {
          "internalType": "uint256",
          "name": "tokenId",
          "type": "uint256"
        },
        {
          "internalType": "address",
          "name": "account",
          "type": "address"
        }
      ],
      "name": "isIPOwner",
      "outputs": [
        {
          "internalType": "bool",
          "name": "",
          "type": "bool"
        }
      ],
      "stateMutability": "view",
      "type": "function"
    },
    {
      "inputs": [],
      "name": "name",
      "outputs": [
        {
          "internalType": "string",
          "name": "",
          "type": "string"
        }
      ],
      "stateMutability": "view",
      "type": "function"
    },
    {
      "inputs": [
        {
          "internalType": "uint256",
          "name": "tokenId",
          "type": "uint256"
        }
      ],
      "name": "ownerOf",
      "outputs": [
        {
          "internalType": "address",
          "name": "",
          "type": "address"
        }
      ],
      "stateMutability": "view",
      "type": "function"
    },
    {
      "inputs": [],
      "name": "registry",
      "outputs": [
        {
          "internalType": "contract Registry",
          "name": "",
          "type": "address"
        }
      ],
      "stateMutability": "view",
      "type": "function"
    },
    {
      "inputs": [
        {
          "internalType": "address",
          "name": "from",
          "type": "address"
        },
        {
          "internalType": "address",
          "name": "to",
          "type": "address"
        },
        {
          "internalType": "uint256",
          "name": "tokenId",
          "type": "uint256"
        }
      ],
      "name": "safeTransferFrom",
      "outputs": [],
      "stateMutability": "nonpayable",
      "type": "function"
    },
    {
      "inputs": [
        {
          "internalType": "address",
          "name": "from",
          "type": "address"
        },
        {
          "internalType": "address",
          "name": "to",
          "type": "address"
        },
        {
          "internalType": "uint256",
          "name": "tokenId",
          "type": "uint256"
        },
        {
          "internalType": "bytes",
          "name": "data",
          "type": "bytes"
        }
      ],
      "name": "safeTransferFrom",
      "outputs": [],
      "stateMutability": "nonpayable",
      "type": "function"
    },
    {
      "inputs": [
        {
          "internalType": "address",
          "name": "operator",
          "type": "address"
        },
        {
          "internalType": "bool",
          "name": "approved",
          "type": "bool"
        }
      ],
      "name": "setApprovalForAll",
      "outputs": [],
      "stateMutability": "nonpayable",
      "type": "function"
    },
    {
      "inputs": [
        {
          "internalType": "bytes4",
          "name": "interfaceId",
          "type": "bytes4"
        }
      ],
      "name": "supportsInterface",
      "outputs": [
        {
          "internalType": "bool",
          "name": "",
          "type": "bool"
        }
      ],
      "stateMutability": "view",
      "type": "function"
    },
    {
      "inputs": [],
      "name": "symbol",
      "outputs": [
        {
          "internalType": "string",
          "name": "",
          "type": "string"
        }
      ],
      "stateMutability": "view",
      "type": "function"
    },
    {
      "inputs": [
        {
          "internalType": "uint256",
          "name": "tokenId",
          "type": "uint256"
        }
      ],
      "name": "tokenURI",
      "outputs": [
        {
          "internalType": "string",
          "name": "",
          "type": "string"
        }
      ],
      "stateMutability": "view",
      "type": "function"
    },
    {
      "inputs": [
        {
          "internalType": "address",
          "name": "from",
          "type": "address"
        },
        {
          "internalType": "address",
          "name": "to",
          "type": "address"
        },
        {
          "internalType": "uint256",
          "name": "tokenId",
          "type": "uint256"
        }
      ],
      "name": "transferFrom",
      "outputs": [],
      "stateMutability": "nonpayable",
      "type": "function"
    },
    {
      "inputs": [
        {
          "internalType": "uint256",
          "name": "tokenId",
          "type": "uint256"
        },
        {
          "components": [
            {
              "internalType": "string",
              "name": "title",
              "type": "string"
            },
            {
              "internalType": "string",
              "name": "description",
              "type": "string"
            },
            {
              "internalType": "string",
              "name": "contentURI",
              "type": "string"
            },
            {
              "internalType": "string[]",
              "name": "tags",
              "type": "string[]"
            },
            {
              "internalType": "string",
              "name": "category",
              "type": "string"
            },
            {
              "internalType": "uint256",
              "name": "createdAt",
              "type": "uint256"
            }
          ],
          "internalType": "struct IIPAsset.IPMetadata",
          "name": "metadata",
          "type": "tuple"
        }
      ],
      "name": "updateIPMetadata",
      "outputs": [],
      "stateMutability": "nonpayable",
      "type": "function"
    }
  ],
  "bytecode": "0x60806040523480156200001157600080fd5b506040518060400160405280600f81526020016e1399589d5b1848125408105cdcd95d608a1b815250604051806040016040528060048152602001634e49504160e01b815250816000908162000068919062000125565b50600162000077828262000125565b505050620001f1565b634e487b7160e01b600052604160045260246000fd5b600181811c90821680620000ab57607f821691505b602082108103620000cc57634e487b7160e01b600052602260045260246000fd5b50919050565b601f8211156200012057600081815260208120601f850160051c81016020861015620000fb5750805b601f850160051c820191505b818110156200011c5782815560010162000107565b5050505b505050565b81516001600160401b0381111562000141576200014162000080565b620001598162000152845462000096565b84620000d2565b602080601f831160018114620001915760008415620001785750858301515b600019600386901b1c1916600185901b1785556200011c565b600085815260208120601f198616915b82811015620001c257888601518255948401946001909101908401620001a1565b5085821015620001e15787850151600019600388901b60f8161c191681555b5050505050600190811b01905550565b61234080620002016000396000f3fe608060405234801561001057600080fd5b50600436106101585760003560e01c806376f4e8fc116100c3578063c6f706c01161007c578063c6f706c014610317578063c87b56dd1461032a578063cc3e3de01461033d578063d98bb08714610350578063e8216eb514610363578063e985e9c51461038357600080fd5b806376f4e8fc146102b05780637b103999146102c357806395d89b41146102d6578063a22cb465146102de578063b88d4fde146102f1578063c4d66de81461030457600080fd5b806342842e0e1161011557806342842e0e1461021d578063470eda83146102305780635775029f146102435780636352211e1461026a5780636da4d7391461027d57806370a082311461029d57600080fd5b806301ffc9a71461015d57806306fdde0314610185578063081812fc1461019a578063095ea7b3146101c55780630b9349b9146101da57806323b872dd1461020a575b600080fd5b61017061016b36600461189e565b6103bf565b60405190151581526020015b60405180910390f35b61018d6103ea565b60405161017c919061190b565b6101ad6101a836600461191e565b61047c565b6040516001600160a01b03909116815260200161017c565b6101d86101d336600461194e565b6104a3565b005b7f0a03fc9e6a2bf33f0b1011d488d44c4ad9dc6227a08becad8d5b89c68e449ee85b60405190815260200161017c565b6101d8610218366004611978565b6105bd565b6101d861022b366004611978565b6105ee565b6101d861023e3660046119cc565b610609565b6101fc7f0a03fc9e6a2bf33f0b1011d488d44c4ad9dc6227a08becad8d5b89c68e449ee881565b6101ad61027836600461191e565b610689565b61029061028b36600461191e565b6106e9565b60405161017c9190611a13565b6101fc6102ab366004611a57565b610770565b6101706102be366004611a72565b6107f6565b6007546101ad906001600160a01b031681565b61018d61081c565b6101d86102ec366004611a9e565b61082b565b6101d86102ff366004611af0565b61083a565b6101d8610312366004611a57565b61086c565b6101fc610325366004611bcc565b61094f565b61018d61033836600461191e565b6109c5565b6101fc61034b3660046119cc565b610ad5565b6101fc61035e36600461191e565b610bdb565b61037661037136600461191e565b610c15565b60405161017c9190611c01565b610170610391366004611ce6565b6001600160a01b03918216600090815260056020908152604080832093909416825291909152205460ff1690565b60006001600160e01b03198216632483248360e11b14806103e457506103e482610fbd565b92915050565b6060600080546103f990611d10565b80601f016020809104026020016040519081016040528092919081815260200182805461042590611d10565b80156104725780601f1061044757610100808354040283529160200191610472565b820191906000526020600020905b81548152906001019060200180831161045557829003601f168201915b5050505050905090565b60006104878261100d565b506000908152600460205260409020546001600160a01b031690565b60006104ae82610689565b9050806001600160a01b0316836001600160a01b0316036105205760405162461bcd60e51b815260206004820152602160248201527f4552433732313a20617070726f76616c20746f2063757272656e74206f776e656044820152603960f91b60648201526084015b60405180910390fd5b336001600160a01b038216148061053c575061053c8133610391565b6105ae5760405162461bcd60e51b815260206004820152603d60248201527f4552433732313a20617070726f76652063616c6c6572206973206e6f7420746f60448201527f6b656e206f776e6572206f7220617070726f76656420666f7220616c6c0000006064820152608401610517565b6105b88383611060565b505050565b6105c733826110ce565b6105e35760405162461bcd60e51b815260040161051790611d44565b6105b883838361114c565b6105b88383836040518060200160405280600081525061083a565b3361061383610689565b6001600160a01b0316146106695760405162461bcd60e51b815260206004820152601c60248201527f495041737365743a204e6f742074686520746f6b656e206f776e6572000000006044820152606401610517565b600082815260096020526040902081906106838282612027565b50505050565b6000818152600260205260408120546001600160a01b0316806103e45760405162461bcd60e51b8152602060048201526018602482015277115490cdcc8c4e881a5b9d985b1a59081d1bdad95b88125160421b6044820152606401610517565b60606106f4826112bd565b6107105760405162461bcd60e51b815260040161051790612171565b6000828152600a60209081526040918290208054835181840281018401909452808452909183018282801561076457602002820191906000526020600020905b815481526020019060010190808311610750575b50505050509050919050565b60006001600160a01b0382166107da5760405162461bcd60e51b815260206004820152602960248201527f4552433732313a2061646472657373207a65726f206973206e6f7420612076616044820152683634b21037bbb732b960b91b6064820152608401610517565b506001600160a01b031660009081526003602052604090205490565b6000816001600160a01b031661080b84610689565b6001600160a01b0316149392505050565b6060600180546103f990611d10565b6108363383836112da565b5050565b61084433836110ce565b6108605760405162461bcd60e51b815260040161051790611d44565b610683848484846113a8565b600754600160a01b900460ff16156108c65760405162461bcd60e51b815260206004820152601f60248201527f4d6f64756c65426173653a20416c726561647920696e697469616c697a6564006044820152606401610517565b6001600160a01b0381166109285760405162461bcd60e51b8152602060048201526024808201527f4d6f64756c65426173653a20496e76616c6964207265676973747279206164646044820152637265737360e01b6064820152608401610517565b600780546001600160a81b0319166001600160a01b0390921691909117600160a01b179055565b600754600090600160a01b900460ff1661097b5760405162461bcd60e51b8152600401610517906121a8565b610989600880546001019055565b600061099460085490565b90506109a033826113db565b600081815260096020526040902083906109ba8282612027565b50909150505b919050565b60606109d08261100d565b600082815260066020526040812080546109e990611d10565b80601f0160208091040260200160405190810160405280929190818152602001828054610a1590611d10565b8015610a625780601f10610a3757610100808354040283529160200191610a62565b820191906000526020600020905b815481529060010190602001808311610a4557829003601f168201915b505050505090506000610a8060408051602081019091526000815290565b90508051600003610a92575092915050565b815115610ac4578082604051602001610aac9291906121ea565b60405160208183030381529060405292505050919050565b610acd846113f5565b949350505050565b600754600090600160a01b900460ff16610b015760405162461bcd60e51b8152600401610517906121a8565b610b0a836112bd565b610b625760405162461bcd60e51b8152602060048201526024808201527f495041737365743a20506172656e7420746f6b656e20646f6573206e6f7420656044820152631e1a5cdd60e21b6064820152608401610517565b610b70600880546001019055565b6000610b7b60085490565b9050610b8733826113db565b60008181526009602052604090208390610ba18282612027565b50506000848152600a60209081526040808320805460018101825590845282842001849055838352600b9091529020849055905092915050565b6000610be6826112bd565b610c025760405162461bcd60e51b815260040161051790612171565b506000908152600b602052604090205490565b610c4e6040518060c001604052806060815260200160608152602001606081526020016060815260200160608152602001600081525090565b610c57826112bd565b610c735760405162461bcd60e51b815260040161051790612171565b60008281526009602052604090819020815160c08101909252805482908290610c9b90611d10565b80601f0160208091040260200160405190810160405280929190818152602001828054610cc790611d10565b8015610d145780601f10610ce957610100808354040283529160200191610d14565b820191906000526020600020905b815481529060010190602001808311610cf757829003601f168201915b50505050508152602001600182018054610d2d90611d10565b80601f0160208091040260200160405190810160405280929190818152602001828054610d5990611d10565b8015610da65780601f10610d7b57610100808354040283529160200191610da6565b820191906000526020600020905b815481529060010190602001808311610d8957829003601f168201915b50505050508152602001600282018054610dbf90611d10565b80601f0160208091040260200160405190810160405280929190818152602001828054610deb90611d10565b8015610e385780601f10610e0d57610100808354040283529160200191610e38565b820191906000526020600020905b815481529060010190602001808311610e1b57829003601f168201915b5050505050815260200160038201805480602002602001604051908101604052809291908181526020016000905b82821015610f12578382906000526020600020018054610e8590611d10565b80601f0160208091040260200160405190810160405280929190818152602001828054610eb190611d10565b8015610efe5780601f10610ed357610100808354040283529160200191610efe565b820191906000526020600020905b815481529060010190602001808311610ee157829003601f168201915b505050505081526020019060010190610e66565b505050508152602001600482018054610f2a90611d10565b80601f0160208091040260200160405190810160405280929190818152602001828054610f5690611d10565b8015610fa35780601f10610f7857610100808354040283529160200191610fa3565b820191906000526020600020905b815481529060010190602001808311610f8657829003601f168201915b505050505081526020016005820154815250509050919050565b60006001600160e01b031982166380ac58cd60e01b1480610fee57506001600160e01b03198216635b5e139f60e01b145b806103e457506301ffc9a760e01b6001600160e01b03198316146103e4565b611016816112bd565b61105d5760405162461bcd60e51b8152602060048201526018602482015277115490cdcc8c4e881a5b9d985b1a59081d1bdad95b88125160421b6044820152606401610517565b50565b600081815260046020526040902080546001600160a01b0319166001600160a01b038416908117909155819061109582610689565b6001600160a01b03167f8c5be1e5ebec7d5bd14f71427d1e84f3dd0314c0f7b2291e5b200ac8c7c3b92560405160405180910390a45050565b6000806110da83610689565b9050806001600160a01b0316846001600160a01b0316148061112157506001600160a01b0380821660009081526005602090815260408083209388168352929052205460ff165b80610acd5750836001600160a01b031661113a8461047c565b6001600160a01b031614949350505050565b826001600160a01b031661115f82610689565b6001600160a01b0316146111855760405162461bcd60e51b815260040161051790612219565b6001600160a01b0382166111e75760405162461bcd60e51b8152602060048201526024808201527f4552433732313a207472616e7366657220746f20746865207a65726f206164646044820152637265737360e01b6064820152608401610517565b6111f48383836001611469565b826001600160a01b031661120782610689565b6001600160a01b03161461122d5760405162461bcd60e51b815260040161051790612219565b600081815260046020908152604080832080546001600160a01b03199081169091556001600160a01b0387811680865260038552838620805460001901905590871680865283862080546001019055868652600290945282852080549092168417909155905184937fddf252ad1be2c89b69c2b068fc378daa952ba7f163c4a11628f55a4df523b3ef91a4505050565b6000908152600260205260409020546001600160a01b0316151590565b816001600160a01b0316836001600160a01b03160361133b5760405162461bcd60e51b815260206004820152601960248201527f4552433732313a20617070726f766520746f2063616c6c6572000000000000006044820152606401610517565b6001600160a01b03838116600081815260056020908152604080832094871680845294825291829020805460ff191686151590811790915591519182527f17307eab39ab6107e8899845ad3d59bd9653f200f220920489ca2b5937696c31910160405180910390a3505050565b6113b384848461114c565b6113bf8484848461146e565b6106835760405162461bcd60e51b81526004016105179061225e565b61083682826040518060200160405280600081525061156f565b60606114008261100d565b600061141760408051602081019091526000815290565b905060008151116114375760405180602001604052806000815250611462565b80611441846115a2565b6040516020016114529291906121ea565b6040516020818303038152906040525b9392505050565b610683565b60006001600160a01b0384163b1561156457604051630a85bd0160e11b81526001600160a01b0385169063150b7a02906114b29033908990889088906004016122b0565b6020604051808303816000875af19250505080156114ed575060408051601f3d908101601f191682019092526114ea918101906122ed565b60015b61154a573d80801561151b576040519150601f19603f3d011682016040523d82523d6000602084013e611520565b606091505b5080516000036115425760405162461bcd60e51b81526004016105179061225e565b805181602001fd5b6001600160e01b031916630a85bd0160e11b149050610acd565b506001949350505050565b6115798383611635565b611586600084848461146e565b6105b85760405162461bcd60e51b81526004016105179061225e565b606060006115af836117b0565b600101905060008167ffffffffffffffff8111156115cf576115cf611ada565b6040519080825280601f01601f1916602001820160405280156115f9576020820181803683370190505b5090508181016020015b600019016f181899199a1a9b1b9c1cb0b131b232b360811b600a86061a8153600a850494508461160357509392505050565b6001600160a01b03821661168b5760405162461bcd60e51b815260206004820181905260248201527f4552433732313a206d696e7420746f20746865207a65726f20616464726573736044820152606401610517565b611694816112bd565b156116e15760405162461bcd60e51b815260206004820152601c60248201527f4552433732313a20746f6b656e20616c7265616479206d696e746564000000006044820152606401610517565b6116ef600083836001611469565b6116f8816112bd565b156117455760405162461bcd60e51b815260206004820152601c60248201527f4552433732313a20746f6b656e20616c7265616479206d696e746564000000006044820152606401610517565b6001600160a01b038216600081815260036020908152604080832080546001019055848352600290915280822080546001600160a01b0319168417905551839291907fddf252ad1be2c89b69c2b068fc378daa952ba7f163c4a11628f55a4df523b3ef908290a45050565b60008072184f03e93ff9f4daa797ed6e38ed64bf6a1f0160401b83106117ef5772184f03e93ff9f4daa797ed6e38ed64bf6a1f0160401b830492506040015b6d04ee2d6d415b85acef8100000000831061181b576d04ee2d6d415b85acef8100000000830492506020015b662386f26fc10000831061183957662386f26fc10000830492506010015b6305f5e1008310611851576305f5e100830492506008015b612710831061186557612710830492506004015b60648310611877576064830492506002015b600a83106103e45760010192915050565b6001600160e01b03198116811461105d57600080fd5b6000602082840312156118b057600080fd5b813561146281611888565b60005b838110156118d65781810151838201526020016118be565b50506000910152565b600081518084526118f78160208601602086016118bb565b601f01601f19169290920160200192915050565b60208152600061146260208301846118df565b60006020828403121561193057600080fd5b5035919050565b80356001600160a01b03811681146109c057600080fd5b6000806040838503121561196157600080fd5b61196a83611937565b946020939093013593505050565b60008060006060848603121561198d57600080fd5b61199684611937565b92506119a460208501611937565b9150604084013590509250925092565b600060c082840312156119c657600080fd5b50919050565b600080604083850312156119df57600080fd5b82359150602083013567ffffffffffffffff8111156119fd57600080fd5b611a09858286016119b4565b9150509250929050565b6020808252825182820181905260009190848201906040850190845b81811015611a4b57835183529284019291840191600101611a2f565b50909695505050505050565b600060208284031215611a6957600080fd5b61146282611937565b60008060408385031215611a8557600080fd5b82359150611a9560208401611937565b90509250929050565b60008060408385031215611ab157600080fd5b611aba83611937565b915060208301358015158114611acf57600080fd5b809150509250929050565b634e487b7160e01b600052604160045260246000fd5b60008060008060808587031215611b0657600080fd5b611b0f85611937565b9350611b1d60208601611937565b925060408501359150606085013567ffffffffffffffff80821115611b4157600080fd5b818701915087601f830112611b5557600080fd5b813581811115611b6757611b67611ada565b604051601f8201601f19908116603f01168101908382118183101715611b8f57611b8f611ada565b816040528281528a6020848701011115611ba857600080fd5b82602086016020830137600060208483010152809550505050505092959194509250565b600060208284031215611bde57600080fd5b813567ffffffffffffffff811115611bf557600080fd5b610acd848285016119b4565b60006020808352835160c082850152611c1d60e08501826118df565b905081850151601f1980868403016040870152611c3a83836118df565b92506040870151915080868403016060870152611c5783836118df565b60608801518782038301608089015280518083529194508501925084840190600581901b8501860160005b82811015611cae5784878303018452611c9c8287516118df565b95880195938801939150600101611c82565b5060808a01519650838982030160a08a0152611cca81886118df565b965050505050505060a084015160c08401528091505092915050565b60008060408385031215611cf957600080fd5b611d0283611937565b9150611a9560208401611937565b600181811c90821680611d2457607f821691505b6020821081036119c657634e487b7160e01b600052602260045260246000fd5b6020808252602d908201527f4552433732313a2063616c6c6572206973206e6f7420746f6b656e206f776e6560408201526c1c881bdc88185c1c1c9bdd9959609a1b606082015260800190565b6000808335601e19843603018112611da857600080fd5b83018035915067ffffffffffffffff821115611dc357600080fd5b602001915036819003821315611dd857600080fd5b9250929050565b5b818110156108365760008155600101611de0565b601f8211156105b857806000526020600020601f840160051c81016020851015611e1b5750805b611e2d601f850160051c830182611ddf565b5050505050565b67ffffffffffffffff831115611e4c57611e4c611ada565b611e6083611e5a8354611d10565b83611df4565b6000601f841160018114611e945760008515611e7c5750838201355b600019600387901b1c1916600186901b178355611e2d565b600083815260209020601f19861690835b82811015611ec55786850135825560209485019460019092019101611ea5565b5086821015611ee25760001960f88860031b161c19848701351681555b505060018560011b0183555050505050565b6000808335601e19843603018112611f0b57600080fd5b83018035915067ffffffffffffffff821115611f2657600080fd5b6020019150600581901b3603821315611dd857600080fd5b68010000000000000000831115611f5757611f57611ada565b805483825580841015611fe0576000828152602081208581019083015b80821015611fdc57611f868254611d10565b8015611fd057601f80821160018114611fa157858555611fcd565b600085815260209020611fbe83850160051c820160018301611ddf565b50600085815260208120818755555b50505b50600182019150611f74565b5050505b5060008181526020812083915b8581101561201f57611fff8386611d91565b61200a818386611e34565b50506020929092019160019182019101611fed565b505050505050565b6120318283611d91565b67ffffffffffffffff81111561204957612049611ada565b61205d816120578554611d10565b85611df4565b6000601f82116001811461209157600083156120795750838201355b600019600385901b1c1916600184901b1785556120eb565b600085815260209020601f19841690835b828110156120c257868501358255602094850194600190920191016120a2565b50848210156120df5760001960f88660031b161c19848701351681555b505060018360011b0185555b505050506120fc6020830183611d91565b61210a818360018601611e34565b50506121196040830183611d91565b612127818360028601611e34565b50506121366060830183611ef4565b612144818360038601611f3e565b50506121536080830183611d91565b612161818360048601611e34565b505060a082013560058201555050565b6020808252601d908201527f495041737365743a20546f6b656e20646f6573206e6f74206578697374000000604082015260600190565b60208082526022908201527f4d6f64756c65426173653a204d6f64756c65206e6f7420696e697469616c697a604082015261195960f21b606082015260800190565b600083516121fc8184602088016118bb565b8351908301906122108183602088016118bb565b01949350505050565b60208082526025908201527f4552433732313a207472616e736665722066726f6d20696e636f72726563742060408201526437bbb732b960d91b606082015260800190565b60208082526032908201527f4552433732313a207472616e7366657220746f206e6f6e20455243373231526560408201527131b2b4bb32b91034b6b83632b6b2b73a32b960711b606082015260800190565b6001600160a01b03858116825284166020820152604081018390526080606082018190526000906122e3908301846118df565b9695505050505050565b6000602082840312156122ff57600080fd5b81516114628161188856fea26469706673582212205e7fb4f4db753a27d3fda3ec746bc308d2c3bc9abae62aafe88a5896f29c728764736f6c63430008110033",
  "linkReferences": {},
  "deployedLinkReferences": {}
}