{
  "_format": "hh-sol-artifact-1",
  "contractName": "IPMarketplace",
  "sourceName": "contracts/IPMarketplace.sol",
  "abi": [
    {
      "inputs": [
        {
          "internalType": "address",
          "name": "_ipTokenAddress",
          "type": "address"
        },
        {
          "internalType": "address",
          "name": "_platformWallet",
          "type": "address"
        }
      ],
      "stateMutability": "nonpayable",
      "type": "constructor"
    },
    {
      "anonymous": false,
      "inputs": [
        {
          "indexed": true,
          "internalType": "uint256",
          "name": "tokenId",
          "type": "uint256"
        },
        {
          "indexed": true,
          "internalType": "address",
          "name": "licensee",
          "type": "address"
        },
        {
          "indexed": false,
          "internalType": "uint256",
          "name": "expirationTime",
          "type": "uint256"
        }
      ],
      "name": "LicenseGranted",
      "type": "event"
    },
    {
      "anonymous": false,
      "inputs": [
        {
          "indexed": true,
          "internalType": "uint256",
          "name": "listingId",
          "type": "uint256"
        },
        {
          "indexed": true,
          "internalType": "uint256",
          "name": "tokenId",
          "type": "uint256"
        },
        {
          "indexed": false,
          "internalType": "address",
          "name": "seller",
          "type": "address"
        },
        {
          "indexed": false,
          "internalType": "uint256",
          "name": "price",
          "type": "uint256"
        },
        {
          "indexed": false,
          "internalType": "bool",
          "name": "isLicense",
          "type": "bool"
        }
      ],
      "name": "ListingCreated",
      "type": "event"
    },
    {
      "anonymous": false,
      "inputs": [
        {
          "indexed": true,
          "internalType": "uint256",
          "name": "listingId",
          "type": "uint256"
        },
        {
          "indexed": true,
          "internalType": "uint256",
          "name": "tokenId",
          "type": "uint256"
        },
        {
          "indexed": false,
          "internalType": "address",
          "name": "buyer",
          "type": "address"
        },
        {
          "indexed": false,
          "internalType": "uint256",
          "name": "price",
          "type": "uint256"
        }
      ],
      "name": "ListingPurchased",
      "type": "event"
    },
    {
      "inputs": [
        {
          "internalType": "uint256",
          "name": "listingId",
          "type": "uint256"
        }
      ],
      "name": "cancelListing",
      "outputs": [],
      "stateMutability": "nonpayable",
      "type": "function"
    },
    {
      "inputs": [
        {
          "internalType": "uint256",
          "name": "tokenId",
          "type": "uint256"
        },
        {
          "internalType": "uint256",
          "name": "price",
          "type": "uint256"
        },
        {
          "internalType": "bool",
          "name": "isLicense",
          "type": "bool"
        },
        {
          "internalType": "uint256",
          "name": "licenseDuration",
          "type": "uint256"
        }
      ],
      "name": "createListing",
      "outputs": [],
      "stateMutability": "nonpayable",
      "type": "function"
    },
    {
      "inputs": [
        {
          "internalType": "uint256",
          "name": "startId",
          "type": "uint256"
        },
        {
          "internalType": "uint256",
          "name": "pageSize",
          "type": "uint256"
        }
      ],
      "name": "getActiveListings",
      "outputs": [
        {
          "components": [
            {
              "internalType": "uint256",
              "name": "listingId",
              "type": "uint256"
            },
            {
              "internalType": "uint256",
              "name": "tokenId",
              "type": "uint256"
            },
            {
              "internalType": "address",
              "name": "seller",
              "type": "address"
            },
            {
              "internalType": "uint256",
              "name": "price",
              "type": "uint256"
            },
            {
              "internalType": "bool",
              "name": "isActive",
              "type": "bool"
            },
            {
              "internalType": "bool",
              "name": "isLicense",
              "type": "bool"
            },
            {
              "internalType": "uint256",
              "name": "licenseDuration",
              "type": "uint256"
            }
          ],
          "internalType": "struct IPMarketplace.Listing[]",
          "name": "",
          "type": "tuple[]"
        }
      ],
      "stateMutability": "view",
      "type": "function"
    },
    {
      "inputs": [
        {
          "internalType": "uint256",
          "name": "listingId",
          "type": "uint256"
        }
      ],
      "name": "getListing",
      "outputs": [
        {
          "components": [
            {
              "internalType": "uint256",
              "name": "listingId",
              "type": "uint256"
            },
            {
              "internalType": "uint256",
              "name": "tokenId",
              "type": "uint256"
            },
            {
              "internalType": "address",
              "name": "seller",
              "type": "address"
            },
            {
              "internalType": "uint256",
              "name": "price",
              "type": "uint256"
            },
            {
              "internalType": "bool",
              "name": "isActive",
              "type": "bool"
            },
            {
              "internalType": "bool",
              "name": "isLicense",
              "type": "bool"
            },
            {
              "internalType": "uint256",
              "name": "licenseDuration",
              "type": "uint256"
            }
          ],
          "internalType": "struct IPMarketplace.Listing",
          "name": "",
          "type": "tuple"
        }
      ],
      "stateMutability": "view",
      "type": "function"
    },
    {
      "inputs": [
        {
          "internalType": "uint256",
          "name": "tokenId",
          "type": "uint256"
        },
        {
          "internalType": "address",
          "name": "licensee",
          "type": "address"
        }
      ],
      "name": "hasValidLicense",
      "outputs": [
        {
          "internalType": "bool",
          "name": "",
          "type": "bool"
        }
      ],
      "stateMutability": "view",
      "type": "function"
    },
    {
      "inputs": [],
      "name": "ipToken",
      "outputs": [
        {
          "internalType": "contract IERC721",
          "name": "",
          "type": "address"
        }
      ],
      "stateMutability": "view",
      "type": "function"
    },
    {
      "inputs": [
        {
          "internalType": "uint256",
          "name": "",
          "type": "uint256"
        },
        {
          "internalType": "address",
          "name": "",
          "type": "address"
        }
      ],
      "name": "licenseExpirations",
      "outputs": [
        {
          "internalType": "uint256",
          "name": "",
          "type": "uint256"
        }
      ],
      "stateMutability": "view",
      "type": "function"
    },
    {
      "inputs": [
        {
          "internalType": "uint256",
          "name": "",
          "type": "uint256"
        }
      ],
      "name": "listings",
      "outputs": [
        {
          "internalType": "uint256",
          "name": "listingId",
          "type": "uint256"
        },
        {
          "internalType": "uint256",
          "name": "tokenId",
          "type": "uint256"
        },
        {
          "internalType": "address",
          "name": "seller",
          "type": "address"
        },
        {
          "internalType": "uint256",
          "name": "price",
          "type": "uint256"
        },
        {
          "internalType": "bool",
          "name": "isActive",
          "type": "bool"
        },
        {
          "internalType": "bool",
          "name": "isLicense",
          "type": "bool"
        },
        {
          "internalType": "uint256",
          "name": "licenseDuration",
          "type": "uint256"
        }
      ],
      "stateMutability": "view",
      "type": "function"
    },
    {
      "inputs": [],
      "name": "platformFee",
      "outputs": [
        {
          "internalType": "uint256",
          "name": "",
          "type": "uint256"
        }
      ],
      "stateMutability": "view",
      "type": "function"
    },
    {
      "inputs": [],
      "name": "platformWallet",
      "outputs": [
        {
          "internalType": "address",
          "name": "",
          "type": "address"
        }
      ],
      "stateMutability": "view",
      "type": "function"
    },
    {
      "inputs": [
        {
          "internalType": "uint256",
          "name": "listingId",
          "type": "uint256"
        }
      ],
      "name": "purchaseListing",
      "outputs": [],
      "stateMutability": "payable",
      "type": "function"
    }
  ],
  "bytecode": "0x6080604052601960055534801561001557600080fd5b506040516110a13803806110a183398101604081905261003491610086565b6001600055600480546001600160a01b039384166001600160a01b031991821617909155600680549290931691161790556100b9565b80516001600160a01b038116811461008157600080fd5b919050565b6000806040838503121561009957600080fd5b6100a28361006a565b91506100b06020840161006a565b90509250929050565b610fd9806100c86000396000f3fe60806040526004361061009c5760003560e01c806374924cea1161006457806374924cea14610168578063ba35971e14610198578063c128b231146101d0578063de74e57b146101fd578063f056ba84146102ab578063fa2af9da146102cb57600080fd5b8063107a274a146100a1578063169d5a7d146100d757806326232a2e146100ec5780632f5ea02514610110578063305a67a814610148575b600080fd5b3480156100ad57600080fd5b506100c16100bc366004610d57565b6102eb565b6040516100ce9190610dbe565b60405180910390f35b6100ea6100e5366004610d57565b610367565b005b3480156100f857600080fd5b5061010260055481565b6040519081526020016100ce565b34801561011c57600080fd5b5061010261012b366004610de1565b600360209081526000928352604080842090915290825290205481565b34801561015457600080fd5b506100ea610163366004610d57565b610616565b34801561017457600080fd5b50610188610183366004610de1565b610758565b60405190151581526020016100ce565b3480156101a457600080fd5b506004546101b8906001600160a01b031681565b6040516001600160a01b0390911681526020016100ce565b3480156101dc57600080fd5b506101f06101eb366004610e11565b610784565b6040516100ce9190610e33565b34801561020957600080fd5b50610266610218366004610d57565b60026020819052600091825260409091208054600182015492820154600383015460048401546005909401549294936001600160a01b0390921692909160ff80821692610100909204169087565b6040805197885260208801969096526001600160a01b039094169486019490945260608501919091521515608084015290151560a083015260c082015260e0016100ce565b3480156102b757600080fd5b506100ea6102c6366004610e81565b610a0c565b3480156102d757600080fd5b506006546101b8906001600160a01b031681565b6102f3610d0d565b50600090815260026020818152604092839020835160e08101855281548152600182015492810192909252918201546001600160a01b03169281019290925260038101546060830152600481015460ff8082161515608085015261010090910416151560a08301526005015460c082015290565b61036f610cb4565b6000818152600260205260409020600481015460ff166103cb5760405162461bcd60e51b81526020600482015260126024820152714c697374696e67206e6f742061637469766560701b60448201526064015b60405180910390fd5b80600301543410156104165760405162461bcd60e51b8152602060048201526014602482015273125b9cdd59999a58da595b9d081c185e5b595b9d60621b60448201526064016103c2565b60048101805460ff191690556005546000906103e8906104369034610edb565b6104409190610ef2565b9050600061044e8234610f14565b6006546040519192506001600160a01b03169083156108fc029084906000818181858888f19350505050158015610489573d6000803e3d6000fd5b5060028301546040516001600160a01b039091169082156108fc029083906000818181858888f193505050501580156104c6573d6000803e3d6000fd5b506004830154610100900460ff16156105585760058301546104e89042610f27565b600184018054600090815260036020818152604080842033808652908352818520969096559354808452918152838320858452815291839020549251928352917faa646191eec5ae05708450309d7f94a103a798fe3a31b915f62ed0829ebeedf4910160405180910390a36105c7565b6004805460018501546040516323b872dd60e01b8152309381019390935233602484015260448301526001600160a01b0316906323b872dd90606401600060405180830381600087803b1580156105ae57600080fd5b505af11580156105c2573d6000803e3d6000fd5b505050505b60018301546040805133815234602082015286917fb4b913794e9bb27bf4529237dc550dd61a08ae835ab02c97317d414f50ea9012910160405180910390a35050506106136001600055565b50565b61061e610cb4565b6000818152600260208190526040909120908101546001600160a01b0316331461067b5760405162461bcd60e51b815260206004820152600e60248201526d2737ba103a34329039b2b63632b960911b60448201526064016103c2565b600481015460ff166106c45760405162461bcd60e51b81526020600482015260126024820152714c697374696e67206e6f742061637469766560701b60448201526064016103c2565b60048101805460ff191690819055610100900460ff1661074d576004805460018301546040516323b872dd60e01b8152309381019390935233602484015260448301526001600160a01b0316906323b872dd90606401600060405180830381600087803b15801561073457600080fd5b505af1158015610748573d6000803e3d6000fd5b505050505b506106136001600055565b60008281526003602090815260408083206001600160a01b038516845290915290205442105b92915050565b6060600061079160015490565b9050808411156107d75760405162461bcd60e51b81526020600482015260116024820152700a6e8c2e4e840928840e8dede40d0d2ced607b1b60448201526064016103c2565b60006107e38583610f14565b6107ee906001610f27565b905060008185106107ff5781610801565b845b905060008167ffffffffffffffff81111561081e5761081e610f3a565b60405190808252806020026020018201604052801561085757816020015b610844610d0d565b81526020019060019003908161083c5790505b5090506000875b600161086a898b610f27565b6108749190610f14565b81111580156108835750858111155b156109525760008181526002602052604090206004015460ff161561094057600081815260026020818152604092839020835160e08101855281548152600182015492810192909252918201546001600160a01b03169281019290925260038101546060830152600481015460ff8082161515608085015261010090910416151560a08301526005015460c0820152835184908490811061092657610926610f50565b6020026020010181905250818061093c90610f66565b9250505b8061094a81610f66565b91505061085e565b5060008167ffffffffffffffff81111561096e5761096e610f3a565b6040519080825280602002602001820160405280156109a757816020015b610994610d0d565b81526020019060019003908161098c5790505b50905060005b828110156109ff578381815181106109c7576109c7610f50565b60200260200101518282815181106109e1576109e1610f50565b602002602001018190525080806109f790610f66565b9150506109ad565b5098975050505050505050565b610a14610cb4565b600480546040516331a9108f60e11b815291820186905233916001600160a01b0390911690636352211e90602401602060405180830381865afa158015610a5f573d6000803e3d6000fd5b505050506040513d601f19601f82011682018060405250810190610a839190610f7f565b6001600160a01b031614610acb5760405162461bcd60e51b815260206004820152600f60248201526e2737ba103a37b5b2b71037bbb732b960891b60448201526064016103c2565b60008311610b1b5760405162461bcd60e51b815260206004820152601c60248201527f5072696365206d7573742062652067726561746572207468616e20300000000060448201526064016103c2565b610b29600180546001019055565b6000610b3460015490565b6040805160e081018252828152602080820189815233838501908152606084018a81526001608086018181528b151560a0880190815260c088018c815260008b81526002988990529990992097518855945191870191909155915193850180546001600160a01b03959095166001600160a01b031990951694909417909355915160038401559051600483018054925115156101000261ff00199215159290921661ffff19909316929092171790559051600590910155905082610c5e57600480546040516323b872dd60e01b81523392810192909252306024830152604482018790526001600160a01b0316906323b872dd90606401600060405180830381600087803b158015610c4557600080fd5b505af1158015610c59573d6000803e3d6000fd5b505050505b6040805133815260208101869052841515818301529051869183917f079fcc476106c0809173873ec21df960c48afa195b2db992b652d94e26ed0c789181900360600190a350610cae6001600055565b50505050565b600260005403610d065760405162461bcd60e51b815260206004820152601f60248201527f5265656e7472616e637947756172643a207265656e7472616e742063616c6c0060448201526064016103c2565b6002600055565b6040518060e00160405280600081526020016000815260200160006001600160a01b0316815260200160008152602001600015158152602001600015158152602001600081525090565b600060208284031215610d6957600080fd5b5035919050565b80518252602080820151908301526040808201516001600160a01b0316908301526060808201519083015260808082015115159083015260a08082015115159083015260c090810151910152565b60e0810161077e8284610d70565b6001600160a01b038116811461061357600080fd5b60008060408385031215610df457600080fd5b823591506020830135610e0681610dcc565b809150509250929050565b60008060408385031215610e2457600080fd5b50508035926020909101359150565b6020808252825182820181905260009190848201906040850190845b81811015610e7557610e62838551610d70565b9284019260e09290920191600101610e4f565b50909695505050505050565b60008060008060808587031215610e9757600080fd5b843593506020850135925060408501358015158114610eb557600080fd5b9396929550929360600135925050565b634e487b7160e01b600052601160045260246000fd5b808202811582820484141761077e5761077e610ec5565b600082610f0f57634e487b7160e01b600052601260045260246000fd5b500490565b8181038181111561077e5761077e610ec5565b8082018082111561077e5761077e610ec5565b634e487b7160e01b600052604160045260246000fd5b634e487b7160e01b600052603260045260246000fd5b600060018201610f7857610f78610ec5565b5060010190565b600060208284031215610f9157600080fd5b8151610f9c81610dcc565b939250505056fea2646970667358221220e9458344c1559af3c482b69ebba344199aad0b6146d0e7b65757d32e4b97523c64736f6c63430008110033",
  "linkReferences": {},
  "deployedLinkReferences": {}
}