{
  "_format": "hh-sol-artifact-1",
  "contractName": "IPToken",
  "sourceName": "contracts/IPToken.sol",
  "abi": [
    {
      "inputs": [],
      "stateMutability": "nonpayable",
      "type": "constructor"
    },
    {
      "anonymous": false,
      "inputs": [
        {
          "indexed": true,
          "internalType": "address",
          "name": "owner",
          "type": "address"
        },
        {
          "indexed": true,
          "internalType": "address",
          "name": "approved",
          "type": "address"
        },
        {
          "indexed": true,
          "internalType": "uint256",
          "name": "tokenId",
          "type": "uint256"
        }
      ],
      "name": "Approval",
      "type": "event"
    },
    {
      "anonymous": false,
      "inputs": [
        {
          "indexed": true,
          "internalType": "address",
          "name": "owner",
          "type": "address"
        },
        {
          "indexed": true,
          "internalType": "address",
          "name": "operator",
          "type": "address"
        },
        {
          "indexed": false,
          "internalType": "bool",
          "name": "approved",
          "type": "bool"
        }
      ],
      "name": "ApprovalForAll",
      "type": "event"
    },
    {
      "anonymous": false,
      "inputs": [
        {
          "indexed": false,
          "internalType": "uint256",
          "name": "_fromTokenId",
          "type": "uint256"
        },
        {
          "indexed": false,
          "internalType": "uint256",
          "name": "_toTokenId",
          "type": "uint256"
        }
      ],
      "name": "BatchMetadataUpdate",
      "type": "event"
    },
    {
      "anonymous": false,
      "inputs": [
        {
          "indexed": true,
          "internalType": "uint256",
          "name": "tokenId",
          "type": "uint256"
        },
        {
          "indexed": true,
          "internalType": "address",
          "name": "creator",
          "type": "address"
        },
        {
          "indexed": false,
          "internalType": "string",
          "name": "title",
          "type": "string"
        }
      ],
      "name": "IPCreated",
      "type": "event"
    },
    {
      "anonymous": false,
      "inputs": [
        {
          "indexed": true,
          "internalType": "uint256",
          "name": "tokenId",
          "type": "uint256"
        },
        {
          "indexed": false,
          "internalType": "uint256",
          "name": "price",
          "type": "uint256"
        }
      ],
      "name": "IPListed",
      "type": "event"
    },
    {
      "anonymous": false,
      "inputs": [
        {
          "indexed": true,
          "internalType": "uint256",
          "name": "tokenId",
          "type": "uint256"
        },
        {
          "indexed": false,
          "internalType": "address",
          "name": "from",
          "type": "address"
        },
        {
          "indexed": false,
          "internalType": "address",
          "name": "to",
          "type": "address"
        },
        {
          "indexed": false,
          "internalType": "uint256",
          "name": "price",
          "type": "uint256"
        }
      ],
      "name": "IPSold",
      "type": "event"
    },
    {
      "anonymous": false,
      "inputs": [
        {
          "indexed": true,
          "internalType": "uint256",
          "name": "tokenId",
          "type": "uint256"
        },
        {
          "indexed": true,
          "internalType": "address",
          "name": "licensee",
          "type": "address"
        }
      ],
      "name": "LicenseGranted",
      "type": "event"
    },
    {
      "anonymous": false,
      "inputs": [
        {
          "indexed": false,
          "internalType": "uint256",
          "name": "_tokenId",
          "type": "uint256"
        }
      ],
      "name": "MetadataUpdate",
      "type": "event"
    },
    {
      "anonymous": false,
      "inputs": [
        {
          "indexed": true,
          "internalType": "address",
          "name": "from",
          "type": "address"
        },
        {
          "indexed": true,
          "internalType": "address",
          "name": "to",
          "type": "address"
        },
        {
          "indexed": true,
          "internalType": "uint256",
          "name": "tokenId",
          "type": "uint256"
        }
      ],
      "name": "Transfer",
      "type": "event"
    },
    {
      "inputs": [
        {
          "internalType": "address",
          "name": "to",
          "type": "address"
        },
        {
          "internalType": "uint256",
          "name": "tokenId",
          "type": "uint256"
        }
      ],
      "name": "approve",
      "outputs": [],
      "stateMutability": "nonpayable",
      "type": "function"
    },
    {
      "inputs": [
        {
          "internalType": "address",
          "name": "owner",
          "type": "address"
        }
      ],
      "name": "balanceOf",
      "outputs": [
        {
          "internalType": "uint256",
          "name": "",
          "type": "uint256"
        }
      ],
      "stateMutability": "view",
      "type": "function"
    },
    {
      "inputs": [
        {
          "internalType": "uint256",
          "name": "tokenId",
          "type": "uint256"
        }
      ],
      "name": "buyIP",
      "outputs": [],
      "stateMutability": "payable",
      "type": "function"
    },
    {
      "inputs": [
        {
          "internalType": "string",
          "name": "title",
          "type": "string"
        },
        {
          "internalType": "string",
          "name": "description",
          "type": "string"
        },
        {
          "internalType": "string",
          "name": "uri",
          "type": "string"
        },
        {
          "internalType": "string",
          "name": "licenseTerms",
          "type": "string"
        }
      ],
      "name": "createIP",
      "outputs": [
        {
          "internalType": "uint256",
          "name": "",
          "type": "uint256"
        }
      ],
      "stateMutability": "nonpayable",
      "type": "function"
    },
    {
      "inputs": [
        {
          "internalType": "uint256",
          "name": "tokenId",
          "type": "uint256"
        }
      ],
      "name": "getApproved",
      "outputs": [
        {
          "internalType": "address",
          "name": "",
          "type": "address"
        }
      ],
      "stateMutability": "view",
      "type": "function"
    },
    {
      "inputs": [
        {
          "internalType": "uint256",
          "name": "tokenId",
          "type": "uint256"
        },
        {
          "internalType": "address",
          "name": "licensee",
          "type": "address"
        }
      ],
      "name": "grantLicense",
      "outputs": [],
      "stateMutability": "nonpayable",
      "type": "function"
    },
    {
      "inputs": [
        {
          "internalType": "uint256",
          "name": "tokenId",
          "type": "uint256"
        },
        {
          "internalType": "address",
          "name": "licensee",
          "type": "address"
        }
      ],
      "name": "hasLicense",
      "outputs": [
        {
          "internalType": "bool",
          "name": "",
          "type": "bool"
        }
      ],
      "stateMutability": "view",
      "type": "function"
    },
    {
      "inputs": [
        {
          "internalType": "uint256",
          "name": "",
          "type": "uint256"
        }
      ],
      "name": "ipDetails",
      "outputs": [
        {
          "internalType": "string",
          "name": "title",
          "type": "string"
        },
        {
          "internalType": "string",
          "name": "description",
          "type": "string"
        },
        {
          "internalType": "uint256",
          "name": "price",
          "type": "uint256"
        },
        {
          "internalType": "bool",
          "name": "isListed",
          "type": "bool"
        },
        {
          "internalType": "address",
          "name": "creator",
          "type": "address"
        },
        {
          "internalType": "string",
          "name": "licenseTerms",
          "type": "string"
        }
      ],
      "stateMutability": "view",
      "type": "function"
    },
    {
      "inputs": [
        {
          "internalType": "address",
          "name": "owner",
          "type": "address"
        },
        {
          "internalType": "address",
          "name": "operator",
          "type": "address"
        }
      ],
      "name": "isApprovedForAll",
      "outputs": [
        {
          "internalType": "bool",
          "name": "",
          "type": "bool"
        }
      ],
      "stateMutability": "view",
      "type": "function"
    },
    {
      "inputs": [
        {
          "internalType": "uint256",
          "name": "",
          "type": "uint256"
        },
        {
          "internalType": "address",
          "name": "",
          "type": "address"
        }
      ],
      "name": "licensees",
      "outputs": [
        {
          "internalType": "bool",
          "name": "",
          "type": "bool"
        }
      ],
      "stateMutability": "view",
      "type": "function"
    },
    {
      "inputs": [
        {
          "internalType": "uint256",
          "name": "tokenId",
          "type": "uint256"
        },
        {
          "internalType": "uint256",
          "name": "price",
          "type": "uint256"
        }
      ],
      "name": "listIP",
      "outputs": [],
      "stateMutability": "nonpayable",
      "type": "function"
    },
    {
      "inputs": [],
      "name": "name",
      "outputs": [
        {
          "internalType": "string",
          "name": "",
          "type": "string"
        }
      ],
      "stateMutability": "view",
      "type": "function"
    },
    {
      "inputs": [
        {
          "internalType": "uint256",
          "name": "tokenId",
          "type": "uint256"
        }
      ],
      "name": "ownerOf",
      "outputs": [
        {
          "internalType": "address",
          "name": "",
          "type": "address"
        }
      ],
      "stateMutability": "view",
      "type": "function"
    },
    {
      "inputs": [
        {
          "internalType": "address",
          "name": "from",
          "type": "address"
        },
        {
          "internalType": "address",
          "name": "to",
          "type": "address"
        },
        {
          "internalType": "uint256",
          "name": "tokenId",
          "type": "uint256"
        }
      ],
      "name": "safeTransferFrom",
      "outputs": [],
      "stateMutability": "nonpayable",
      "type": "function"
    },
    {
      "inputs": [
        {
          "internalType": "address",
          "name": "from",
          "type": "address"
        },
        {
          "internalType": "address",
          "name": "to",
          "type": "address"
        },
        {
          "internalType": "uint256",
          "name": "tokenId",
          "type": "uint256"
        },
        {
          "internalType": "bytes",
          "name": "data",
          "type": "bytes"
        }
      ],
      "name": "safeTransferFrom",
      "outputs": [],
      "stateMutability": "nonpayable",
      "type": "function"
    },
    {
      "inputs": [
        {
          "internalType": "address",
          "name": "operator",
          "type": "address"
        },
        {
          "internalType": "bool",
          "name": "approved",
          "type": "bool"
        }
      ],
      "name": "setApprovalForAll",
      "outputs": [],
      "stateMutability": "nonpayable",
      "type": "function"
    },
    {
      "inputs": [
        {
          "internalType": "bytes4",
          "name": "interfaceId",
          "type": "bytes4"
        }
      ],
      "name": "supportsInterface",
      "outputs": [
        {
          "internalType": "bool",
          "name": "",
          "type": "bool"
        }
      ],
      "stateMutability": "view",
      "type": "function"
    },
    {
      "inputs": [],
      "name": "symbol",
      "outputs": [
        {
          "internalType": "string",
          "name": "",
          "type": "string"
        }
      ],
      "stateMutability": "view",
      "type": "function"
    },
    {
      "inputs": [
        {
          "internalType": "uint256",
          "name": "tokenId",
          "type": "uint256"
        }
      ],
      "name": "tokenURI",
      "outputs": [
        {
          "internalType": "string",
          "name": "",
          "type": "string"
        }
      ],
      "stateMutability": "view",
      "type": "function"
    },
    {
      "inputs": [
        {
          "internalType": "address",
          "name": "from",
          "type": "address"
        },
        {
          "internalType": "address",
          "name": "to",
          "type": "address"
        },
        {
          "internalType": "uint256",
          "name": "tokenId",
          "type": "uint256"
        }
      ],
      "name": "transferFrom",
      "outputs": [],
      "stateMutability": "nonpayable",
      "type": "function"
    }
  ],
  "bytecode": "0x60806040523480156200001157600080fd5b506040518060400160405280600f81526020016e2732b13ab6309024a8102a37b5b2b760891b8152506040518060400160405280600381526020016204e49560ec1b815250816000908162000067919062000129565b50600162000076828262000129565b5050600160075550620001f5565b634e487b7160e01b600052604160045260246000fd5b600181811c90821680620000af57607f821691505b602082108103620000d057634e487b7160e01b600052602260045260246000fd5b50919050565b601f8211156200012457600081815260208120601f850160051c81016020861015620000ff5750805b601f850160051c820191505b8181101562000120578281556001016200010b565b5050505b505050565b81516001600160401b0381111562000145576200014562000084565b6200015d816200015684546200009a565b84620000d6565b602080601f8311600181146200019557600084156200017c5750858301515b600019600386901b1c1916600185901b17855562000120565b600085815260208120601f198616915b82811015620001c657888601518255948401946001909101908401620001a5565b5085821015620001e55787850151600019600388901b60f8161c191681555b5050505050600190811b01905550565b61221b80620002056000396000f3fe60806040526004361061011f5760003560e01c806363fb1585116100a0578063a22cb46511610064578063a22cb4651461036c578063b88d4fde1461038c578063c87b56dd146103ac578063e985e9c5146103cc578063ea9705841461041557600080fd5b806363fb1585146102bc5780636e4d6230146102f757806370a08231146103175780637a07fab51461033757806395d89b411461035757600080fd5b80632706b5e8116100e75780632706b5e8146101f55780632747d25f1461022357806342842e0e146102365780634b997fa2146102565780636352211e1461029c57600080fd5b806301ffc9a71461012457806306fdde0314610159578063081812fc1461017b578063095ea7b3146101b357806323b872dd146101d5575b600080fd5b34801561013057600080fd5b5061014461013f366004611b19565b610447565b60405190151581526020015b60405180910390f35b34801561016557600080fd5b5061016e610458565b6040516101509190611b86565b34801561018757600080fd5b5061019b610196366004611b99565b6104ea565b6040516001600160a01b039091168152602001610150565b3480156101bf57600080fd5b506101d36101ce366004611bce565b610511565b005b3480156101e157600080fd5b506101d36101f0366004611bf8565b61062b565b34801561020157600080fd5b50610215610210366004611ce0565b61065c565b604051908152602001610150565b6101d3610231366004611b99565b6107af565b34801561024257600080fd5b506101d3610251366004611bf8565b610b10565b34801561026257600080fd5b50610144610271366004611d8d565b6000918252600a602090815260408084206001600160a01b0393909316845291905290205460ff1690565b3480156102a857600080fd5b5061019b6102b7366004611b99565b610b2b565b3480156102c857600080fd5b506101446102d7366004611d8d565b600a60209081526000928352604080842090915290825290205460ff1681565b34801561030357600080fd5b506101d3610312366004611d8d565b610b8b565b34801561032357600080fd5b50610215610332366004611db9565b610c36565b34801561034357600080fd5b506101d3610352366004611dd4565b610cbc565b34801561036357600080fd5b5061016e610dbf565b34801561037857600080fd5b506101d3610387366004611df6565b610dce565b34801561039857600080fd5b506101d36103a7366004611e32565b610ddd565b3480156103b857600080fd5b5061016e6103c7366004611b99565b610e15565b3480156103d857600080fd5b506101446103e7366004611ea2565b6001600160a01b03918216600090815260056020908152604080832093909416825291909152205460ff1690565b34801561042157600080fd5b50610435610430366004611b99565b610e20565b60405161015096959493929190611ecc565b600061045282610ffd565b92915050565b60606000805461046790611f30565b80601f016020809104026020016040519081016040528092919081815260200182805461049390611f30565b80156104e05780601f106104b5576101008083540402835291602001916104e0565b820191906000526020600020905b8154815290600101906020018083116104c357829003601f168201915b5050505050905090565b60006104f582611022565b506000908152600460205260409020546001600160a01b031690565b600061051c82610b2b565b9050806001600160a01b0316836001600160a01b03160361058e5760405162461bcd60e51b815260206004820152602160248201527f4552433732313a20617070726f76616c20746f2063757272656e74206f776e656044820152603960f91b60648201526084015b60405180910390fd5b336001600160a01b03821614806105aa57506105aa81336103e7565b61061c5760405162461bcd60e51b815260206004820152603d60248201527f4552433732313a20617070726f76652063616c6c6572206973206e6f7420746f60448201527f6b656e206f776e6572206f7220617070726f76656420666f7220616c6c0000006064820152608401610585565b6106268383611081565b505050565b61063533826110ef565b6106515760405162461bcd60e51b815260040161058590611f6a565b61062683838361116d565b60006106666112d1565b610674600880546001019055565b600061067f60085490565b905061068b338261132a565b6106958185611344565b6040805160c081018252878152602080820188905260008284018190526060830181905233608084015260a08301879052848152600990915291909120815181906106e09082612005565b50602082015160018201906106f59082612005565b5060408201516002820155606082015160038201805460808501516001600160a01b031661010002610100600160a81b0319931515939093166001600160a81b03199091161791909117905560a082015160048201906107559082612005565b50905050336001600160a01b0316817f905ca71ef6fd8706ef46b0455981a448de379eeb2543ca31e92c6dd15576f2d6886040516107939190611b86565b60405180910390a390506107a76001600755565b949350505050565b6107b76112d1565b600081815260096020526040808220815160c081019092528054829082906107de90611f30565b80601f016020809104026020016040519081016040528092919081815260200182805461080a90611f30565b80156108575780601f1061082c57610100808354040283529160200191610857565b820191906000526020600020905b81548152906001019060200180831161083a57829003601f168201915b5050505050815260200160018201805461087090611f30565b80601f016020809104026020016040519081016040528092919081815260200182805461089c90611f30565b80156108e95780601f106108be576101008083540402835291602001916108e9565b820191906000526020600020905b8154815290600101906020018083116108cc57829003601f168201915b505050918352505060028201546020820152600382015460ff81161515604083015261010090046001600160a01b0316606082015260048201805460809092019161093390611f30565b80601f016020809104026020016040519081016040528092919081815260200182805461095f90611f30565b80156109ac5780601f10610981576101008083540402835291602001916109ac565b820191906000526020600020905b81548152906001019060200180831161098f57829003601f168201915b50505050508152505090508060600151610a015760405162461bcd60e51b81526020600482015260166024820152754950206e6f74206c697374656420666f722073616c6560501b6044820152606401610585565b8060400151341015610a4c5760405162461bcd60e51b8152602060048201526014602482015273125b9cdd59999a58da595b9d081c185e5b595b9d60621b6044820152606401610585565b6000610a5783610b2b565b9050610a6481338561116d565b6040516001600160a01b038216903480156108fc02916000818181858888f19350505050158015610a99573d6000803e3d6000fd5b50600083815260096020908152604091829020600301805460ff1916905581516001600160a01b038416815233918101919091523481830152905184917f31bd53109618f7ade386d03dbe5f7013e7f963d3b601c5a3d33f2a60a8e297c4919081900360600190a25050610b0d6001600755565b50565b61062683838360405180602001604052806000815250610ddd565b6000818152600260205260408120546001600160a01b0316806104525760405162461bcd60e51b8152602060048201526018602482015277115490cdcc8c4e881a5b9d985b1a59081d1bdad95b88125160421b6044820152606401610585565b33610b9583610b2b565b6001600160a01b031614610bdb5760405162461bcd60e51b815260206004820152600d60248201526c2737ba103a34329037bbb732b960991b6044820152606401610585565b6000828152600a602090815260408083206001600160a01b0385168085529252808320805460ff1916600117905551909184917f5da32bac1b5e032765468a627a750a26b39c039e7c3505adf4cdc95d1cc2a1cb9190a35050565b60006001600160a01b038216610ca05760405162461bcd60e51b815260206004820152602960248201527f4552433732313a2061646472657373207a65726f206973206e6f7420612076616044820152683634b21037bbb732b960b91b6064820152608401610585565b506001600160a01b031660009081526003602052604090205490565b33610cc683610b2b565b6001600160a01b031614610d0c5760405162461bcd60e51b815260206004820152600d60248201526c2737ba103a34329037bbb732b960991b6044820152606401610585565b60008111610d5c5760405162461bcd60e51b815260206004820152601c60248201527f5072696365206d7573742062652067726561746572207468616e2030000000006044820152606401610585565b6000828152600960205260409081902060028101839055600301805460ff191660011790555182907fc1da990c97a3f7d1835c89f4145e4b8dfa84aa97f22d29873f7e8e6ce6e678d590610db39084815260200190565b60405180910390a25050565b60606001805461046790611f30565b610dd933838361140f565b5050565b610de733836110ef565b610e035760405162461bcd60e51b815260040161058590611f6a565b610e0f848484846114dd565b50505050565b606061045282611510565b600960205260009081526040902080548190610e3b90611f30565b80601f0160208091040260200160405190810160405280929190818152602001828054610e6790611f30565b8015610eb45780601f10610e8957610100808354040283529160200191610eb4565b820191906000526020600020905b815481529060010190602001808311610e9757829003601f168201915b505050505090806001018054610ec990611f30565b80601f0160208091040260200160405190810160405280929190818152602001828054610ef590611f30565b8015610f425780601f10610f1757610100808354040283529160200191610f42565b820191906000526020600020905b815481529060010190602001808311610f2557829003601f168201915b50505050600283015460038401546004850180549495929460ff831694506101009092046001600160a01b03169291610f7a90611f30565b80601f0160208091040260200160405190810160405280929190818152602001828054610fa690611f30565b8015610ff35780601f10610fc857610100808354040283529160200191610ff3565b820191906000526020600020905b815481529060010190602001808311610fd657829003601f168201915b5050505050905086565b60006001600160e01b03198216632483248360e11b1480610452575061045282611618565b6000818152600260205260409020546001600160a01b0316610b0d5760405162461bcd60e51b8152602060048201526018602482015277115490cdcc8c4e881a5b9d985b1a59081d1bdad95b88125160421b6044820152606401610585565b600081815260046020526040902080546001600160a01b0319166001600160a01b03841690811790915581906110b682610b2b565b6001600160a01b03167f8c5be1e5ebec7d5bd14f71427d1e84f3dd0314c0f7b2291e5b200ac8c7c3b92560405160405180910390a45050565b6000806110fb83610b2b565b9050806001600160a01b0316846001600160a01b0316148061114257506001600160a01b0380821660009081526005602090815260408083209388168352929052205460ff165b806107a75750836001600160a01b031661115b846104ea565b6001600160a01b031614949350505050565b826001600160a01b031661118082610b2b565b6001600160a01b0316146111a65760405162461bcd60e51b8152600401610585906120c5565b6001600160a01b0382166112085760405162461bcd60e51b8152602060048201526024808201527f4552433732313a207472616e7366657220746f20746865207a65726f206164646044820152637265737360e01b6064820152608401610585565b826001600160a01b031661121b82610b2b565b6001600160a01b0316146112415760405162461bcd60e51b8152600401610585906120c5565b600081815260046020908152604080832080546001600160a01b03199081169091556001600160a01b0387811680865260038552838620805460001901905590871680865283862080546001019055868652600290945282852080549092168417909155905184937fddf252ad1be2c89b69c2b068fc378daa952ba7f163c4a11628f55a4df523b3ef91a4505050565b6002600754036113235760405162461bcd60e51b815260206004820152601f60248201527f5265656e7472616e637947756172643a207265656e7472616e742063616c6c006044820152606401610585565b6002600755565b610dd9828260405180602001604052806000815250611668565b6000828152600260205260409020546001600160a01b03166113bf5760405162461bcd60e51b815260206004820152602e60248201527f45524337323155524953746f726167653a2055524920736574206f66206e6f6e60448201526d32bc34b9ba32b73a103a37b5b2b760911b6064820152608401610585565b60008281526006602052604090206113d78282612005565b506040518281527ff8e1a15aba9398e019f0b49df1a4fde98ee17ae345cb5f6b5e2c27f5033e8ce79060200160405180910390a15050565b816001600160a01b0316836001600160a01b0316036114705760405162461bcd60e51b815260206004820152601960248201527f4552433732313a20617070726f766520746f2063616c6c6572000000000000006044820152606401610585565b6001600160a01b03838116600081815260056020908152604080832094871680845294825291829020805460ff191686151590811790915591519182527f17307eab39ab6107e8899845ad3d59bd9653f200f220920489ca2b5937696c31910160405180910390a3505050565b6114e884848461116d565b6114f48484848461169b565b610e0f5760405162461bcd60e51b81526004016105859061210a565b606061151b82611022565b6000828152600660205260408120805461153490611f30565b80601f016020809104026020016040519081016040528092919081815260200182805461156090611f30565b80156115ad5780601f10611582576101008083540402835291602001916115ad565b820191906000526020600020905b81548152906001019060200180831161159057829003601f168201915b5050505050905060006115cb60408051602081019091526000815290565b905080516000036115dd575092915050565b81511561160f5780826040516020016115f792919061215c565b60405160208183030381529060405292505050919050565b6107a784611799565b60006001600160e01b031982166380ac58cd60e01b148061164957506001600160e01b03198216635b5e139f60e01b145b8061045257506301ffc9a760e01b6001600160e01b0319831614610452565b611672838361180d565b61167f600084848461169b565b6106265760405162461bcd60e51b81526004016105859061210a565b60006001600160a01b0384163b1561179157604051630a85bd0160e11b81526001600160a01b0385169063150b7a02906116df90339089908890889060040161218b565b6020604051808303816000875af192505050801561171a575060408051601f3d908101601f19168201909252611717918101906121c8565b60015b611777573d808015611748576040519150601f19603f3d011682016040523d82523d6000602084013e61174d565b606091505b50805160000361176f5760405162461bcd60e51b81526004016105859061210a565b805181602001fd5b6001600160e01b031916630a85bd0160e11b1490506107a7565b5060016107a7565b60606117a482611022565b60006117bb60408051602081019091526000815290565b905060008151116117db5760405180602001604052806000815250611806565b806117e584611998565b6040516020016117f692919061215c565b6040516020818303038152906040525b9392505050565b6001600160a01b0382166118635760405162461bcd60e51b815260206004820181905260248201527f4552433732313a206d696e7420746f20746865207a65726f20616464726573736044820152606401610585565b6000818152600260205260409020546001600160a01b0316156118c85760405162461bcd60e51b815260206004820152601c60248201527f4552433732313a20746f6b656e20616c7265616479206d696e746564000000006044820152606401610585565b6000818152600260205260409020546001600160a01b03161561192d5760405162461bcd60e51b815260206004820152601c60248201527f4552433732313a20746f6b656e20616c7265616479206d696e746564000000006044820152606401610585565b6001600160a01b038216600081815260036020908152604080832080546001019055848352600290915280822080546001600160a01b0319168417905551839291907fddf252ad1be2c89b69c2b068fc378daa952ba7f163c4a11628f55a4df523b3ef908290a45050565b606060006119a583611a2b565b600101905060008167ffffffffffffffff8111156119c5576119c5611c34565b6040519080825280601f01601f1916602001820160405280156119ef576020820181803683370190505b5090508181016020015b600019016f181899199a1a9b1b9c1cb0b131b232b360811b600a86061a8153600a85049450846119f957509392505050565b60008072184f03e93ff9f4daa797ed6e38ed64bf6a1f0160401b8310611a6a5772184f03e93ff9f4daa797ed6e38ed64bf6a1f0160401b830492506040015b6d04ee2d6d415b85acef81000000008310611a96576d04ee2d6d415b85acef8100000000830492506020015b662386f26fc100008310611ab457662386f26fc10000830492506010015b6305f5e1008310611acc576305f5e100830492506008015b6127108310611ae057612710830492506004015b60648310611af2576064830492506002015b600a83106104525760010192915050565b6001600160e01b031981168114610b0d57600080fd5b600060208284031215611b2b57600080fd5b813561180681611b03565b60005b83811015611b51578181015183820152602001611b39565b50506000910152565b60008151808452611b72816020860160208601611b36565b601f01601f19169290920160200192915050565b6020815260006118066020830184611b5a565b600060208284031215611bab57600080fd5b5035919050565b80356001600160a01b0381168114611bc957600080fd5b919050565b60008060408385031215611be157600080fd5b611bea83611bb2565b946020939093013593505050565b600080600060608486031215611c0d57600080fd5b611c1684611bb2565b9250611c2460208501611bb2565b9150604084013590509250925092565b634e487b7160e01b600052604160045260246000fd5b600067ffffffffffffffff80841115611c6557611c65611c34565b604051601f8501601f19908116603f01168101908282118183101715611c8d57611c8d611c34565b81604052809350858152868686011115611ca657600080fd5b858560208301376000602087830101525050509392505050565b600082601f830112611cd157600080fd5b61180683833560208501611c4a565b60008060008060808587031215611cf657600080fd5b843567ffffffffffffffff80821115611d0e57600080fd5b611d1a88838901611cc0565b95506020870135915080821115611d3057600080fd5b611d3c88838901611cc0565b94506040870135915080821115611d5257600080fd5b611d5e88838901611cc0565b93506060870135915080821115611d7457600080fd5b50611d8187828801611cc0565b91505092959194509250565b60008060408385031215611da057600080fd5b82359150611db060208401611bb2565b90509250929050565b600060208284031215611dcb57600080fd5b61180682611bb2565b60008060408385031215611de757600080fd5b50508035926020909101359150565b60008060408385031215611e0957600080fd5b611e1283611bb2565b915060208301358015158114611e2757600080fd5b809150509250929050565b60008060008060808587031215611e4857600080fd5b611e5185611bb2565b9350611e5f60208601611bb2565b925060408501359150606085013567ffffffffffffffff811115611e8257600080fd5b8501601f81018713611e9357600080fd5b611d8187823560208401611c4a565b60008060408385031215611eb557600080fd5b611ebe83611bb2565b9150611db060208401611bb2565b60c081526000611edf60c0830189611b5a565b8281036020840152611ef18189611b5a565b6040840188905286151560608501526001600160a01b038616608085015283810360a08501529050611f238185611b5a565b9998505050505050505050565b600181811c90821680611f4457607f821691505b602082108103611f6457634e487b7160e01b600052602260045260246000fd5b50919050565b6020808252602d908201527f4552433732313a2063616c6c6572206973206e6f7420746f6b656e206f776e6560408201526c1c881bdc88185c1c1c9bdd9959609a1b606082015260800190565b601f82111561062657600081815260208120601f850160051c81016020861015611fde5750805b601f850160051c820191505b81811015611ffd57828155600101611fea565b505050505050565b815167ffffffffffffffff81111561201f5761201f611c34565b6120338161202d8454611f30565b84611fb7565b602080601f83116001811461206857600084156120505750858301515b600019600386901b1c1916600185901b178555611ffd565b600085815260208120601f198616915b8281101561209757888601518255948401946001909101908401612078565b50858210156120b55787850151600019600388901b60f8161c191681555b5050505050600190811b01905550565b60208082526025908201527f4552433732313a207472616e736665722066726f6d20696e636f72726563742060408201526437bbb732b960d91b606082015260800190565b60208082526032908201527f4552433732313a207472616e7366657220746f206e6f6e20455243373231526560408201527131b2b4bb32b91034b6b83632b6b2b73a32b960711b606082015260800190565b6000835161216e818460208801611b36565b835190830190612182818360208801611b36565b01949350505050565b6001600160a01b03858116825284166020820152604081018390526080606082018190526000906121be90830184611b5a565b9695505050505050565b6000602082840312156121da57600080fd5b815161180681611b0356fea2646970667358221220c682aa1e5c0a55397df4dde036e32fbf0e1df6e9822fe7fd6c25f7231db0266e64736f6c63430008110033",
  "linkReferences": {},
  "deployedLinkReferences": {}
}