{
  "_format": "hh-sol-artifact-1",
  "contractName": "LicenseModule",
  "sourceName": "contracts/LicenseModule.sol",
  "abi": [
    {
      "inputs": [],
      "stateMutability": "nonpayable",
      "type": "constructor"
    },
    {
      "anonymous": false,
      "inputs": [
        {
          "indexed": true,
          "internalType": "address",
          "name": "owner",
          "type": "address"
        },
        {
          "indexed": true,
          "internalType": "address",
          "name": "approved",
          "type": "address"
        },
        {
          "indexed": true,
          "internalType": "uint256",
          "name": "tokenId",
          "type": "uint256"
        }
      ],
      "name": "Approval",
      "type": "event"
    },
    {
      "anonymous": false,
      "inputs": [
        {
          "indexed": true,
          "internalType": "address",
          "name": "owner",
          "type": "address"
        },
        {
          "indexed": true,
          "internalType": "address",
          "name": "operator",
          "type": "address"
        },
        {
          "indexed": false,
          "internalType": "bool",
          "name": "approved",
          "type": "bool"
        }
      ],
      "name": "ApprovalForAll",
      "type": "event"
    },
    {
      "anonymous": false,
      "inputs": [
        {
          "indexed": true,
          "internalType": "address",
          "name": "from",
          "type": "address"
        },
        {
          "indexed": true,
          "internalType": "address",
          "name": "to",
          "type": "address"
        },
        {
          "indexed": true,
          "internalType": "uint256",
          "name": "tokenId",
          "type": "uint256"
        }
      ],
      "name": "Transfer",
      "type": "event"
    },
    {
      "inputs": [],
      "name": "IP_ASSET_MODULE_TYPE",
      "outputs": [
        {
          "internalType": "bytes32",
          "name": "",
          "type": "bytes32"
        }
      ],
      "stateMutability": "view",
      "type": "function"
    },
    {
      "inputs": [],
      "name": "MODULE_TYPE",
      "outputs": [
        {
          "internalType": "bytes32",
          "name": "",
          "type": "bytes32"
        }
      ],
      "stateMutability": "view",
      "type": "function"
    },
    {
      "inputs": [
        {
          "internalType": "address",
          "name": "to",
          "type": "address"
        },
        {
          "internalType": "uint256",
          "name": "tokenId",
          "type": "uint256"
        }
      ],
      "name": "approve",
      "outputs": [],
      "stateMutability": "nonpayable",
      "type": "function"
    },
    {
      "inputs": [
        {
          "internalType": "address",
          "name": "owner",
          "type": "address"
        }
      ],
      "name": "balanceOf",
      "outputs": [
        {
          "internalType": "uint256",
          "name": "",
          "type": "uint256"
        }
      ],
      "stateMutability": "view",
      "type": "function"
    },
    {
      "inputs": [
        {
          "components": [
            {
              "internalType": "enum ILicenseModule.LicenseType",
              "name": "licenseType",
              "type": "uint8"
            },
            {
              "internalType": "bool",
              "name": "allowCommercialUse",
              "type": "bool"
            },
            {
              "internalType": "bool",
              "name": "allowModifications",
              "type": "bool"
            },
            {
              "internalType": "enum ILicenseModule.AttributionRequirement",
              "name": "attribution",
              "type": "uint8"
            },
            {
              "internalType": "uint256",
              "name": "royaltyPercentage",
              "type": "uint256"
            },
            {
              "internalType": "uint256",
              "name": "duration",
              "type": "uint256"
            },
            {
              "internalType": "uint256",
              "name": "maxRevenue",
              "type": "uint256"
            },
            {
              "internalType": "string",
              "name": "additionalTerms",
              "type": "string"
            }
          ],
          "internalType": "struct ILicenseModule.LicenseTerms",
          "name": "terms",
          "type": "tuple"
        }
      ],
      "name": "createLicenseTemplate",
      "outputs": [
        {
          "internalType": "uint256",
          "name": "",
          "type": "uint256"
        }
      ],
      "stateMutability": "nonpayable",
      "type": "function"
    },
    {
      "inputs": [
        {
          "internalType": "uint256",
          "name": "tokenId",
          "type": "uint256"
        }
      ],
      "name": "getApproved",
      "outputs": [
        {
          "internalType": "address",
          "name": "",
          "type": "address"
        }
      ],
      "stateMutability": "view",
      "type": "function"
    },
    {
      "inputs": [
        {
          "internalType": "uint256",
          "name": "ipTokenId",
          "type": "uint256"
        }
      ],
      "name": "getIPLicenses",
      "outputs": [
        {
          "internalType": "uint256[]",
          "name": "",
          "type": "uint256[]"
        }
      ],
      "stateMutability": "view",
      "type": "function"
    },
    {
      "inputs": [
        {
          "internalType": "uint256",
          "name": "licenseId",
          "type": "uint256"
        }
      ],
      "name": "getLicenseTerms",
      "outputs": [
        {
          "components": [
            {
              "internalType": "enum ILicenseModule.LicenseType",
              "name": "licenseType",
              "type": "uint8"
            },
            {
              "internalType": "bool",
              "name": "allowCommercialUse",
              "type": "bool"
            },
            {
              "internalType": "bool",
              "name": "allowModifications",
              "type": "bool"
            },
            {
              "internalType": "enum ILicenseModule.AttributionRequirement",
              "name": "attribution",
              "type": "uint8"
            },
            {
              "internalType": "uint256",
              "name": "royaltyPercentage",
              "type": "uint256"
            },
            {
              "internalType": "uint256",
              "name": "duration",
              "type": "uint256"
            },
            {
              "internalType": "uint256",
              "name": "maxRevenue",
              "type": "uint256"
            },
            {
              "internalType": "string",
              "name": "additionalTerms",
              "type": "string"
            }
          ],
          "internalType": "struct ILicenseModule.LicenseTerms",
          "name": "",
          "type": "tuple"
        }
      ],
      "stateMutability": "view",
      "type": "function"
    },
    {
      "inputs": [
        {
          "internalType": "address",
          "name": "licensee",
          "type": "address"
        }
      ],
      "name": "getLicenseeTokens",
      "outputs": [
        {
          "internalType": "uint256[]",
          "name": "",
          "type": "uint256[]"
        }
      ],
      "stateMutability": "view",
      "type": "function"
    },
    {
      "inputs": [],
      "name": "getModuleType",
      "outputs": [
        {
          "internalType": "bytes32",
          "name": "",
          "type": "bytes32"
        }
      ],
      "stateMutability": "pure",
      "type": "function"
    },
    {
      "inputs": [
        {
          "internalType": "address",
          "name": "registryAddress",
          "type": "address"
        }
      ],
      "name": "initialize",
      "outputs": [],
      "stateMutability": "nonpayable",
      "type": "function"
    },
    {
      "inputs": [
        {
          "internalType": "address",
          "name": "owner",
          "type": "address"
        },
        {
          "internalType": "address",
          "name": "operator",
          "type": "address"
        }
      ],
      "name": "isApprovedForAll",
      "outputs": [
        {
          "internalType": "bool",
          "name": "",
          "type": "bool"
        }
      ],
      "stateMutability": "view",
      "type": "function"
    },
    {
      "inputs": [
        {
          "internalType": "uint256",
          "name": "licenseId",
          "type": "uint256"
        }
      ],
      "name": "isLicenseValid",
      "outputs": [
        {
          "internalType": "bool",
          "name": "",
          "type": "bool"
        }
      ],
      "stateMutability": "view",
      "type": "function"
    },
    {
      "inputs": [
        {
          "internalType": "uint256",
          "name": "ipTokenId",
          "type": "uint256"
        },
        {
          "internalType": "address",
          "name": "licensee",
          "type": "address"
        },
        {
          "internalType": "uint256",
          "name": "templateId",
          "type": "uint256"
        }
      ],
      "name": "issueLicense",
      "outputs": [
        {
          "internalType": "uint256",
          "name": "",
          "type": "uint256"
        }
      ],
      "stateMutability": "nonpayable",
      "type": "function"
    },
    {
      "inputs": [],
      "name": "name",
      "outputs": [
        {
          "internalType": "string",
          "name": "",
          "type": "string"
        }
      ],
      "stateMutability": "view",
      "type": "function"
    },
    {
      "inputs": [
        {
          "internalType": "uint256",
          "name": "tokenId",
          "type": "uint256"
        }
      ],
      "name": "ownerOf",
      "outputs": [
        {
          "internalType": "address",
          "name": "",
          "type": "address"
        }
      ],
      "stateMutability": "view",
      "type": "function"
    },
    {
      "inputs": [],
      "name": "registry",
      "outputs": [
        {
          "internalType": "contract Registry",
          "name": "",
          "type": "address"
        }
      ],
      "stateMutability": "view",
      "type": "function"
    },
    {
      "inputs": [
        {
          "internalType": "uint256",
          "name": "licenseId",
          "type": "uint256"
        }
      ],
      "name": "revokeLicense",
      "outputs": [],
      "stateMutability": "nonpayable",
      "type": "function"
    },
    {
      "inputs": [
        {
          "internalType": "address",
          "name": "from",
          "type": "address"
        },
        {
          "internalType": "address",
          "name": "to",
          "type": "address"
        },
        {
          "internalType": "uint256",
          "name": "tokenId",
          "type": "uint256"
        }
      ],
      "name": "safeTransferFrom",
      "outputs": [],
      "stateMutability": "nonpayable",
      "type": "function"
    },
    {
      "inputs": [
        {
          "internalType": "address",
          "name": "from",
          "type": "address"
        },
        {
          "internalType": "address",
          "name": "to",
          "type": "address"
        },
        {
          "internalType": "uint256",
          "name": "tokenId",
          "type": "uint256"
        },
        {
          "internalType": "bytes",
          "name": "data",
          "type": "bytes"
        }
      ],
      "name": "safeTransferFrom",
      "outputs": [],
      "stateMutability": "nonpayable",
      "type": "function"
    },
    {
      "inputs": [
        {
          "internalType": "address",
          "name": "operator",
          "type": "address"
        },
        {
          "internalType": "bool",
          "name": "approved",
          "type": "bool"
        }
      ],
      "name": "setApprovalForAll",
      "outputs": [],
      "stateMutability": "nonpayable",
      "type": "function"
    },
    {
      "inputs": [
        {
          "internalType": "bytes4",
          "name": "interfaceId",
          "type": "bytes4"
        }
      ],
      "name": "supportsInterface",
      "outputs": [
        {
          "internalType": "bool",
          "name": "",
          "type": "bool"
        }
      ],
      "stateMutability": "view",
      "type": "function"
    },
    {
      "inputs": [],
      "name": "symbol",
      "outputs": [
        {
          "internalType": "string",
          "name": "",
          "type": "string"
        }
      ],
      "stateMutability": "view",
      "type": "function"
    },
    {
      "inputs": [
        {
          "internalType": "uint256",
          "name": "index",
          "type": "uint256"
        }
      ],
      "name": "tokenByIndex",
      "outputs": [
        {
          "internalType": "uint256",
          "name": "",
          "type": "uint256"
        }
      ],
      "stateMutability": "view",
      "type": "function"
    },
    {
      "inputs": [
        {
          "internalType": "address",
          "name": "owner",
          "type": "address"
        },
        {
          "internalType": "uint256",
          "name": "index",
          "type": "uint256"
        }
      ],
      "name": "tokenOfOwnerByIndex",
      "outputs": [
        {
          "internalType": "uint256",
          "name": "",
          "type": "uint256"
        }
      ],
      "stateMutability": "view",
      "type": "function"
    },
    {
      "inputs": [
        {
          "internalType": "uint256",
          "name": "tokenId",
          "type": "uint256"
        }
      ],
      "name": "tokenURI",
      "outputs": [
        {
          "internalType": "string",
          "name": "",
          "type": "string"
        }
      ],
      "stateMutability": "view",
      "type": "function"
    },
    {
      "inputs": [],
      "name": "totalSupply",
      "outputs": [
        {
          "internalType": "uint256",
          "name": "",
          "type": "uint256"
        }
      ],
      "stateMutability": "view",
      "type": "function"
    },
    {
      "inputs": [
        {
          "internalType": "address",
          "name": "from",
          "type": "address"
        },
        {
          "internalType": "address",
          "name": "to",
          "type": "address"
        },
        {
          "internalType": "uint256",
          "name": "tokenId",
          "type": "uint256"
        }
      ],
      "name": "transferFrom",
      "outputs": [],
      "stateMutability": "nonpayable",
      "type": "function"
    }
  ],
  "bytecode": "0x60806040523480156200001157600080fd5b506040518060400160405280600e81526020016d4e6562756c61204c6963656e736560901b815250604051806040016040528060088152602001674e4c4943454e534560c01b81525081600090816200006b919062000128565b5060016200007a828262000128565b505050620001f4565b634e487b7160e01b600052604160045260246000fd5b600181811c90821680620000ae57607f821691505b602082108103620000cf57634e487b7160e01b600052602260045260246000fd5b50919050565b601f8211156200012357600081815260208120601f850160051c81016020861015620000fe5750805b601f850160051c820191505b818110156200011f578281556001016200010a565b5050505b505050565b81516001600160401b0381111562000144576200014462000083565b6200015c8162000155845462000099565b84620000d5565b602080601f8311600181146200019457600084156200017b5750858301515b600019600386901b1c1916600185901b1785556200011f565b600085815260208120601f198616915b82811015620001c557888601518255948401946001909101908401620001a4565b5085821015620001e45787850151600019600388901b60f8161c191681555b5050505050600190811b01905550565b61296b80620002046000396000f3fe608060405234801561001057600080fd5b50600436106101c35760003560e01c80636352211e116100f9578063b6016ab411610097578063c87b56dd11610071578063c87b56dd14610401578063d1908a9c14610414578063dceade4a14610434578063e985e9c51461044757600080fd5b8063b6016ab4146103bb578063b88d4fde146103db578063c4d66de8146103ee57600080fd5b80637b103999116100d35780637b1039991461037a57806395d89b411461038d5780639f7fc6d314610395578063a22cb465146103a857600080fd5b80636352211e1461034157806370a0823114610354578063735bc9fe1461036757600080fd5b806323b872dd11610166578063439d4b5c11610140578063439d4b5c146102cd578063482feb94146102e05780634f6ccce7146103075780635775029f1461031a57600080fd5b806323b872dd146102945780632f745c59146102a757806342842e0e146102ba57600080fd5b8063081812fc116101a2578063081812fc14610226578063095ea7b3146102515780630b9349b91461026657806318160ddd1461028c57600080fd5b80629465ef146101c857806301ffc9a7146101ee57806306fdde0314610211575b600080fd5b6101db6101d6366004611f0f565b610483565b6040519081526020015b60405180910390f35b6102016101fc366004611f5d565b610794565b60405190151581526020016101e5565b6102196107bf565b6040516101e59190611fca565b610239610234366004611fdd565b610851565b6040516001600160a01b0390911681526020016101e5565b61026461025f366004611ff6565b610878565b005b7fba4a693365d9f894d26ac920df9238906fb44bd4e5953c3f98de45bf0225db076101db565b6008546101db565b6102646102a2366004612022565b61098d565b6101db6102b5366004611ff6565b6109be565b6102646102c8366004612022565b610a54565b6102646102db366004611fdd565b610a6f565b6101db7f0a03fc9e6a2bf33f0b1011d488d44c4ad9dc6227a08becad8d5b89c68e449ee881565b6101db610315366004611fdd565b610b9c565b6101db7fba4a693365d9f894d26ac920df9238906fb44bd4e5953c3f98de45bf0225db0781565b61023961034f366004611fdd565b610c2f565b6101db610362366004612052565b610c8f565b6101db61037536600461206f565b610d15565b600a54610239906001600160a01b031681565b610219610d80565b6102016103a3366004611fdd565b610d8f565b6102646103b63660046120b9565b610de5565b6103ce6103c9366004612052565b610df4565b6040516101e591906120f2565b6102646103e936600461214c565b610e96565b6102646103fc366004612052565b610ec8565b61021961040f366004611fdd565b610fab565b610427610422366004611fdd565b61101f565b6040516101e59190612256565b6103ce610442366004611fdd565b6111e2565b6102016104553660046122e4565b6001600160a01b03918216600090815260056020908152604080832093909416825291909152205460ff1690565b600a54600090600160a01b900460ff166104b85760405162461bcd60e51b81526004016104af90612312565b60405180910390fd5b60006104e37f0a03fc9e6a2bf33f0b1011d488d44c4ad9dc6227a08becad8d5b89c68e449ee8611244565b604051631dbd3a3f60e21b81526004810187905233602482015290915081906001600160a01b038216906376f4e8fc90604401602060405180830381865afa158015610533573d6000803e3d6000fd5b505050506040513d601f19601f820116820180604052508101906105579190612354565b6105a35760405162461bcd60e51b815260206004820152601f60248201527f4c6963656e73654d6f64756c653a204e6f7420746865204950206f776e65720060448201526064016104af565b600c548411156106045760405162461bcd60e51b815260206004820152602660248201527f4c6963656e73654d6f64756c653a2054656d706c61746520646f6573206e6f7460448201526508195e1a5cdd60d21b60648201526084016104af565b610612600b80546001019055565b600061061d600b5490565b6000868152600f60209081526040808320848452600d909252909120815481549394509192909160ff1690829060ff191660018360038111156106625761066261222c565b02179055508154815460ff610100928390048116151590920261ff001982168117845584546201000090819004841615150262ff00001990911662ffff00199092169190911717808355835463010000009081900490921691839163ff0000001916908360028111156106d7576106d761222c565b02179055506001820154816001015560028201548160020155600382015481600301556004820181600401908161070e91906123f9565b5050506000818152600e602090815260408083208a905589835260108252808320805460018101825590845282842001849055838352600d90915290206002015415610780576000818152600d602052604090206002015461077090426124ec565b6000828152601160205260409020555b61078a8682611340565b9695505050505050565b60006001600160e01b0319821663780e9d6360e01b14806107b957506107b98261135a565b92915050565b6060600080546107ce90612371565b80601f01602080910402602001604051908101604052809291908181526020018280546107fa90612371565b80156108475780601f1061081c57610100808354040283529160200191610847565b820191906000526020600020905b81548152906001019060200180831161082a57829003601f168201915b5050505050905090565b600061085c826113aa565b506000908152600460205260409020546001600160a01b031690565b600061088382610c2f565b9050806001600160a01b0316836001600160a01b0316036108f05760405162461bcd60e51b815260206004820152602160248201527f4552433732313a20617070726f76616c20746f2063757272656e74206f776e656044820152603960f91b60648201526084016104af565b336001600160a01b038216148061090c575061090c8133610455565b61097e5760405162461bcd60e51b815260206004820152603d60248201527f4552433732313a20617070726f76652063616c6c6572206973206e6f7420746f60448201527f6b656e206f776e6572206f7220617070726f76656420666f7220616c6c00000060648201526084016104af565b61098883836113fd565b505050565b610997338261146b565b6109b35760405162461bcd60e51b81526004016104af906124ff565b6109888383836114ea565b60006109c983610c8f565b8210610a2b5760405162461bcd60e51b815260206004820152602b60248201527f455243373231456e756d657261626c653a206f776e657220696e646578206f7560448201526a74206f6620626f756e647360a81b60648201526084016104af565b506001600160a01b03919091166000908152600660209081526040808320938352929052205490565b61098883838360405180602001604052806000815250610e96565b610a788161165b565b610a945760405162461bcd60e51b81526004016104af9061254c565b6000818152600e602052604081205490610acd7f0a03fc9e6a2bf33f0b1011d488d44c4ad9dc6227a08becad8d5b89c68e449ee8611244565b604051631dbd3a3f60e21b81526004810184905233602482015290915081906001600160a01b038216906376f4e8fc90604401602060405180830381865afa158015610b1d573d6000803e3d6000fd5b505050506040513d601f19601f82011682018060405250810190610b419190612354565b610b8d5760405162461bcd60e51b815260206004820152601f60248201527f4c6963656e73654d6f64756c653a204e6f7420746865204950206f776e65720060448201526064016104af565b610b9684611678565b50505050565b6000610ba760085490565b8210610c0a5760405162461bcd60e51b815260206004820152602c60248201527f455243373231456e756d657261626c653a20676c6f62616c20696e646578206f60448201526b7574206f6620626f756e647360a01b60648201526084016104af565b60088281548110610c1d57610c1d612591565b90600052602060002001549050919050565b6000818152600260205260408120546001600160a01b0316806107b95760405162461bcd60e51b8152602060048201526018602482015277115490cdcc8c4e881a5b9d985b1a59081d1bdad95b88125160421b60448201526064016104af565b60006001600160a01b038216610cf95760405162461bcd60e51b815260206004820152602960248201527f4552433732313a2061646472657373207a65726f206973206e6f7420612076616044820152683634b21037bbb732b960b91b60648201526084016104af565b506001600160a01b031660009081526003602052604090205490565b600a54600090600160a01b900460ff16610d415760405162461bcd60e51b81526004016104af90612312565b610d4f600c80546001019055565b6000610d5a600c5490565b6000818152600f602052604090209091508390610d7782826126ff565b50909392505050565b6060600180546107ce90612371565b6000610d9a8261165b565b610da657506000919050565b60008281526011602052604090205415801590610dd0575060008281526011602052604090205442115b15610ddd57506000919050565b506001919050565b610df033838361171b565b5050565b60606000610e0183610c8f565b905060008167ffffffffffffffff811115610e1e57610e1e612136565b604051908082528060200260200182016040528015610e47578160200160208202803683370190505b50905060005b82811015610e8e57610e5f85826109be565b828281518110610e7157610e71612591565b602090810291909101015280610e86816127c0565b915050610e4d565b509392505050565b610ea0338361146b565b610ebc5760405162461bcd60e51b81526004016104af906124ff565b610b96848484846117e9565b600a54600160a01b900460ff1615610f225760405162461bcd60e51b815260206004820152601f60248201527f4d6f64756c65426173653a20416c726561647920696e697469616c697a65640060448201526064016104af565b6001600160a01b038116610f845760405162461bcd60e51b8152602060048201526024808201527f4d6f64756c65426173653a20496e76616c6964207265676973747279206164646044820152637265737360e01b60648201526084016104af565b600a80546001600160a81b0319166001600160a01b0390921691909117600160a01b179055565b6060610fb6826113aa565b6000610fcd60408051602081019091526000815290565b90506000815111610fed5760405180602001604052806000815250611018565b80610ff78461181c565b6040516020016110089291906127d9565b6040516020818303038152906040525b9392505050565b61106b6040805161010081019091528060008152600060208201819052604082018190526060909101908152602001600081526020016000815260200160008152602001606081525090565b6110748261165b565b6110905760405162461bcd60e51b81526004016104af9061254c565b6000828152600d602052604090819020815161010081019092528054829060ff1660038111156110c2576110c261222c565b60038111156110d3576110d361222c565b8152815460ff610100820481161515602084015262010000820481161515604084015260609092019163010000009091041660028111156111165761111661222c565b60028111156111275761112761222c565b815260200160018201548152602001600282015481526020016003820154815260200160048201805461115990612371565b80601f016020809104026020016040519081016040528092919081815260200182805461118590612371565b80156111d25780601f106111a7576101008083540402835291602001916111d2565b820191906000526020600020905b8154815290600101906020018083116111b557829003601f168201915b5050505050815250509050919050565b60008181526010602090815260409182902080548351818402810184019094528084526060939283018282801561123857602002820191906000526020600020905b815481526020019060010190808311611224575b50505050509050919050565b600a54600090600160a01b900460ff166112705760405162461bcd60e51b81526004016104af90612312565b600a546040516385acd64160e01b8152600481018490526000916001600160a01b0316906385acd64190602401602060405180830381865afa1580156112ba573d6000803e3d6000fd5b505050506040513d601f19601f820116820180604052508101906112de9190612808565b90506001600160a01b0381166107b95760405162461bcd60e51b815260206004820152602160248201527f4d6f64756c65426173653a204d6f64756c65206e6f74207265676973746572656044820152601960fa1b60648201526084016104af565b610df08282604051806020016040528060008152506118af565b60006001600160e01b031982166380ac58cd60e01b148061138b57506001600160e01b03198216635b5e139f60e01b145b806107b957506301ffc9a760e01b6001600160e01b03198316146107b9565b6113b38161165b565b6113fa5760405162461bcd60e51b8152602060048201526018602482015277115490cdcc8c4e881a5b9d985b1a59081d1bdad95b88125160421b60448201526064016104af565b50565b600081815260046020526040902080546001600160a01b0319166001600160a01b038416908117909155819061143282610c2f565b6001600160a01b03167f8c5be1e5ebec7d5bd14f71427d1e84f3dd0314c0f7b2291e5b200ac8c7c3b92560405160405180910390a45050565b60008061147783610c2f565b9050806001600160a01b0316846001600160a01b031614806114be57506001600160a01b0380821660009081526005602090815260408083209388168352929052205460ff165b806114e25750836001600160a01b03166114d784610851565b6001600160a01b0316145b949350505050565b826001600160a01b03166114fd82610c2f565b6001600160a01b0316146115235760405162461bcd60e51b81526004016104af90612825565b6001600160a01b0382166115855760405162461bcd60e51b8152602060048201526024808201527f4552433732313a207472616e7366657220746f20746865207a65726f206164646044820152637265737360e01b60648201526084016104af565b61159283838360016118e2565b826001600160a01b03166115a582610c2f565b6001600160a01b0316146115cb5760405162461bcd60e51b81526004016104af90612825565b600081815260046020908152604080832080546001600160a01b03199081169091556001600160a01b0387811680865260038552838620805460001901905590871680865283862080546001019055868652600290945282852080549092168417909155905184937fddf252ad1be2c89b69c2b068fc378daa952ba7f163c4a11628f55a4df523b3ef91a4505050565b6000908152600260205260409020546001600160a01b0316151590565b600061168382610c2f565b90506116938160008460016118e2565b61169c82610c2f565b600083815260046020908152604080832080546001600160a01b03199081169091556001600160a01b0385168085526003845282852080546000190190558785526002909352818420805490911690555192935084927fddf252ad1be2c89b69c2b068fc378daa952ba7f163c4a11628f55a4df523b3ef908390a45050565b816001600160a01b0316836001600160a01b03160361177c5760405162461bcd60e51b815260206004820152601960248201527f4552433732313a20617070726f766520746f2063616c6c65720000000000000060448201526064016104af565b6001600160a01b03838116600081815260056020908152604080832094871680845294825291829020805460ff191686151590811790915591519182527f17307eab39ab6107e8899845ad3d59bd9653f200f220920489ca2b5937696c31910160405180910390a3505050565b6117f48484846114ea565b61180084848484611a16565b610b965760405162461bcd60e51b81526004016104af9061286a565b6060600061182983611b17565b600101905060008167ffffffffffffffff81111561184957611849612136565b6040519080825280601f01601f191660200182016040528015611873576020820181803683370190505b5090508181016020015b600019016f181899199a1a9b1b9c1cb0b131b232b360811b600a86061a8153600a850494508461187d57509392505050565b6118b98383611bef565b6118c66000848484611a16565b6109885760405162461bcd60e51b81526004016104af9061286a565b60018111156119515760405162461bcd60e51b815260206004820152603560248201527f455243373231456e756d657261626c653a20636f6e7365637574697665207472604482015274185b9cd9995c9cc81b9bdd081cdd5c1c1bdc9d1959605a1b60648201526084016104af565b816001600160a01b0385166119ad576119a881600880546000838152600960205260408120829055600182018355919091527ff3f7a9fe364faab93b216da50a3214154f22a0a2b415b23a84c8169e8b636ee30155565b6119d0565b836001600160a01b0316856001600160a01b0316146119d0576119d08582611d6a565b6001600160a01b0384166119ec576119e781611e07565b611a0f565b846001600160a01b0316846001600160a01b031614611a0f57611a0f8482611eb6565b5050505050565b60006001600160a01b0384163b15611b0c57604051630a85bd0160e11b81526001600160a01b0385169063150b7a0290611a5a9033908990889088906004016128bc565b6020604051808303816000875af1925050508015611a95575060408051601f3d908101601f19168201909252611a92918101906128ef565b60015b611af2573d808015611ac3576040519150601f19603f3d011682016040523d82523d6000602084013e611ac8565b606091505b508051600003611aea5760405162461bcd60e51b81526004016104af9061286a565b805181602001fd5b6001600160e01b031916630a85bd0160e11b1490506114e2565b506001949350505050565b60008072184f03e93ff9f4daa797ed6e38ed64bf6a1f0160401b8310611b565772184f03e93ff9f4daa797ed6e38ed64bf6a1f0160401b830492506040015b6d04ee2d6d415b85acef81000000008310611b82576d04ee2d6d415b85acef8100000000830492506020015b662386f26fc100008310611ba057662386f26fc10000830492506010015b6305f5e1008310611bb8576305f5e100830492506008015b6127108310611bcc57612710830492506004015b60648310611bde576064830492506002015b600a83106107b95760010192915050565b6001600160a01b038216611c455760405162461bcd60e51b815260206004820181905260248201527f4552433732313a206d696e7420746f20746865207a65726f206164647265737360448201526064016104af565b611c4e8161165b565b15611c9b5760405162461bcd60e51b815260206004820152601c60248201527f4552433732313a20746f6b656e20616c7265616479206d696e7465640000000060448201526064016104af565b611ca96000838360016118e2565b611cb28161165b565b15611cff5760405162461bcd60e51b815260206004820152601c60248201527f4552433732313a20746f6b656e20616c7265616479206d696e7465640000000060448201526064016104af565b6001600160a01b038216600081815260036020908152604080832080546001019055848352600290915280822080546001600160a01b0319168417905551839291907fddf252ad1be2c89b69c2b068fc378daa952ba7f163c4a11628f55a4df523b3ef908290a45050565b60006001611d7784610c8f565b611d81919061290c565b600083815260076020526040902054909150808214611dd4576001600160a01b03841660009081526006602090815260408083208584528252808320548484528184208190558352600790915290208190555b5060009182526007602090815260408084208490556001600160a01b039094168352600681528383209183525290812055565b600854600090611e199060019061290c565b60008381526009602052604081205460088054939450909284908110611e4157611e41612591565b906000526020600020015490508060088381548110611e6257611e62612591565b6000918252602080832090910192909255828152600990915260408082208490558582528120556008805480611e9a57611e9a61291f565b6001900381819060005260206000200160009055905550505050565b6000611ec183610c8f565b6001600160a01b039093166000908152600660209081526040808320868452825280832085905593825260079052919091209190915550565b6001600160a01b03811681146113fa57600080fd5b600080600060608486031215611f2457600080fd5b833592506020840135611f3681611efa565b929592945050506040919091013590565b6001600160e01b0319811681146113fa57600080fd5b600060208284031215611f6f57600080fd5b813561101881611f47565b60005b83811015611f95578181015183820152602001611f7d565b50506000910152565b60008151808452611fb6816020860160208601611f7a565b601f01601f19169290920160200192915050565b6020815260006110186020830184611f9e565b600060208284031215611fef57600080fd5b5035919050565b6000806040838503121561200957600080fd5b823561201481611efa565b946020939093013593505050565b60008060006060848603121561203757600080fd5b833561204281611efa565b92506020840135611f3681611efa565b60006020828403121561206457600080fd5b813561101881611efa565b60006020828403121561208157600080fd5b813567ffffffffffffffff81111561209857600080fd5b8201610100818503121561101857600080fd5b80151581146113fa57600080fd5b600080604083850312156120cc57600080fd5b82356120d781611efa565b915060208301356120e7816120ab565b809150509250929050565b6020808252825182820181905260009190848201906040850190845b8181101561212a5783518352928401929184019160010161210e565b50909695505050505050565b634e487b7160e01b600052604160045260246000fd5b6000806000806080858703121561216257600080fd5b843561216d81611efa565b9350602085013561217d81611efa565b925060408501359150606085013567ffffffffffffffff808211156121a157600080fd5b818701915087601f8301126121b557600080fd5b8135818111156121c7576121c7612136565b604051601f8201601f19908116603f011681019083821181831017156121ef576121ef612136565b816040528281528a602084870101111561220857600080fd5b82602086016020830137600060208483010152809550505050505092959194509250565b634e487b7160e01b600052602160045260246000fd5b600381106122525761225261222c565b9052565b60208152600082516004811061226e5761226e61222c565b806020840152506020830151612288604084018215159052565b50604083015180151560608401525060608301516122a96080840182612242565b50608083015160a083015260a083015160c083015260c083015160e083015260e08301516101008081850152506114e2610120840182611f9e565b600080604083850312156122f757600080fd5b823561230281611efa565b915060208301356120e781611efa565b60208082526022908201527f4d6f64756c65426173653a204d6f64756c65206e6f7420696e697469616c697a604082015261195960f21b606082015260800190565b60006020828403121561236657600080fd5b8151611018816120ab565b600181811c9082168061238557607f821691505b6020821081036123a557634e487b7160e01b600052602260045260246000fd5b50919050565b601f82111561098857600081815260208120601f850160051c810160208610156123d25750805b601f850160051c820191505b818110156123f1578281556001016123de565b505050505050565b818103612404575050565b61240e8254612371565b67ffffffffffffffff81111561242657612426612136565b61243a816124348454612371565b846123ab565b6000601f82116001811461246e57600083156124565750848201545b600019600385901b1c1916600184901b178455611a0f565b600085815260209020601f19841690600086815260209020845b838110156124a85782860154825560019586019590910190602001612488565b50858310156124c65781850154600019600388901b60f8161c191681555b5050505050600190811b01905550565b634e487b7160e01b600052601160045260246000fd5b808201808211156107b9576107b96124d6565b6020808252602d908201527f4552433732313a2063616c6c6572206973206e6f7420746f6b656e206f776e6560408201526c1c881bdc88185c1c1c9bdd9959609a1b606082015260800190565b60208082526025908201527f4c6963656e73654d6f64756c653a204c6963656e736520646f6573206e6f7420604082015264195e1a5cdd60da1b606082015260800190565b634e487b7160e01b600052603260045260246000fd5b600081356107b9816120ab565b60008135600381106107b957600080fd5b600382106125d5576125d561222c565b805463ff0000008360181b1663ff000000198216178255505050565b6000808335601e1984360301811261260857600080fd5b83018035915067ffffffffffffffff82111561262357600080fd5b60200191503681900382131561263857600080fd5b9250929050565b67ffffffffffffffff83111561265757612657612136565b61266b836126658354612371565b836123ab565b6000601f84116001811461269f57600085156126875750838201355b600019600387901b1c1916600186901b178355611a0f565b600083815260209020601f19861690835b828110156126d057868501358255602094850194600190920191016126b0565b50868210156126ed5760001960f88860031b161c19848701351681555b505060018560011b0183555050505050565b81356004811061270e57600080fd5b60ff1982541660ff821681178355505061274761272d602084016125a7565b82805461ff00191691151560081b61ff0016919091179055565b612772612756604084016125a7565b82805462ff0000191691151560101b62ff000016919091179055565b612787612781606084016125b4565b826125c5565b6080820135600182015560a0820135600282015560c082013560038201556127b260e08301836125f1565b610b9681836004860161263f565b6000600182016127d2576127d26124d6565b5060010190565b600083516127eb818460208801611f7a565b8351908301906127ff818360208801611f7a565b01949350505050565b60006020828403121561281a57600080fd5b815161101881611efa565b60208082526025908201527f4552433732313a207472616e736665722066726f6d20696e636f72726563742060408201526437bbb732b960d91b606082015260800190565b60208082526032908201527f4552433732313a207472616e7366657220746f206e6f6e20455243373231526560408201527131b2b4bb32b91034b6b83632b6b2b73a32b960711b606082015260800190565b6001600160a01b038581168252841660208201526040810183905260806060820181905260009061078a90830184611f9e565b60006020828403121561290157600080fd5b815161101881611f47565b818103818111156107b9576107b96124d6565b634e487b7160e01b600052603160045260246000fdfea26469706673582212207393925a5c941f17bb6427ead675cf08f92a5470f8ca3d871fd2f487dedb46bb64736f6c63430008110033",
  "linkReferences": {},
  "deployedLinkReferences": {}
}