{
  "_format": "hh-sol-artifact-1",
  "contractName": "Registry",
  "sourceName": "contracts/Registry.sol",
  "abi": [
    {
      "anonymous": false,
      "inputs": [
        {
          "indexed": true,
          "internalType": "bytes32",
          "name": "name",
          "type": "bytes32"
        },
        {
          "indexed": true,
          "internalType": "address",
          "name": "moduleAddress",
          "type": "address"
        }
      ],
      "name": "ModuleRegistered",
      "type": "event"
    },
    {
      "anonymous": false,
      "inputs": [
        {
          "indexed": true,
          "internalType": "bytes32",
          "name": "name",
          "type": "bytes32"
        },
        {
          "indexed": true,
          "internalType": "address",
          "name": "oldAddress",
          "type": "address"
        },
        {
          "indexed": true,
          "internalType": "address",
          "name": "newAddress",
          "type": "address"
        }
      ],
      "name": "ModuleUpdated",
      "type": "event"
    },
    {
      "anonymous": false,
      "inputs": [
        {
          "indexed": true,
          "internalType": "address",
          "name": "previousOwner",
          "type": "address"
        },
        {
          "indexed": true,
          "internalType": "address",
          "name": "newOwner",
          "type": "address"
        }
      ],
      "name": "OwnershipTransferred",
      "type": "event"
    },
    {
      "inputs": [
        {
          "internalType": "bytes32",
          "name": "name",
          "type": "bytes32"
        }
      ],
      "name": "getModule",
      "outputs": [
        {
          "internalType": "address",
          "name": "",
          "type": "address"
        }
      ],
      "stateMutability": "view",
      "type": "function"
    },
    {
      "inputs": [
        {
          "internalType": "bytes32",
          "name": "name",
          "type": "bytes32"
        }
      ],
      "name": "isModuleRegistered",
      "outputs": [
        {
          "internalType": "bool",
          "name": "",
          "type": "bool"
        }
      ],
      "stateMutability": "view",
      "type": "function"
    },
    {
      "inputs": [],
      "name": "owner",
      "outputs": [
        {
          "internalType": "address",
          "name": "",
          "type": "address"
        }
      ],
      "stateMutability": "view",
      "type": "function"
    },
    {
      "inputs": [
        {
          "internalType": "bytes32",
          "name": "name",
          "type": "bytes32"
        },
        {
          "internalType": "address",
          "name": "moduleAddress",
          "type": "address"
        }
      ],
      "name": "registerModule",
      "outputs": [],
      "stateMutability": "nonpayable",
      "type": "function"
    },
    {
      "inputs": [],
      "name": "renounceOwnership",
      "outputs": [],
      "stateMutability": "nonpayable",
      "type": "function"
    },
    {
      "inputs": [
        {
          "internalType": "address",
          "name": "newOwner",
          "type": "address"
        }
      ],
      "name": "transferOwnership",
      "outputs": [],
      "stateMutability": "nonpayable",
      "type": "function"
    },
    {
      "inputs": [
        {
          "internalType": "bytes32",
          "name": "name",
          "type": "bytes32"
        },
        {
          "internalType": "address",
          "name": "newAddress",
          "type": "address"
        }
      ],
      "name": "updateModule",
      "outputs": [],
      "stateMutability": "nonpayable",
      "type": "function"
    }
  ],
  "bytecode": "0x608060405234801561001057600080fd5b5061001a3361001f565b61006f565b600080546001600160a01b038381166001600160a01b0319831681178455604051919092169283917f8be0079c531659141344cd1fd0a4f28419497f9722a3daafe3b4186f6b6457e09190a35050565b6105948061007e6000396000f3fe608060405234801561001057600080fd5b506004361061007d5760003560e01c80638da5cb5b1161005b5780638da5cb5b1461010d578063a78e922b1461011e578063c097b1fb14610131578063f2fde38b1461014457600080fd5b8063715018a61461008257806375fdf4271461008c57806385acd641146100cc575b600080fd5b61008a610157565b005b6100b761009a3660046104db565b6000908152600160205260409020546001600160a01b0316151590565b60405190151581526020015b60405180910390f35b6100f56100da3660046104db565b6000908152600160205260409020546001600160a01b031690565b6040516001600160a01b0390911681526020016100c3565b6000546001600160a01b03166100f5565b61008a61012c366004610510565b61016b565b61008a61013f366004610510565b610298565b61008a61015236600461053c565b6103b8565b61015f610431565b610169600061048b565b565b610173610431565b6001600160a01b0381166101ce5760405162461bcd60e51b815260206004820181905260248201527f52656769737472793a20496e76616c6964206d6f64756c65206164647265737360448201526064015b60405180910390fd5b6000828152600160205260409020546001600160a01b03161561023f5760405162461bcd60e51b815260206004820152602360248201527f52656769737472793a204d6f64756c6520616c726561647920726567697374656044820152621c995960ea1b60648201526084016101c5565b60008281526001602052604080822080546001600160a01b0319166001600160a01b0385169081179091559051909184917fd63be02155b46636309fb0a4a79647c60971aecaad53cbc83aad90cd75fd9d549190a35050565b6102a0610431565b6001600160a01b0381166102f65760405162461bcd60e51b815260206004820181905260248201527f52656769737472793a20496e76616c6964206d6f64756c65206164647265737360448201526064016101c5565b6000828152600160205260409020546001600160a01b031661035a5760405162461bcd60e51b815260206004820152601f60248201527f52656769737472793a204d6f64756c65206e6f7420726567697374657265640060448201526064016101c5565b60008281526001602052604080822080546001600160a01b031981166001600160a01b038681169182179093559251911692839186917fbe59b1ad7b24549601b98854029a8be9cd632ee55e4472692aa2542e668496e091a4505050565b6103c0610431565b6001600160a01b0381166104255760405162461bcd60e51b815260206004820152602660248201527f4f776e61626c653a206e6577206f776e657220697320746865207a65726f206160448201526564647265737360d01b60648201526084016101c5565b61042e8161048b565b50565b6000546001600160a01b031633146101695760405162461bcd60e51b815260206004820181905260248201527f4f776e61626c653a2063616c6c6572206973206e6f7420746865206f776e657260448201526064016101c5565b600080546001600160a01b038381166001600160a01b0319831681178455604051919092169283917f8be0079c531659141344cd1fd0a4f28419497f9722a3daafe3b4186f6b6457e09190a35050565b6000602082840312156104ed57600080fd5b5035919050565b80356001600160a01b038116811461050b57600080fd5b919050565b6000806040838503121561052357600080fd5b82359150610533602084016104f4565b90509250929050565b60006020828403121561054e57600080fd5b610557826104f4565b939250505056fea2646970667358221220cc5bf7d45f58f1bb28594f20fe1b1e4d9af5a5d25341bdd399f90d35ee0c32b564736f6c63430008110033",
  "linkReferences": {},
  "deployedLinkReferences": {}
}