{
  "_format": "hh-sol-artifact-1",
  "contractName": "ResearchProject",
  "sourceName": "contracts/ResearchProject.sol",
  "abi": [
    {
      "inputs": [],
      "stateMutability": "nonpayable",
      "type": "constructor"
    },
    {
      "anonymous": false,
      "inputs": [
        {
          "indexed": true,
          "internalType": "address",
          "name": "account",
          "type": "address"
        },
        {
          "indexed": true,
          "internalType": "address",
          "name": "operator",
          "type": "address"
        },
        {
          "indexed": false,
          "internalType": "bool",
          "name": "approved",
          "type": "bool"
        }
      ],
      "name": "ApprovalForAll",
      "type": "event"
    },
    {
      "anonymous": false,
      "inputs": [
        {
          "indexed": true,
          "internalType": "uint256",
          "name": "projectId",
          "type": "uint256"
        },
        {
          "indexed": true,
          "internalType": "uint256",
          "name": "milestoneId",
          "type": "uint256"
        },
        {
          "indexed": false,
          "internalType": "uint256",
          "name": "amount",
          "type": "uint256"
        }
      ],
      "name": "FundsReleased",
      "type": "event"
    },
    {
      "anonymous": false,
      "inputs": [
        {
          "indexed": true,
          "internalType": "uint256",
          "name": "projectId",
          "type": "uint256"
        },
        {
          "indexed": true,
          "internalType": "uint256",
          "name": "milestoneId",
          "type": "uint256"
        },
        {
          "indexed": false,
          "internalType": "string",
          "name": "description",
          "type": "string"
        },
        {
          "indexed": false,
          "internalType": "uint256",
          "name": "targetAmount",
          "type": "uint256"
        }
      ],
      "name": "MilestoneAdded",
      "type": "event"
    },
    {
      "anonymous": false,
      "inputs": [
        {
          "indexed": true,
          "internalType": "uint256",
          "name": "projectId",
          "type": "uint256"
        },
        {
          "indexed": true,
          "internalType": "uint256",
          "name": "milestoneId",
          "type": "uint256"
        }
      ],
      "name": "MilestoneCompleted",
      "type": "event"
    },
    {
      "anonymous": false,
      "inputs": [
        {
          "indexed": true,
          "internalType": "uint256",
          "name": "projectId",
          "type": "uint256"
        },
        {
          "indexed": true,
          "internalType": "address",
          "name": "researcher",
          "type": "address"
        },
        {
          "indexed": false,
          "internalType": "string",
          "name": "title",
          "type": "string"
        },
        {
          "indexed": false,
          "internalType": "string",
          "name": "category",
          "type": "string"
        }
      ],
      "name": "ProjectCreated",
      "type": "event"
    },
    {
      "anonymous": false,
      "inputs": [
        {
          "indexed": true,
          "internalType": "uint256",
          "name": "projectId",
          "type": "uint256"
        },
        {
          "indexed": true,
          "internalType": "address",
          "name": "backer",
          "type": "address"
        },
        {
          "indexed": false,
          "internalType": "uint256",
          "name": "amount",
          "type": "uint256"
        }
      ],
      "name": "ProjectFunded",
      "type": "event"
    },
    {
      "anonymous": false,
      "inputs": [
        {
          "indexed": true,
          "internalType": "address",
          "name": "operator",
          "type": "address"
        },
        {
          "indexed": true,
          "internalType": "address",
          "name": "from",
          "type": "address"
        },
        {
          "indexed": true,
          "internalType": "address",
          "name": "to",
          "type": "address"
        },
        {
          "indexed": false,
          "internalType": "uint256[]",
          "name": "ids",
          "type": "uint256[]"
        },
        {
          "indexed": false,
          "internalType": "uint256[]",
          "name": "values",
          "type": "uint256[]"
        }
      ],
      "name": "TransferBatch",
      "type": "event"
    },
    {
      "anonymous": false,
      "inputs": [
        {
          "indexed": true,
          "internalType": "address",
          "name": "operator",
          "type": "address"
        },
        {
          "indexed": true,
          "internalType": "address",
          "name": "from",
          "type": "address"
        },
        {
          "indexed": true,
          "internalType": "address",
          "name": "to",
          "type": "address"
        },
        {
          "indexed": false,
          "internalType": "uint256",
          "name": "id",
          "type": "uint256"
        },
        {
          "indexed": false,
          "internalType": "uint256",
          "name": "value",
          "type": "uint256"
        }
      ],
      "name": "TransferSingle",
      "type": "event"
    },
    {
      "anonymous": false,
      "inputs": [
        {
          "indexed": false,
          "internalType": "string",
          "name": "value",
          "type": "string"
        },
        {
          "indexed": true,
          "internalType": "uint256",
          "name": "id",
          "type": "uint256"
        }
      ],
      "name": "URI",
      "type": "event"
    },
    {
      "inputs": [
        {
          "internalType": "address",
          "name": "account",
          "type": "address"
        },
        {
          "internalType": "uint256",
          "name": "id",
          "type": "uint256"
        }
      ],
      "name": "balanceOf",
      "outputs": [
        {
          "internalType": "uint256",
          "name": "",
          "type": "uint256"
        }
      ],
      "stateMutability": "view",
      "type": "function"
    },
    {
      "inputs": [
        {
          "internalType": "address[]",
          "name": "accounts",
          "type": "address[]"
        },
        {
          "internalType": "uint256[]",
          "name": "ids",
          "type": "uint256[]"
        }
      ],
      "name": "balanceOfBatch",
      "outputs": [
        {
          "internalType": "uint256[]",
          "name": "",
          "type": "uint256[]"
        }
      ],
      "stateMutability": "view",
      "type": "function"
    },
    {
      "inputs": [
        {
          "internalType": "uint256",
          "name": "projectId",
          "type": "uint256"
        },
        {
          "internalType": "uint256",
          "name": "milestoneId",
          "type": "uint256"
        }
      ],
      "name": "completeMilestone",
      "outputs": [],
      "stateMutability": "nonpayable",
      "type": "function"
    },
    {
      "inputs": [
        {
          "internalType": "uint256",
          "name": "",
          "type": "uint256"
        },
        {
          "internalType": "address",
          "name": "",
          "type": "address"
        }
      ],
      "name": "contributions",
      "outputs": [
        {
          "internalType": "uint256",
          "name": "",
          "type": "uint256"
        }
      ],
      "stateMutability": "view",
      "type": "function"
    },
    {
      "inputs": [
        {
          "internalType": "string",
          "name": "title",
          "type": "string"
        },
        {
          "internalType": "string",
          "name": "description",
          "type": "string"
        },
        {
          "internalType": "string",
          "name": "category",
          "type": "string"
        },
        {
          "internalType": "string[]",
          "name": "milestoneDescriptions",
          "type": "string[]"
        },
        {
          "internalType": "uint256[]",
          "name": "milestoneTargets",
          "type": "uint256[]"
        }
      ],
      "name": "createProject",
      "outputs": [
        {
          "internalType": "uint256",
          "name": "",
          "type": "uint256"
        }
      ],
      "stateMutability": "nonpayable",
      "type": "function"
    },
    {
      "inputs": [
        {
          "internalType": "uint256",
          "name": "projectId",
          "type": "uint256"
        }
      ],
      "name": "fundProject",
      "outputs": [],
      "stateMutability": "payable",
      "type": "function"
    },
    {
      "inputs": [
        {
          "internalType": "uint256",
          "name": "projectId",
          "type": "uint256"
        },
        {
          "internalType": "address",
          "name": "backer",
          "type": "address"
        }
      ],
      "name": "getContribution",
      "outputs": [
        {
          "internalType": "uint256",
          "name": "",
          "type": "uint256"
        }
      ],
      "stateMutability": "view",
      "type": "function"
    },
    {
      "inputs": [
        {
          "internalType": "uint256",
          "name": "projectId",
          "type": "uint256"
        },
        {
          "internalType": "uint256",
          "name": "milestoneId",
          "type": "uint256"
        }
      ],
      "name": "getMilestone",
      "outputs": [
        {
          "internalType": "string",
          "name": "description",
          "type": "string"
        },
        {
          "internalType": "uint256",
          "name": "targetAmount",
          "type": "uint256"
        },
        {
          "internalType": "uint256",
          "name": "currentAmount",
          "type": "uint256"
        },
        {
          "internalType": "bool",
          "name": "isCompleted",
          "type": "bool"
        },
        {
          "internalType": "bool",
          "name": "fundsReleased",
          "type": "bool"
        }
      ],
      "stateMutability": "view",
      "type": "function"
    },
    {
      "inputs": [
        {
          "internalType": "uint256",
          "name": "projectId",
          "type": "uint256"
        }
      ],
      "name": "getProject",
      "outputs": [
        {
          "internalType": "string",
          "name": "title",
          "type": "string"
        },
        {
          "internalType": "string",
          "name": "description",
          "type": "string"
        },
        {
          "internalType": "address",
          "name": "researcher",
          "type": "address"
        },
        {
          "internalType": "uint256",
          "name": "totalFunding",
          "type": "uint256"
        },
        {
          "internalType": "uint256",
          "name": "currentFunding",
          "type": "uint256"
        },
        {
          "internalType": "bool",
          "name": "isActive",
          "type": "bool"
        },
        {
          "internalType": "string",
          "name": "category",
          "type": "string"
        },
        {
          "internalType": "uint256",
          "name": "createdAt",
          "type": "uint256"
        }
      ],
      "stateMutability": "view",
      "type": "function"
    },
    {
      "inputs": [
        {
          "internalType": "address",
          "name": "account",
          "type": "address"
        },
        {
          "internalType": "address",
          "name": "operator",
          "type": "address"
        }
      ],
      "name": "isApprovedForAll",
      "outputs": [
        {
          "internalType": "bool",
          "name": "",
          "type": "bool"
        }
      ],
      "stateMutability": "view",
      "type": "function"
    },
    {
      "inputs": [
        {
          "internalType": "uint256",
          "name": "",
          "type": "uint256"
        },
        {
          "internalType": "uint256",
          "name": "",
          "type": "uint256"
        }
      ],
      "name": "milestones",
      "outputs": [
        {
          "internalType": "string",
          "name": "description",
          "type": "string"
        },
        {
          "internalType": "uint256",
          "name": "targetAmount",
          "type": "uint256"
        },
        {
          "internalType": "uint256",
          "name": "currentAmount",
          "type": "uint256"
        },
        {
          "internalType": "bool",
          "name": "isCompleted",
          "type": "bool"
        },
        {
          "internalType": "bool",
          "name": "fundsReleased",
          "type": "bool"
        }
      ],
      "stateMutability": "view",
      "type": "function"
    },
    {
      "inputs": [
        {
          "internalType": "uint256",
          "name": "",
          "type": "uint256"
        }
      ],
      "name": "projects",
      "outputs": [
        {
          "internalType": "uint256",
          "name": "projectId",
          "type": "uint256"
        },
        {
          "internalType": "string",
          "name": "title",
          "type": "string"
        },
        {
          "internalType": "string",
          "name": "description",
          "type": "string"
        },
        {
          "internalType": "address",
          "name": "researcher",
          "type": "address"
        },
        {
          "internalType": "uint256",
          "name": "totalFunding",
          "type": "uint256"
        },
        {
          "internalType": "uint256",
          "name": "currentFunding",
          "type": "uint256"
        },
        {
          "internalType": "bool",
          "name": "isActive",
          "type": "bool"
        },
        {
          "internalType": "string",
          "name": "category",
          "type": "string"
        },
        {
          "internalType": "uint256",
          "name": "createdAt",
          "type": "uint256"
        }
      ],
      "stateMutability": "view",
      "type": "function"
    },
    {
      "inputs": [
        {
          "internalType": "uint256",
          "name": "projectId",
          "type": "uint256"
        },
        {
          "internalType": "uint256",
          "name": "milestoneId",
          "type": "uint256"
        }
      ],
      "name": "releaseFunds",
      "outputs": [],
      "stateMutability": "nonpayable",
      "type": "function"
    },
    {
      "inputs": [
        {
          "internalType": "address",
          "name": "from",
          "type": "address"
        },
        {
          "internalType": "address",
          "name": "to",
          "type": "address"
        },
        {
          "internalType": "uint256[]",
          "name": "ids",
          "type": "uint256[]"
        },
        {
          "internalType": "uint256[]",
          "name": "amounts",
          "type": "uint256[]"
        },
        {
          "internalType": "bytes",
          "name": "data",
          "type": "bytes"
        }
      ],
      "name": "safeBatchTransferFrom",
      "outputs": [],
      "stateMutability": "nonpayable",
      "type": "function"
    },
    {
      "inputs": [
        {
          "internalType": "address",
          "name": "from",
          "type": "address"
        },
        {
          "internalType": "address",
          "name": "to",
          "type": "address"
        },
        {
          "internalType": "uint256",
          "name": "id",
          "type": "uint256"
        },
        {
          "internalType": "uint256",
          "name": "amount",
          "type": "uint256"
        },
        {
          "internalType": "bytes",
          "name": "data",
          "type": "bytes"
        }
      ],
      "name": "safeTransferFrom",
      "outputs": [],
      "stateMutability": "nonpayable",
      "type": "function"
    },
    {
      "inputs": [
        {
          "internalType": "address",
          "name": "operator",
          "type": "address"
        },
        {
          "internalType": "bool",
          "name": "approved",
          "type": "bool"
        }
      ],
      "name": "setApprovalForAll",
      "outputs": [],
      "stateMutability": "nonpayable",
      "type": "function"
    },
    {
      "inputs": [
        {
          "internalType": "bytes4",
          "name": "interfaceId",
          "type": "bytes4"
        }
      ],
      "name": "supportsInterface",
      "outputs": [
        {
          "internalType": "bool",
          "name": "",
          "type": "bool"
        }
      ],
      "stateMutability": "view",
      "type": "function"
    },
    {
      "inputs": [
        {
          "internalType": "uint256",
          "name": "",
          "type": "uint256"
        }
      ],
      "name": "uri",
      "outputs": [
        {
          "internalType": "string",
          "name": "",
          "type": "string"
        }
      ],
      "stateMutability": "view",
      "type": "function"
    }
  ],
  "bytecode": "0x60806040523480156200001157600080fd5b506040805160208101909152600081526200002c8162000038565b506001600355620001bb565b6002620000468282620000ef565b5050565b634e487b7160e01b600052604160045260246000fd5b600181811c908216806200007557607f821691505b6020821081036200009657634e487b7160e01b600052602260045260246000fd5b50919050565b601f821115620000ea57600081815260208120601f850160051c81016020861015620000c55750805b601f850160051c820191505b81811015620000e657828155600101620000d1565b5050505b505050565b81516001600160401b038111156200010b576200010b6200004a565b62000123816200011c845462000060565b846200009c565b602080601f8311600181146200015b5760008415620001425750858301515b600019600386901b1c1916600185901b178555620000e6565b600085815260208120601f198616915b828110156200018c578886015182559484019460019091019084016200016b565b5085821015620001ab5787850151600019600388901b60f8161c191681555b5050505050600190811b01905550565b612c1280620001cb6000396000f3fe6080604052600436106101085760003560e01c80638ed9895c11610095578063e081dbf911610064578063e081dbf91461031d578063e985e9c514610360578063f0f3f2c8146103a9578063f242432a146103dd578063f326206b146103fd57600080fd5b80638ed9895c1461029d578063a22cb465146102bd578063ca95fad4146102dd578063df7843ae146102fd57600080fd5b80631c376c63116100dc5780631c376c63146101d25780632eb2c2d6146102035780633d891f59146102255780634e1273f41461025d5780636c563abe1461028a57600080fd5b8062fdd58e1461010d57806301ffc9a7146101405780630e89341c14610170578063107046bd1461019d575b600080fd5b34801561011957600080fd5b5061012d610128366004611f92565b61041d565b6040519081526020015b60405180910390f35b34801561014c57600080fd5b5061016061015b366004611fd2565b6104b6565b6040519015158152602001610137565b34801561017c57600080fd5b5061019061018b366004611ff6565b610506565b6040516101379190612055565b3480156101a957600080fd5b506101bd6101b8366004611ff6565b61059a565b60405161013799989796959493929190612068565b3480156101de57600080fd5b506101f26101ed3660046120e7565b61078b565b604051610137959493929190612109565b34801561020f57600080fd5b5061022361021e36600461228e565b610854565b005b34801561023157600080fd5b5061012d610240366004612338565b600760209081526000928352604080842090915290825290205481565b34801561026957600080fd5b5061027d610278366004612364565b6108a0565b604051610137919061246a565b610223610298366004611ff6565b6109ca565b3480156102a957600080fd5b506101f26102b83660046120e7565b610c92565b3480156102c957600080fd5b506102236102d836600461247d565b610d78565b3480156102e957600080fd5b5061012d6102f8366004612544565b610d87565b34801561030957600080fd5b506102236103183660046120e7565b6111d1565b34801561032957600080fd5b5061012d610338366004612338565b60009182526007602090815260408084206001600160a01b0393909316845291905290205490565b34801561036c57600080fd5b5061016061037b366004612609565b6001600160a01b03918216600090815260016020908152604080832093909416825291909152205460ff1690565b3480156103b557600080fd5b506103c96103c4366004611ff6565b611394565b604051610137989796959493929190612633565b3480156103e957600080fd5b506102236103f83660046126aa565b6115bc565b34801561040957600080fd5b506102236104183660046120e7565b611601565b60006001600160a01b03831661048d5760405162461bcd60e51b815260206004820152602a60248201527f455243313135353a2061646472657373207a65726f206973206e6f742061207660448201526930b634b21037bbb732b960b11b60648201526084015b60405180910390fd5b506000818152602081815260408083206001600160a01b03861684529091529020545b92915050565b60006001600160e01b03198216636cdb3d1360e11b14806104e757506001600160e01b031982166303a24d0760e21b145b806104b057506301ffc9a760e01b6001600160e01b03198316146104b0565b6060600280546105159061270f565b80601f01602080910402602001604051908101604052809291908181526020018280546105419061270f565b801561058e5780601f106105635761010080835404028352916020019161058e565b820191906000526020600020905b81548152906001019060200180831161057157829003601f168201915b50505050509050919050565b600560205260009081526040902080546001820180549192916105bc9061270f565b80601f01602080910402602001604051908101604052809291908181526020018280546105e89061270f565b80156106355780601f1061060a57610100808354040283529160200191610635565b820191906000526020600020905b81548152906001019060200180831161061857829003601f168201915b50505050509080600201805461064a9061270f565b80601f01602080910402602001604051908101604052809291908181526020018280546106769061270f565b80156106c35780601f10610698576101008083540402835291602001916106c3565b820191906000526020600020905b8154815290600101906020018083116106a657829003601f168201915b505050600384015460048501546005860154600687015460088801805497986001600160a01b039095169793965091945060ff1692916107029061270f565b80601f016020809104026020016040519081016040528092919081815260200182805461072e9061270f565b801561077b5780601f106107505761010080835404028352916020019161077b565b820191906000526020600020905b81548152906001019060200180831161075e57829003601f168201915b5050505050908060090154905089565b60066020908152600092835260408084209091529082529020805481906107b19061270f565b80601f01602080910402602001604051908101604052809291908181526020018280546107dd9061270f565b801561082a5780601f106107ff5761010080835404028352916020019161082a565b820191906000526020600020905b81548152906001019060200180831161080d57829003601f168201915b50505050600183015460028401546003909401549293909290915060ff8082169161010090041685565b6001600160a01b0385163314806108705750610870853361037b565b61088c5760405162461bcd60e51b815260040161048490612749565b6108998585858585611761565b5050505050565b606081518351146109055760405162461bcd60e51b815260206004820152602960248201527f455243313135353a206163636f756e747320616e6420696473206c656e677468604482015268040dad2e6dac2e8c6d60bb1b6064820152608401610484565b6000835167ffffffffffffffff81111561092157610921612142565b60405190808252806020026020018201604052801561094a578160200160208202803683370190505b50905060005b84518110156109c25761099585828151811061096e5761096e612797565b602002602001015185838151811061098857610988612797565b602002602001015161041d565b8282815181106109a7576109a7612797565b60209081029190910101526109bb816127c3565b9050610950565b509392505050565b6109d261193e565b6000818152600560205260409020600681015460ff16610a2c5760405162461bcd60e51b815260206004820152601560248201527450726f6a656374206973206e6f742061637469766560581b6044820152606401610484565b60003411610a7c5760405162461bcd60e51b815260206004820152601d60248201527f416d6f756e74206d7573742062652067726561746572207468616e20300000006044820152606401610484565b8060040154348260050154610a9191906127dc565b1115610ad65760405162461bcd60e51b8152602060048201526014602482015273115e18d959591cc8199d5b991a5b99c819dbd85b60621b6044820152606401610484565b34816005016000828254610aea91906127dc565b9091555050600082815260076020908152604080832033845290915281208054349290610b189084906127dc565b92505081905550610b3a33833460405180602001604052806000815250611997565b604051348152339083907f6251418ffd7f504740544ec3d578897633e212c5d658b7dce793c5dc9d2e855e9060200160405180910390a360005b6007820154811015610c8357600083815260066020526040812060078401805483919085908110610ba757610ba7612797565b600091825260208083209091015483528201929092526040019020600381015490915060ff16610c70576000836004015482600101548560050154610bec91906127ef565b610bf69190612806565b6002830181905560018301549091508110610c695760038201805460ff1916600117905560078401805484908110610c3057610c30612797565b9060005260206000200154857f1b7218c0ac23ea9cbe4df603d2b340fbf469a115b73ea3d11460727f445d6be160405160405180910390a35b5050610c83565b5080610c7b816127c3565b915050610b74565b5050610c8f6001600355565b50565b600082815260066020908152604080832084845290915281206001810154600282015460038301548354606095948594859485949293849360ff8082169261010090920416908590610ce39061270f565b80601f0160208091040260200160405190810160405280929190818152602001828054610d0f9061270f565b8015610d5c5780601f10610d3157610100808354040283529160200191610d5c565b820191906000526020600020905b815481529060010190602001808311610d3f57829003601f168201915b5050505050945095509550955095509550509295509295909350565b610d83338383611aab565b5050565b6000610d9161193e565b8151835114610de25760405162461bcd60e51b815260206004820152601b60248201527f4d69736d617463686564206d696c6573746f6e6520696e7075747300000000006044820152606401610484565b6000835111610e2c5760405162461bcd60e51b8152602060048201526016602482015275139bc81b5a5b195cdd1bdb995cc81c1c9bdd9a59195960521b6044820152606401610484565b610e3a600480546001019055565b6000610e4560045490565b90506000845167ffffffffffffffff811115610e6357610e63612142565b604051908082528060200260200182016040528015610e8c578160200160208202803683370190505b5090506000805b865181101561105d57610ea78160016127dc565b838281518110610eb957610eb9612797565b6020026020010181815250506040518060a00160405280888381518110610ee257610ee2612797565b60200260200101518152602001878381518110610f0157610f01612797565b602002602001015181526020016000815260200160001515815260200160001515815250600660008681526020019081526020016000206000836001610f4791906127dc565b8152602081019190915260400160002081518190610f659082612873565b50602082015160018201556040820151600282015560608201516003909101805460809093015115156101000261ff00199215159290921661ffff19909316929092171790558551869082908110610fbf57610fbf612797565b602002602001015182610fd291906127dc565b9150610fdf8160016127dc565b847fc67423104bf96f5ca8826913ae711e8c2254e1b2c04af907b2312853ed4cbed289848151811061101357611013612797565b602002602001015189858151811061102d5761102d612797565b6020026020010151604051611043929190612933565b60405180910390a380611055816127c3565b915050610e93565b50604080516101408101825284815260208082018c81528284018c905233606084015260808301859052600060a08401819052600160c0850181905260e0850188905261010085018d905242610120860152888252600590935293909320825181559251919291908201906110d29082612873565b50604082015160028201906110e79082612873565b5060608201516003820180546001600160a01b0319166001600160a01b039092169190911790556080820151600482015560a0820151600582015560c082015160068201805460ff191691151591909117905560e08201518051611155916007840191602090910190611f16565b50610100820151600882019061116b9082612873565b506101208201518160090155905050336001600160a01b0316837fa7f8f582d090b5312bbe3d5f616508e184319e9e0f3824445f07745728304c5f8b8a6040516111b6929190612955565b60405180910390a35050600160035590505b95945050505050565b6111d961193e565b600082815260056020526040902060038101546001600160a01b031633146112385760405162461bcd60e51b81526020600482015260126024820152712737ba103a3432903932b9b2b0b931b432b960711b6044820152606401610484565b60008381526006602090815260408083208584529091529020600381015460ff166112a55760405162461bcd60e51b815260206004820152601760248201527f4d696c6573746f6e65206e6f7420636f6d706c657465640000000000000000006044820152606401610484565b6003810154610100900460ff16156112f85760405162461bcd60e51b8152602060048201526016602482015275119d5b991cc8185b1c9958591e481c995b19585cd95960521b6044820152606401610484565b6003808201805461ff00191661010017905582015460028201546040516001600160a01b039092169181156108fc0291906000818181858888f19350505050158015611348573d6000803e3d6000fd5b5082847f24d2f6e8ac6c13d1e7610752ab0b7ce03d5043806a65d3d631ae859ad81d159b836002015460405161138091815260200190565b60405180910390a35050610d836001600355565b6060806000806000806060600080600560008b8152602001908152602001600020905080600101816002018260030160009054906101000a90046001600160a01b0316836004015484600501548560060160009054906101000a900460ff168660080187600901548780546114089061270f565b80601f01602080910402602001604051908101604052809291908181526020018280546114349061270f565b80156114815780601f1061145657610100808354040283529160200191611481565b820191906000526020600020905b81548152906001019060200180831161146457829003601f168201915b505050505097508680546114949061270f565b80601f01602080910402602001604051908101604052809291908181526020018280546114c09061270f565b801561150d5780601f106114e25761010080835404028352916020019161150d565b820191906000526020600020905b8154815290600101906020018083116114f057829003601f168201915b505050505096508180546115209061270f565b80601f016020809104026020016040519081016040528092919081815260200182805461154c9061270f565b80156115995780601f1061156e57610100808354040283529160200191611599565b820191906000526020600020905b81548152906001019060200180831161157c57829003601f168201915b505050505091509850985098509850985098509850985050919395975091939597565b6001600160a01b0385163314806115d857506115d8853361037b565b6115f45760405162461bcd60e51b815260040161048490612749565b6108998585858585611b8b565b600082815260056020526040902060038101546001600160a01b031633146116605760405162461bcd60e51b81526020600482015260126024820152712737ba103a3432903932b9b2b0b931b432b960711b6044820152606401610484565b60008381526006602090815260408083208584529091529020600381015460ff16156116ce5760405162461bcd60e51b815260206004820152601b60248201527f4d696c6573746f6e6520616c726561647920636f6d706c6574656400000000006044820152606401610484565b80600101548160020154101561171f5760405162461bcd60e51b8152602060048201526016602482015275119d5b991a5b99c81d185c99d95d081b9bdd081b595d60521b6044820152606401610484565b60038101805460ff19166001179055604051839085907f1b7218c0ac23ea9cbe4df603d2b340fbf469a115b73ea3d11460727f445d6be190600090a350505050565b81518351146117c35760405162461bcd60e51b815260206004820152602860248201527f455243313135353a2069647320616e6420616d6f756e7473206c656e677468206044820152670dad2e6dac2e8c6d60c31b6064820152608401610484565b6001600160a01b0384166117e95760405162461bcd60e51b81526004016104849061297a565b3360005b84518110156118d057600085828151811061180a5761180a612797565b60200260200101519050600085838151811061182857611828612797565b602090810291909101810151600084815280835260408082206001600160a01b038e1683529093529190912054909150818110156118785760405162461bcd60e51b8152600401610484906129bf565b6000838152602081815260408083206001600160a01b038e8116855292528083208585039055908b168252812080548492906118b59084906127dc565b92505081905550505050806118c9906127c3565b90506117ed565b50846001600160a01b0316866001600160a01b0316826001600160a01b03167f4a39dc06d4c0dbc64b70af90fd698a233a518aa5d07e595d983b8c0526c8f7fb8787604051611920929190612a09565b60405180910390a4611936818787878787611cb5565b505050505050565b6002600354036119905760405162461bcd60e51b815260206004820152601f60248201527f5265656e7472616e637947756172643a207265656e7472616e742063616c6c006044820152606401610484565b6002600355565b6001600160a01b0384166119f75760405162461bcd60e51b815260206004820152602160248201527f455243313135353a206d696e7420746f20746865207a65726f206164647265736044820152607360f81b6064820152608401610484565b336000611a0385611e10565b90506000611a1085611e10565b90506000868152602081815260408083206001600160a01b038b16845290915281208054879290611a429084906127dc565b909155505060408051878152602081018790526001600160a01b03808a1692600092918716917fc3d58168c5ae7397731d063d5bbf3d657854427343f4c083240f7aacaa2d0f62910160405180910390a4611aa283600089898989611e5b565b50505050505050565b816001600160a01b0316836001600160a01b031603611b1e5760405162461bcd60e51b815260206004820152602960248201527f455243313135353a2073657474696e6720617070726f76616c20737461747573604482015268103337b91039b2b63360b91b6064820152608401610484565b6001600160a01b03838116600081815260016020908152604080832094871680845294825291829020805460ff191686151590811790915591519182527f17307eab39ab6107e8899845ad3d59bd9653f200f220920489ca2b5937696c31910160405180910390a3505050565b6001600160a01b038416611bb15760405162461bcd60e51b81526004016104849061297a565b336000611bbd85611e10565b90506000611bca85611e10565b90506000868152602081815260408083206001600160a01b038c16845290915290205485811015611c0d5760405162461bcd60e51b8152600401610484906129bf565b6000878152602081815260408083206001600160a01b038d8116855292528083208985039055908a16825281208054889290611c4a9084906127dc565b909155505060408051888152602081018890526001600160a01b03808b16928c821692918816917fc3d58168c5ae7397731d063d5bbf3d657854427343f4c083240f7aacaa2d0f62910160405180910390a4611caa848a8a8a8a8a611e5b565b505050505050505050565b6001600160a01b0384163b156119365760405163bc197c8160e01b81526001600160a01b0385169063bc197c8190611cf99089908990889088908890600401612a2e565b6020604051808303816000875af1925050508015611d34575060408051601f3d908101601f19168201909252611d3191810190612a8c565b60015b611de057611d40612aa9565b806308c379a003611d795750611d54612ac5565b80611d5f5750611d7b565b8060405162461bcd60e51b81526004016104849190612055565b505b60405162461bcd60e51b815260206004820152603460248201527f455243313135353a207472616e7366657220746f206e6f6e2d455243313135356044820152732932b1b2b4bb32b91034b6b83632b6b2b73a32b960611b6064820152608401610484565b6001600160e01b0319811663bc197c8160e01b14611aa25760405162461bcd60e51b815260040161048490612b4f565b60408051600180825281830190925260609160009190602080830190803683370190505090508281600081518110611e4a57611e4a612797565b602090810291909101015292915050565b6001600160a01b0384163b156119365760405163f23a6e6160e01b81526001600160a01b0385169063f23a6e6190611e9f9089908990889088908890600401612b97565b6020604051808303816000875af1925050508015611eda575060408051601f3d908101601f19168201909252611ed791810190612a8c565b60015b611ee657611d40612aa9565b6001600160e01b0319811663f23a6e6160e01b14611aa25760405162461bcd60e51b815260040161048490612b4f565b828054828255906000526020600020908101928215611f51579160200282015b82811115611f51578251825591602001919060010190611f36565b50611f5d929150611f61565b5090565b5b80821115611f5d5760008155600101611f62565b80356001600160a01b0381168114611f8d57600080fd5b919050565b60008060408385031215611fa557600080fd5b611fae83611f76565b946020939093013593505050565b6001600160e01b031981168114610c8f57600080fd5b600060208284031215611fe457600080fd5b8135611fef81611fbc565b9392505050565b60006020828403121561200857600080fd5b5035919050565b6000815180845260005b8181101561203557602081850181015186830182015201612019565b506000602082860101526020601f19601f83011685010191505092915050565b602081526000611fef602083018461200f565b60006101208b83528060208401526120828184018c61200f565b90508281036040840152612096818b61200f565b6001600160a01b038a1660608501526080840189905260a0840188905286151560c085015283810360e085015290506120cf818661200f565b915050826101008301529a9950505050505050505050565b600080604083850312156120fa57600080fd5b50508035926020909101359150565b60a08152600061211c60a083018861200f565b602083019690965250604081019390935290151560608301521515608090910152919050565b634e487b7160e01b600052604160045260246000fd5b601f8201601f1916810167ffffffffffffffff8111828210171561217e5761217e612142565b6040525050565b600067ffffffffffffffff82111561219f5761219f612142565b5060051b60200190565b600082601f8301126121ba57600080fd5b813560206121c782612185565b6040516121d48282612158565b83815260059390931b85018201928281019150868411156121f457600080fd5b8286015b8481101561220f57803583529183019183016121f8565b509695505050505050565b600082601f83011261222b57600080fd5b813567ffffffffffffffff81111561224557612245612142565b60405161225c601f8301601f191660200182612158565b81815284602083860101111561227157600080fd5b816020850160208301376000918101602001919091529392505050565b600080600080600060a086880312156122a657600080fd5b6122af86611f76565b94506122bd60208701611f76565b9350604086013567ffffffffffffffff808211156122da57600080fd5b6122e689838a016121a9565b945060608801359150808211156122fc57600080fd5b61230889838a016121a9565b9350608088013591508082111561231e57600080fd5b5061232b8882890161221a565b9150509295509295909350565b6000806040838503121561234b57600080fd5b8235915061235b60208401611f76565b90509250929050565b6000806040838503121561237757600080fd5b823567ffffffffffffffff8082111561238f57600080fd5b818501915085601f8301126123a357600080fd5b813560206123b082612185565b6040516123bd8282612158565b83815260059390931b85018201928281019150898411156123dd57600080fd5b948201945b83861015612402576123f386611f76565b825294820194908201906123e2565b9650508601359250508082111561241857600080fd5b50612425858286016121a9565b9150509250929050565b600081518084526020808501945080840160005b8381101561245f57815187529582019590820190600101612443565b509495945050505050565b602081526000611fef602083018461242f565b6000806040838503121561249057600080fd5b61249983611f76565b9150602083013580151581146124ae57600080fd5b809150509250929050565b600082601f8301126124ca57600080fd5b813560206124d782612185565b6040516124e48282612158565b83815260059390931b850182019282810191508684111561250457600080fd5b8286015b8481101561220f57803567ffffffffffffffff8111156125285760008081fd5b6125368986838b010161221a565b845250918301918301612508565b600080600080600060a0868803121561255c57600080fd5b853567ffffffffffffffff8082111561257457600080fd5b61258089838a0161221a565b9650602088013591508082111561259657600080fd5b6125a289838a0161221a565b955060408801359150808211156125b857600080fd5b6125c489838a0161221a565b945060608801359150808211156125da57600080fd5b6125e689838a016124b9565b935060808801359150808211156125fc57600080fd5b5061232b888289016121a9565b6000806040838503121561261c57600080fd5b61262583611f76565b915061235b60208401611f76565b60006101008083526126478184018c61200f565b9050828103602084015261265b818b61200f565b6001600160a01b038a166040850152606084018990526080840188905286151560a085015283810360c08501529050612694818661200f565b9150508260e08301529998505050505050505050565b600080600080600060a086880312156126c257600080fd5b6126cb86611f76565b94506126d960208701611f76565b93506040860135925060608601359150608086013567ffffffffffffffff81111561270357600080fd5b61232b8882890161221a565b600181811c9082168061272357607f821691505b60208210810361274357634e487b7160e01b600052602260045260246000fd5b50919050565b6020808252602e908201527f455243313135353a2063616c6c6572206973206e6f7420746f6b656e206f776e60408201526d195c881bdc88185c1c1c9bdd995960921b606082015260800190565b634e487b7160e01b600052603260045260246000fd5b634e487b7160e01b600052601160045260246000fd5b6000600182016127d5576127d56127ad565b5060010190565b808201808211156104b0576104b06127ad565b80820281158282048414176104b0576104b06127ad565b60008261282357634e487b7160e01b600052601260045260246000fd5b500490565b601f82111561286e57600081815260208120601f850160051c8101602086101561284f5750805b601f850160051c820191505b818110156119365782815560010161285b565b505050565b815167ffffffffffffffff81111561288d5761288d612142565b6128a18161289b845461270f565b84612828565b602080601f8311600181146128d657600084156128be5750858301515b600019600386901b1c1916600185901b178555611936565b600085815260208120601f198616915b82811015612905578886015182559484019460019091019084016128e6565b50858210156129235787850151600019600388901b60f8161c191681555b5050505050600190811b01905550565b604081526000612946604083018561200f565b90508260208301529392505050565b604081526000612968604083018561200f565b82810360208401526111c8818561200f565b60208082526025908201527f455243313135353a207472616e7366657220746f20746865207a65726f206164604082015264647265737360d81b606082015260800190565b6020808252602a908201527f455243313135353a20696e73756666696369656e742062616c616e636520666f60408201526939103a3930b739b332b960b11b606082015260800190565b604081526000612a1c604083018561242f565b82810360208401526111c8818561242f565b6001600160a01b0386811682528516602082015260a060408201819052600090612a5a9083018661242f565b8281036060840152612a6c818661242f565b90508281036080840152612a80818561200f565b98975050505050505050565b600060208284031215612a9e57600080fd5b8151611fef81611fbc565b600060033d1115612ac25760046000803e5060005160e01c5b90565b600060443d1015612ad35790565b6040516003193d81016004833e81513d67ffffffffffffffff8160248401118184111715612b0357505050505090565b8285019150815181811115612b1b5750505050505090565b843d8701016020828501011115612b355750505050505090565b612b4460208286010187612158565b509095945050505050565b60208082526028908201527f455243313135353a204552433131353552656365697665722072656a656374656040820152676420746f6b656e7360c01b606082015260800190565b6001600160a01b03868116825285166020820152604081018490526060810183905260a060808201819052600090612bd19083018461200f565b97965050505050505056fea2646970667358221220c99be50ff00b81634974cf7fb1dd7a768f68432c2995b9e2229abb8a0ac3b63164736f6c63430008110033",
  "linkReferences": {},
  "deployedLinkReferences": {}
}