{
  "_format": "hh-sol-artifact-1",
  "contractName": "RoyaltyModule",
  "sourceName": "contracts/RoyaltyModule.sol",
  "abi": [
    {
      "inputs": [],
      "name": "IP_ASSET_MODULE_TYPE",
      "outputs": [
        {
          "internalType": "bytes32",
          "name": "",
          "type": "bytes32"
        }
      ],
      "stateMutability": "view",
      "type": "function"
    },
    {
      "inputs": [],
      "name": "MODULE_TYPE",
      "outputs": [
        {
          "internalType": "bytes32",
          "name": "",
          "type": "bytes32"
        }
      ],
      "stateMutability": "view",
      "type": "function"
    },
    {
      "inputs": [
        {
          "internalType": "uint256",
          "name": "ipTokenId",
          "type": "uint256"
        },
        {
          "internalType": "uint256",
          "name": "amount",
          "type": "uint256"
        }
      ],
      "name": "calculateRoyalty",
      "outputs": [
        {
          "internalType": "uint256",
          "name": "",
          "type": "uint256"
        }
      ],
      "stateMutability": "view",
      "type": "function"
    },
    {
      "inputs": [],
      "name": "getModuleType",
      "outputs": [
        {
          "internalType": "bytes32",
          "name": "",
          "type": "bytes32"
        }
      ],
      "stateMutability": "pure",
      "type": "function"
    },
    {
      "inputs": [
        {
          "internalType": "uint256",
          "name": "ipTokenId",
          "type": "uint256"
        }
      ],
      "name": "getPendingRoyalties",
      "outputs": [
        {
          "internalType": "uint256",
          "name": "",
          "type": "uint256"
        }
      ],
      "stateMutability": "view",
      "type": "function"
    },
    {
      "inputs": [
        {
          "internalType": "uint256",
          "name": "ipTokenId",
          "type": "uint256"
        }
      ],
      "name": "getRoyaltyInfo",
      "outputs": [
        {
          "components": [
            {
              "internalType": "address",
              "name": "recipient",
              "type": "address"
            },
            {
              "internalType": "uint256",
              "name": "percentage",
              "type": "uint256"
            },
            {
              "internalType": "uint256",
              "name": "maxAmount",
              "type": "uint256"
            },
            {
              "internalType": "uint256",
              "name": "paidAmount",
              "type": "uint256"
            }
          ],
          "internalType": "struct IRoyaltyModule.RoyaltyInfo",
          "name": "",
          "type": "tuple"
        }
      ],
      "stateMutability": "view",
      "type": "function"
    },
    {
      "inputs": [
        {
          "internalType": "address",
          "name": "registryAddress",
          "type": "address"
        }
      ],
      "name": "initialize",
      "outputs": [],
      "stateMutability": "nonpayable",
      "type": "function"
    },
    {
      "inputs": [
        {
          "internalType": "uint256",
          "name": "ipTokenId",
          "type": "uint256"
        }
      ],
      "name": "payRoyalty",
      "outputs": [],
      "stateMutability": "payable",
      "type": "function"
    },
    {
      "inputs": [],
      "name": "registry",
      "outputs": [
        {
          "internalType": "contract Registry",
          "name": "",
          "type": "address"
        }
      ],
      "stateMutability": "view",
      "type": "function"
    },
    {
      "inputs": [
        {
          "internalType": "uint256",
          "name": "ipTokenId",
          "type": "uint256"
        },
        {
          "components": [
            {
              "internalType": "address",
              "name": "recipient",
              "type": "address"
            },
            {
              "internalType": "uint256",
              "name": "percentage",
              "type": "uint256"
            },
            {
              "internalType": "uint256",
              "name": "maxAmount",
              "type": "uint256"
            },
            {
              "internalType": "uint256",
              "name": "paidAmount",
              "type": "uint256"
            }
          ],
          "internalType": "struct IRoyaltyModule.RoyaltyInfo",
          "name": "info",
          "type": "tuple"
        }
      ],
      "name": "setRoyaltyInfo",
      "outputs": [],
      "stateMutability": "nonpayable",
      "type": "function"
    },
    {
      "inputs": [
        {
          "internalType": "uint256",
          "name": "ipTokenId",
          "type": "uint256"
        }
      ],
      "name": "withdrawRoyalties",
      "outputs": [],
      "stateMutability": "nonpayable",
      "type": "function"
    }
  ],
  "bytecode": "0x608060405234801561001057600080fd5b5060018055610bdf806100246000396000f3fe60806040526004361061009c5760003560e01c8063870e20cf11610064578063870e20cf146101a5578063b0708a35146101d2578063b76c632b146101f2578063c4d66de81461024e578063c7cc9b111461026e578063ee612dad1461028157600080fd5b80630b9349b9146100a1578063482feb94146100e35780635775029f146101175780635daa02ed1461014b5780637b1039991461016d575b600080fd5b3480156100ad57600080fd5b507f687950a59f7ff119db18dfaf646daec139eaebf7cf1d29b4864f2cd6139938135b6040519081526020015b60405180910390f35b3480156100ef57600080fd5b506100d07f0a03fc9e6a2bf33f0b1011d488d44c4ad9dc6227a08becad8d5b89c68e449ee881565b34801561012357600080fd5b506100d07f687950a59f7ff119db18dfaf646daec139eaebf7cf1d29b4864f2cd61399381381565b34801561015757600080fd5b5061016b6101663660046109bf565b6102a1565b005b34801561017957600080fd5b5060005461018d906001600160a01b031681565b6040516001600160a01b0390911681526020016100da565b3480156101b157600080fd5b506100d06101c03660046109bf565b60009081526003602052604090205490565b3480156101de57600080fd5b506100d06101ed3660046109d8565b610412565b3480156101fe57600080fd5b5061021261020d3660046109bf565b61047c565b6040516100da919081516001600160a01b0316815260208083015190820152604080830151908201526060918201519181019190915260800190565b34801561025a57600080fd5b5061016b610269366004610a0f565b6104fb565b61016b61027c3660046109bf565b6105de565b34801561028d57600080fd5b5061016b61029c366004610a33565b610736565b600054600160a01b900460ff166102d35760405162461bcd60e51b81526004016102ca90610a6b565b60405180910390fd5b6102db61086c565b600081815260026020526040902080546001600160a01b031633146103535760405162461bcd60e51b815260206004820152602860248201527f526f79616c74794d6f64756c653a204e6f742074686520726f79616c747920726044820152671958da5c1a595b9d60c21b60648201526084016102ca565b600082815260036020526040902054806103bb5760405162461bcd60e51b815260206004820152602360248201527f526f79616c74794d6f64756c653a204e6f2070656e64696e6720726f79616c7460448201526269657360e81b60648201526084016102ca565b600083815260036020526040808220829055835490516001600160a01b039091169183156108fc02918491818181858888f19350505050158015610403573d6000803e3d6000fd5b50505061040f60018055565b50565b600082815260026020526040812060018101548290612710906104359086610ac3565b61043f9190610ada565b600283015490915015610472576000826003015483600201546104629190610afc565b905080821115610470578091505b505b9150505b92915050565b6104b0604051806080016040528060006001600160a01b031681526020016000815260200160008152602001600081525090565b50600090815260026020818152604092839020835160808101855281546001600160a01b03168152600182015492810192909252918201549281019290925260030154606082015290565b600054600160a01b900460ff16156105555760405162461bcd60e51b815260206004820152601f60248201527f4d6f64756c65426173653a20416c726561647920696e697469616c697a65640060448201526064016102ca565b6001600160a01b0381166105b75760405162461bcd60e51b8152602060048201526024808201527f4d6f64756c65426173653a20496e76616c6964207265676973747279206164646044820152637265737360e01b60648201526084016102ca565b600080546001600160a81b0319166001600160a01b0390921691909117600160a01b179055565b600054600160a01b900460ff166106075760405162461bcd60e51b81526004016102ca90610a6b565b61060f61086c565b600081815260026020526040902080546001600160a01b03166106855760405162461bcd60e51b815260206004820152602860248201527f526f79616c74794d6f64756c653a20526f79616c747920726563697069656e74604482015267081b9bdd081cd95d60c21b60648201526084016102ca565b60028101543490156106ee576000826003015483600201546106a79190610afc565b9050808211156106ec57905080336108fc6106c28334610afc565b6040518115909202916000818181858888f193505050501580156106ea573d6000803e3d6000fd5b505b505b808260030160008282546107029190610b0f565b909155505060008381526003602052604081208054839290610725908490610b0f565b9091555050600180555061040f9050565b600054600160a01b900460ff1661075f5760405162461bcd60e51b81526004016102ca90610a6b565b600061078a7f0a03fc9e6a2bf33f0b1011d488d44c4ad9dc6227a08becad8d5b89c68e449ee86108c5565b604051631dbd3a3f60e21b81526004810185905233602482015290915081906001600160a01b038216906376f4e8fc90604401602060405180830381865afa1580156107da573d6000803e3d6000fd5b505050506040513d601f19601f820116820180604052508101906107fe9190610b22565b61084a5760405162461bcd60e51b815260206004820152601f60248201527f526f79616c74794d6f64756c653a204e6f7420746865204950206f776e65720060448201526064016102ca565b600084815260026020526040902083906108648282610b44565b505050505050565b6002600154036108be5760405162461bcd60e51b815260206004820152601f60248201527f5265656e7472616e637947756172643a207265656e7472616e742063616c6c0060448201526064016102ca565b6002600155565b60008054600160a01b900460ff166108ef5760405162461bcd60e51b81526004016102ca90610a6b565b600080546040516385acd64160e01b8152600481018590526001600160a01b03909116906385acd64190602401602060405180830381865afa158015610939573d6000803e3d6000fd5b505050506040513d601f19601f8201168201806040525081019061095d9190610b8c565b90506001600160a01b0381166104765760405162461bcd60e51b815260206004820152602160248201527f4d6f64756c65426173653a204d6f64756c65206e6f74207265676973746572656044820152601960fa1b60648201526084016102ca565b6000602082840312156109d157600080fd5b5035919050565b600080604083850312156109eb57600080fd5b50508035926020909101359150565b6001600160a01b038116811461040f57600080fd5b600060208284031215610a2157600080fd5b8135610a2c816109fa565b9392505050565b60008082840360a0811215610a4757600080fd5b833592506080601f1982011215610a5d57600080fd5b506020830190509250929050565b60208082526022908201527f4d6f64756c65426173653a204d6f64756c65206e6f7420696e697469616c697a604082015261195960f21b606082015260800190565b634e487b7160e01b600052601160045260246000fd5b808202811582820484141761047657610476610aad565b600082610af757634e487b7160e01b600052601260045260246000fd5b500490565b8181038181111561047657610476610aad565b8082018082111561047657610476610aad565b600060208284031215610b3457600080fd5b81518015158114610a2c57600080fd5b8135610b4f816109fa565b81546001600160a01b0319166001600160a01b03919091161781556020820135600182015560408201356002820155606090910135600390910155565b600060208284031215610b9e57600080fd5b8151610a2c816109fa56fea264697066735822122058dfe0f7ff88193f758555c791959ef20e86ea6622438258be5555b2a548c55f64736f6c63430008110033",
  "linkReferences": {},
  "deployedLinkReferences": {}
}